{
  "contractName": "Manager",
  "abi": [
    {
      "inputs": [],
      "stateMutability": "nonpayable",
      "type": "constructor"
    },
    {
      "anonymous": false,
      "inputs": [
        {
          "indexed": false,
          "internalType": "enum TicketStatus",
          "name": "",
          "type": "uint8"
        }
      ],
      "name": "ChangedStatusTicket",
      "type": "event"
    },
    {
      "anonymous": false,
      "inputs": [
        {
          "indexed": false,
          "internalType": "enum TransferStatus",
          "name": "",
          "type": "uint8"
        }
      ],
      "name": "ChangedTransferStatusTicket",
      "type": "event"
    },
    {
      "anonymous": false,
      "inputs": [
        {
          "indexed": false,
          "internalType": "string",
          "name": "",
          "type": "string"
        },
        {
          "indexed": false,
          "internalType": "string",
          "name": "",
          "type": "string"
        },
        {
          "indexed": false,
          "internalType": "uint256",
          "name": "",
          "type": "uint256"
        },
        {
          "indexed": false,
          "internalType": "address",
          "name": "",
          "type": "address"
        }
      ],
      "name": "CreatedTicket",
      "type": "event"
    },
    {
      "anonymous": false,
      "inputs": [
        {
          "indexed": false,
          "internalType": "uint256",
          "name": "",
          "type": "uint256"
        }
      ],
      "name": "DeletedTicket",
      "type": "event"
    },
    {
      "anonymous": false,
      "inputs": [
        {
          "indexed": false,
          "internalType": "uint256",
          "name": "amount",
          "type": "uint256"
        }
      ],
      "name": "FundsReceived",
      "type": "event"
    },
    {
      "anonymous": false,
      "inputs": [
        {
          "indexed": false,
          "internalType": "uint256",
          "name": "",
          "type": "uint256"
        }
      ],
      "name": "ManagedFee",
      "type": "event"
    },
    {
      "anonymous": false,
      "inputs": [
        {
          "indexed": false,
          "internalType": "uint256",
          "name": "",
          "type": "uint256"
        }
      ],
      "name": "NewPrice",
      "type": "event"
    },
    {
      "anonymous": false,
      "inputs": [
        {
          "indexed": true,
          "internalType": "address",
          "name": "previousOwner",
          "type": "address"
        },
        {
          "indexed": true,
          "internalType": "address",
          "name": "newOwner",
          "type": "address"
        }
      ],
      "name": "OwnershipTransferred",
      "type": "event"
    },
    {
      "anonymous": false,
      "inputs": [
        {
          "indexed": false,
          "internalType": "uint256",
          "name": "",
          "type": "uint256"
        },
        {
          "indexed": false,
          "internalType": "uint256",
          "name": "",
          "type": "uint256"
        }
      ],
      "name": "ShowStatistics",
      "type": "event"
    },
    {
      "anonymous": false,
      "inputs": [
        {
          "indexed": false,
          "internalType": "address",
          "name": "",
          "type": "address"
        },
        {
          "indexed": false,
          "internalType": "address",
          "name": "",
          "type": "address"
        }
      ],
      "name": "TransferredTicket",
      "type": "event"
    },
    {
      "stateMutability": "payable",
      "type": "fallback"
    },
    {
      "inputs": [
        {
          "internalType": "uint256",
          "name": "",
          "type": "uint256"
        }
      ],
      "name": "OwnersTickets",
      "outputs": [
        {
          "internalType": "address",
          "name": "",
          "type": "address"
        }
      ],
      "stateMutability": "view",
      "type": "function"
    },
    {
      "inputs": [],
      "name": "owner",
      "outputs": [
        {
          "internalType": "address",
          "name": "",
          "type": "address"
        }
      ],
      "stateMutability": "view",
      "type": "function"
    },
    {
      "inputs": [],
      "name": "renounceOwnership",
      "outputs": [],
      "stateMutability": "nonpayable",
      "type": "function"
    },
    {
      "inputs": [
        {
          "internalType": "address",
          "name": "newOwner",
          "type": "address"
        }
      ],
      "name": "transferOwnership",
      "outputs": [],
      "stateMutability": "nonpayable",
      "type": "function"
    },
    {
      "stateMutability": "payable",
      "type": "receive"
    },
    {
      "inputs": [
        {
          "internalType": "string",
          "name": "_eventName",
          "type": "string"
        },
        {
          "internalType": "string",
          "name": "_eventDescription",
          "type": "string"
        },
        {
          "internalType": "enum EventType",
          "name": "_eventType",
          "type": "uint8"
        },
        {
          "internalType": "uint256",
          "name": "_price",
          "type": "uint256"
        }
      ],
      "name": "createTicket",
      "outputs": [],
      "stateMutability": "payable",
      "type": "function"
    },
    {
      "inputs": [
        {
          "internalType": "address",
          "name": "_addressOwner",
          "type": "address"
        },
        {
          "internalType": "uint256",
          "name": "_index",
          "type": "uint256"
        },
        {
          "internalType": "uint256",
          "name": "_newPriceTicket",
          "type": "uint256"
        }
      ],
      "name": "changeTicketPrice",
      "outputs": [],
      "stateMutability": "payable",
      "type": "function"
    },
    {
      "inputs": [],
      "name": "showStatistics",
      "outputs": [],
      "stateMutability": "nonpayable",
      "type": "function"
    },
    {
      "inputs": [
        {
          "internalType": "address",
          "name": "_addressOwner",
          "type": "address"
        },
        {
          "internalType": "uint256",
          "name": "_index",
          "type": "uint256"
        }
      ],
      "name": "deleteTicket",
      "outputs": [],
      "stateMutability": "nonpayable",
      "type": "function"
    },
    {
      "inputs": [
        {
          "internalType": "address",
          "name": "_addressOwner",
          "type": "address"
        },
        {
          "internalType": "uint256",
          "name": "_index",
          "type": "uint256"
        }
      ],
      "name": "changeTransferStatusTicket",
      "outputs": [],
      "stateMutability": "nonpayable",
      "type": "function"
    },
    {
      "inputs": [
        {
          "internalType": "address",
          "name": "_addressOwner",
          "type": "address"
        },
        {
          "internalType": "uint256",
          "name": "_index",
          "type": "uint256"
        },
        {
          "internalType": "uint256",
          "name": "_newTicketStatus",
          "type": "uint256"
        }
      ],
      "name": "changeStatusTicket",
      "outputs": [],
      "stateMutability": "nonpayable",
      "type": "function"
    },
    {
      "inputs": [
        {
          "internalType": "address",
          "name": "_addressOwner",
          "type": "address"
        },
        {
          "internalType": "uint256",
          "name": "_index",
          "type": "uint256"
        },
        {
          "internalType": "address",
          "name": "_newOwner",
          "type": "address"
        }
      ],
      "name": "transferTicket",
      "outputs": [],
      "stateMutability": "payable",
      "type": "function"
    },
    {
      "inputs": [
        {
          "internalType": "address",
          "name": "_addressOwner",
          "type": "address"
        }
      ],
      "name": "showTicketsByAddress",
      "outputs": [],
      "stateMutability": "nonpayable",
      "type": "function"
    },
    {
      "inputs": [],
      "name": "showAllTickets",
      "outputs": [],
      "stateMutability": "nonpayable",
      "type": "function"
    },
    {
      "inputs": [
        {
          "internalType": "uint256",
          "name": "_feeTicket",
          "type": "uint256"
        }
      ],
      "name": "feeManage",
      "outputs": [
        {
          "internalType": "uint256",
          "name": "",
          "type": "uint256"
        }
      ],
      "stateMutability": "payable",
      "type": "function"
    },
    {
      "inputs": [
        {
          "internalType": "address",
          "name": "_addressOwner",
          "type": "address"
        },
        {
          "internalType": "uint256",
          "name": "_index",
          "type": "uint256"
        }
      ],
      "name": "feeCalculation",
      "outputs": [
        {
          "internalType": "uint256",
          "name": "",
          "type": "uint256"
        }
      ],
      "stateMutability": "view",
      "type": "function"
    }
  ],
  "bytecode": "0x608060405260006003556000600455600580553480156200001f57600080fd5b5062000040620000346200008760201b60201c565b6200008f60201b60201c565b33600660006101000a81548173ffffffffffffffffffffffffffffffffffffffff021916908373ffffffffffffffffffffffffffffffffffffffff16021790555062000153565b600033905090565b60008060009054906101000a900473ffffffffffffffffffffffffffffffffffffffff169050816000806101000a81548173ffffffffffffffffffffffffffffffffffffffff021916908373ffffffffffffffffffffffffffffffffffffffff1602179055508173ffffffffffffffffffffffffffffffffffffffff168173ffffffffffffffffffffffffffffffffffffffff167f8be0079c531659141344cd1fd0a4f28419497f9722a3daafe3b4186f6b6457e060405160405180910390a35050565b61500780620001636000396000f3fe608060405260043610620001035760003560e01c80639a9bb7651162000097578063ed4be5da1162000061578063ed4be5da1462000341578063f08deb15146200036f578063f2fde38b146200039d578063fd50715a14620003cb5762000144565b80639a9bb76514620002b9578063b316164714620002d9578063d0c451c014620002f3578063e6977ea214620003215762000144565b80638904bb6611620000d95780638904bb66146200020b5780638da5cb5b146200024f57806390680243146200027f57806394701d7b14620002995762000144565b80631e6bc4a5146200017f5780632d1645b814620001c3578063715018a614620001f15762000144565b3662000144577fbcdc7071c1beb6dcf2744621e0b29a2f2432ee20812d9ca5e3d5e8f9308d93a3346040516200013a919062002741565b60405180910390a1005b7fbcdc7071c1beb6dcf2744621e0b29a2f2432ee20812d9ca5e3d5e8f9308d93a33460405162000175919062002741565b60405180910390a1005b3480156200018c57600080fd5b50620001ab6004803603810190620001a59190620027a3565b62000401565b604051620001ba91906200281a565b60405180910390f35b348015620001d057600080fd5b50620001ef6004803603810190620001e9919062002868565b62000441565b005b348015620001fe57600080fd5b5062000209620007b1565b005b3480156200021857600080fd5b5062000237600480360381019062000231919062002868565b620007c9565b60405162000246919062002741565b60405180910390f35b3480156200025c57600080fd5b5062000267620008e0565b6040516200027691906200281a565b60405180910390f35b3480156200028c57600080fd5b506200029762000909565b005b620002b76004803603810190620002b19190620028af565b62000954565b005b620002d76004803603810190620002d1919062002a95565b62001292565b005b348015620002e657600080fd5b50620002f162001452565b005b3480156200030057600080fd5b506200031f600480360381019062000319919062002b45565b62001513565b005b6200033f600480360381019062000339919062002b77565b6200165b565b005b3480156200034e57600080fd5b506200036d600480360381019062000367919062002868565b62001be4565b005b3480156200037c57600080fd5b506200039b600480360381019062000395919062002b77565b620020a0565b005b348015620003aa57600080fd5b50620003c96004803603810190620003c3919062002b45565b6200241e565b005b620003e96004803603810190620003e39190620027a3565b620024a8565b604051620003f8919062002741565b60405180910390f35b600281815481106200041257600080fd5b906000526020600020016000915054906101000a900473ffffffffffffffffffffffffffffffffffffffff1681565b81813373ffffffffffffffffffffffffffffffffffffffff16600160008473ffffffffffffffffffffffffffffffffffffffff1673ffffffffffffffffffffffffffffffffffffffff1681526020019081526020016000208281548110620004ae57620004ad62002bd3565b5b9060005260206000200160009054906101000a900473ffffffffffffffffffffffffffffffffffffffff1673ffffffffffffffffffffffffffffffffffffffff1663893d20e86040518163ffffffff1660e01b8152600401602060405180830381865afa15801562000524573d6000803e3d6000fd5b505050506040513d601f19601f820116820180604052508101906200054a919062002c19565b73ffffffffffffffffffffffffffffffffffffffff1614620005a3576040517f08c379a00000000000000000000000000000000000000000000000000000000081526004016200059a9062002cd2565b60405180910390fd5b600160008573ffffffffffffffffffffffffffffffffffffffff1673ffffffffffffffffffffffffffffffffffffffff1681526020019081526020016000208381548110620005f757620005f662002bd3565b5b9060005260206000200160009054906101000a900473ffffffffffffffffffffffffffffffffffffffff1673ffffffffffffffffffffffffffffffffffffffff16638fcde9006040518163ffffffff1660e01b8152600401600060405180830381600087803b1580156200066a57600080fd5b505af11580156200067f573d6000803e3d6000fd5b505050507f5016c736980f15ba9ca6969354cd15ef1fe4875ddc8d6083ae2d2f21432eec70600160008673ffffffffffffffffffffffffffffffffffffffff1673ffffffffffffffffffffffffffffffffffffffff1681526020019081526020016000208481548110620006f857620006f762002bd3565b5b9060005260206000200160009054906101000a900473ffffffffffffffffffffffffffffffffffffffff1673ffffffffffffffffffffffffffffffffffffffff16631a6fb3426040518163ffffffff1660e01b8152600401602060405180830381865afa1580156200076e573d6000803e3d6000fd5b505050506040513d601f19601f8201168201806040525081019062000794919062002d1c565b604051620007a3919062002dce565b60405180910390a150505050565b620007bb620025c7565b620007c760006200264c565b565b60006064600554600160008673ffffffffffffffffffffffffffffffffffffffff1673ffffffffffffffffffffffffffffffffffffffff168152602001908152602001600020848154811062000824576200082362002bd3565b5b9060005260206000200160009054906101000a900473ffffffffffffffffffffffffffffffffffffffff1673ffffffffffffffffffffffffffffffffffffffff166398d5fdca6040518163ffffffff1660e01b8152600401602060405180830381865afa1580156200089a573d6000803e3d6000fd5b505050506040513d601f19601f82011682018060405250810190620008c0919062002e02565b620008cc919062002e63565b620008d8919062002edd565b905092915050565b60008060009054906101000a900473ffffffffffffffffffffffffffffffffffffffff16905090565b62000913620025c7565b7f2fe515efe22a4094d7457228c6dc1a0c8c3bc2f31c51e37e1f8b421dc9c013786003546004546040516200094a92919062002f15565b60405180910390a1565b82823373ffffffffffffffffffffffffffffffffffffffff16600160008473ffffffffffffffffffffffffffffffffffffffff1673ffffffffffffffffffffffffffffffffffffffff1681526020019081526020016000208281548110620009c157620009c062002bd3565b5b9060005260206000200160009054906101000a900473ffffffffffffffffffffffffffffffffffffffff1673ffffffffffffffffffffffffffffffffffffffff1663893d20e86040518163ffffffff1660e01b8152600401602060405180830381865afa15801562000a37573d6000803e3d6000fd5b505050506040513d601f19601f8201168201806040525081019062000a5d919062002c19565b73ffffffffffffffffffffffffffffffffffffffff161462000ab6576040517f08c379a000000000000000000000000000000000000000000000000000000000815260040162000aad9062002cd2565b60405180910390fd5b600160008673ffffffffffffffffffffffffffffffffffffffff1673ffffffffffffffffffffffffffffffffffffffff168152602001908152602001600020848154811062000b0a5762000b0962002bd3565b5b9060005260206000200160009054906101000a900473ffffffffffffffffffffffffffffffffffffffff1673ffffffffffffffffffffffffffffffffffffffff1663893d20e86040518163ffffffff1660e01b8152600401602060405180830381865afa15801562000b80573d6000803e3d6000fd5b505050506040513d601f19601f8201168201806040525081019062000ba6919062002c19565b73ffffffffffffffffffffffffffffffffffffffff168573ffffffffffffffffffffffffffffffffffffffff161462000c16576040517f08c379a000000000000000000000000000000000000000000000000000000000815260040162000c0d9062002fb8565b60405180910390fd5b6000600181111562000c2d5762000c2c62002d4e565b5b600160008773ffffffffffffffffffffffffffffffffffffffff1673ffffffffffffffffffffffffffffffffffffffff168152602001908152602001600020858154811062000c815762000c8062002bd3565b5b9060005260206000200160009054906101000a900473ffffffffffffffffffffffffffffffffffffffff1673ffffffffffffffffffffffffffffffffffffffff16631a6fb3426040518163ffffffff1660e01b8152600401602060405180830381865afa15801562000cf7573d6000803e3d6000fd5b505050506040513d601f19601f8201168201806040525081019062000d1d919062002d1c565b600181111562000d325762000d3162002d4e565b5b1462000d75576040517f08c379a000000000000000000000000000000000000000000000000000000000815260040162000d6c906200302a565b60405180910390fd5b6000600281111562000d8c5762000d8b62002d4e565b5b600160008773ffffffffffffffffffffffffffffffffffffffff1673ffffffffffffffffffffffffffffffffffffffff168152602001908152602001600020858154811062000de05762000ddf62002bd3565b5b9060005260206000200160009054906101000a900473ffffffffffffffffffffffffffffffffffffffff1673ffffffffffffffffffffffffffffffffffffffff16633bc21fcb6040518163ffffffff1660e01b8152600401602060405180830381865afa15801562000e56573d6000803e3d6000fd5b505050506040513d601f19601f8201168201806040525081019062000e7c919062003074565b600281111562000e915762000e9062002d4e565b5b1462000ed4576040517f08c379a000000000000000000000000000000000000000000000000000000000815260040162000ecb90620030f6565b60405180910390fd5b3373ffffffffffffffffffffffffffffffffffffffff168373ffffffffffffffffffffffffffffffffffffffff161462000f45576040517f08c379a000000000000000000000000000000000000000000000000000000000815260040162000f3c906200318e565b60405180910390fd5b600062000f538686620007c9565b905080600160008873ffffffffffffffffffffffffffffffffffffffff1673ffffffffffffffffffffffffffffffffffffffff168152602001908152602001600020868154811062000faa5762000fa962002bd3565b5b9060005260206000200160009054906101000a900473ffffffffffffffffffffffffffffffffffffffff1673ffffffffffffffffffffffffffffffffffffffff166398d5fdca6040518163ffffffff1660e01b8152600401602060405180830381865afa15801562001020573d6000803e3d6000fd5b505050506040513d601f19601f8201168201806040525081019062001046919062002e02565b620010529190620031b0565b34101562001097576040517f08c379a00000000000000000000000000000000000000000000000000000000081526004016200108e906200323b565b60405180910390fd5b60008673ffffffffffffffffffffffffffffffffffffffff16620010bb83620024a8565b34620010c891906200325d565b604051620010d690620032cd565b60006040518083038185875af1925050503d806000811462001115576040519150601f19603f3d011682016040523d82523d6000602084013e6200111a565b606091505b505090508062001161576040517f08c379a0000000000000000000000000000000000000000000000000000000008152600401620011589062003334565b60405180910390fd5b600160008873ffffffffffffffffffffffffffffffffffffffff1673ffffffffffffffffffffffffffffffffffffffff1681526020019081526020016000208681548110620011b557620011b462002bd3565b5b9060005260206000200160009054906101000a900473ffffffffffffffffffffffffffffffffffffffff1673ffffffffffffffffffffffffffffffffffffffff1663a6f9dae1866040518263ffffffff1660e01b81526004016200121a91906200281a565b600060405180830381600087803b1580156200123557600080fd5b505af11580156200124a573d6000803e3d6000fd5b505050507f7478cc8eb40d9aeecde2e2f399de4bfeb61e737a737f3412f2a6043a077e449487866040516200128192919062003356565b60405180910390a150505050505050565b60008484848433604051620012a79062002718565b620012b79594939291906200344c565b604051809103906000f080158015620012d4573d6000803e3d6000fd5b509050600160003373ffffffffffffffffffffffffffffffffffffffff1673ffffffffffffffffffffffffffffffffffffffff168152602001908152602001600020819080600181540180825580915050600190039060005260206000200160009091909190916101000a81548173ffffffffffffffffffffffffffffffffffffffff021916908373ffffffffffffffffffffffffffffffffffffffff1602179055506002339080600181540180825580915050600190039060005260206000200160009091909190916101000a81548173ffffffffffffffffffffffffffffffffffffffff021916908373ffffffffffffffffffffffffffffffffffffffff160217905550600160036000828254620013ef9190620031b0565b9250508190555081600454620014069190620031b0565b6004819055507f40fa338683f6e5eed01ffc626eebf203d7ecbe0191af94c135076f46bae3116d85858433604051620014439493929190620034b7565b60405180910390a15050505050565b6000600280549050116200149d576040517f08c379a0000000000000000000000000000000000000000000000000000000008152600401620014949062003562565b60405180910390fd5b60005b6002805490508110156200151057620014fa60028281548110620014c957620014c862002bd3565b5b9060005260206000200160009054906101000a900473ffffffffffffffffffffffffffffffffffffffff1662001513565b8080620015079062003584565b915050620014a0565b50565b60005b600160008373ffffffffffffffffffffffffffffffffffffffff1673ffffffffffffffffffffffffffffffffffffffff168152602001908152602001600020805490508110156200165757600160008373ffffffffffffffffffffffffffffffffffffffff1673ffffffffffffffffffffffffffffffffffffffff1681526020019081526020016000208181548110620015b557620015b462002bd3565b5b9060005260206000200160009054906101000a900473ffffffffffffffffffffffffffffffffffffffff1673ffffffffffffffffffffffffffffffffffffffff1663f15358946040518163ffffffff1660e01b8152600401600060405180830381600087803b1580156200162857600080fd5b505af11580156200163d573d6000803e3d6000fd5b5050505080806200164e9062003584565b91505062001516565b5050565b82823373ffffffffffffffffffffffffffffffffffffffff16600160008473ffffffffffffffffffffffffffffffffffffffff1673ffffffffffffffffffffffffffffffffffffffff1681526020019081526020016000208281548110620016c857620016c762002bd3565b5b9060005260206000200160009054906101000a900473ffffffffffffffffffffffffffffffffffffffff1673ffffffffffffffffffffffffffffffffffffffff1663893d20e86040518163ffffffff1660e01b8152600401602060405180830381865afa1580156200173e573d6000803e3d6000fd5b505050506040513d601f19601f8201168201806040525081019062001764919062002c19565b73ffffffffffffffffffffffffffffffffffffffff1614620017bd576040517f08c379a0000000000000000000000000000000000000000000000000000000008152600401620017b49062002cd2565b60405180910390fd5b8473ffffffffffffffffffffffffffffffffffffffff16600160008773ffffffffffffffffffffffffffffffffffffffff1673ffffffffffffffffffffffffffffffffffffffff168152602001908152602001600020858154811062001828576200182762002bd3565b5b9060005260206000200160009054906101000a900473ffffffffffffffffffffffffffffffffffffffff1673ffffffffffffffffffffffffffffffffffffffff1663893d20e86040518163ffffffff1660e01b8152600401602060405180830381865afa1580156200189e573d6000803e3d6000fd5b505050506040513d601f19601f82011682018060405250810190620018c4919062002c19565b73ffffffffffffffffffffffffffffffffffffffff16146200191d576040517f08c379a0000000000000000000000000000000000000000000000000000000008152600401620019149062003647565b60405180910390fd5b600060646005548562001931919062002e63565b6200193d919062002edd565b905080846200194d9190620031b0565b34101562001992576040517f08c379a00000000000000000000000000000000000000000000000000000000081526004016200198990620036df565b60405180910390fd5b6200199d81620024a8565b506000600160008873ffffffffffffffffffffffffffffffffffffffff1673ffffffffffffffffffffffffffffffffffffffff1681526020019081526020016000208681548110620019f457620019f362002bd3565b5b9060005260206000200160009054906101000a900473ffffffffffffffffffffffffffffffffffffffff1673ffffffffffffffffffffffffffffffffffffffff166398d5fdca6040518163ffffffff1660e01b8152600401602060405180830381865afa15801562001a6a573d6000803e3d6000fd5b505050506040513d601f19601f8201168201806040525081019062001a90919062002e02565b8562001a9d91906200325d565b90508060045462001aaf9190620031b0565b600481905550600160008873ffffffffffffffffffffffffffffffffffffffff1673ffffffffffffffffffffffffffffffffffffffff168152602001908152602001600020868154811062001b095762001b0862002bd3565b5b9060005260206000200160009054906101000a900473ffffffffffffffffffffffffffffffffffffffff1673ffffffffffffffffffffffffffffffffffffffff1663a2b40d19866040518263ffffffff1660e01b815260040162001b6e919062002741565b600060405180830381600087803b15801562001b8957600080fd5b505af115801562001b9e573d6000803e3d6000fd5b505050507f270b316b51ab2cf3a3bb8ca4d22e76a327d05e762fcaa8bd6afaf8cfde9270b78560405162001bd3919062002741565b60405180910390a150505050505050565b62001bee620025c7565b600160008373ffffffffffffffffffffffffffffffffffffffff1673ffffffffffffffffffffffffffffffffffffffff16815260200190815260200160002060018262001c3c9190620031b0565b8154811062001c505762001c4f62002bd3565b5b9060005260206000200160009054906101000a900473ffffffffffffffffffffffffffffffffffffffff16600160008473ffffffffffffffffffffffffffffffffffffffff1673ffffffffffffffffffffffffffffffffffffffff168152602001908152602001600020828154811062001ccf5762001cce62002bd3565b5b9060005260206000200160006101000a81548173ffffffffffffffffffffffffffffffffffffffff021916908373ffffffffffffffffffffffffffffffffffffffff1602179055506000600160008473ffffffffffffffffffffffffffffffffffffffff1673ffffffffffffffffffffffffffffffffffffffff168152602001908152602001600020828154811062001d6d5762001d6c62002bd3565b5b9060005260206000200160009054906101000a900473ffffffffffffffffffffffffffffffffffffffff1673ffffffffffffffffffffffffffffffffffffffff166398d5fdca6040518163ffffffff1660e01b8152600401602060405180830381865afa15801562001de3573d6000803e3d6000fd5b505050506040513d601f19601f8201168201806040525081019062001e09919062002e02565b9050600160008473ffffffffffffffffffffffffffffffffffffffff1673ffffffffffffffffffffffffffffffffffffffff16815260200190815260200160002080548062001e5d5762001e5c62003701565b5b6001900381819060005260206000200160006101000a81549073ffffffffffffffffffffffffffffffffffffffff0219169055905560016003600082825462001ea791906200325d565b925050819055508060045462001ebe91906200325d565b600481905550600260018362001ed59190620031b0565b8154811062001ee95762001ee862002bd3565b5b9060005260206000200160009054906101000a900473ffffffffffffffffffffffffffffffffffffffff166002838154811062001f2b5762001f2a62002bd3565b5b9060005260206000200160006101000a81548173ffffffffffffffffffffffffffffffffffffffff021916908373ffffffffffffffffffffffffffffffffffffffff1602179055507f1049f766a3c2d53fc5550825d553de9bf2c3d86d02e0817899d8c3311956511e600160008573ffffffffffffffffffffffffffffffffffffffff1673ffffffffffffffffffffffffffffffffffffffff168152602001908152602001600020838154811062001fe85762001fe762002bd3565b5b9060005260206000200160009054906101000a900473ffffffffffffffffffffffffffffffffffffffff1673ffffffffffffffffffffffffffffffffffffffff16635d1ca6316040518163ffffffff1660e01b8152600401602060405180830381865afa1580156200205e573d6000803e3d6000fd5b505050506040513d601f19601f8201168201806040525081019062002084919062002e02565b60405162002093919062002741565b60405180910390a1505050565b82823373ffffffffffffffffffffffffffffffffffffffff16600160008473ffffffffffffffffffffffffffffffffffffffff1673ffffffffffffffffffffffffffffffffffffffff16815260200190815260200160002082815481106200210d576200210c62002bd3565b5b9060005260206000200160009054906101000a900473ffffffffffffffffffffffffffffffffffffffff1673ffffffffffffffffffffffffffffffffffffffff1663893d20e86040518163ffffffff1660e01b8152600401602060405180830381865afa15801562002183573d6000803e3d6000fd5b505050506040513d601f19601f82011682018060405250810190620021a9919062002c19565b73ffffffffffffffffffffffffffffffffffffffff161462002202576040517f08c379a0000000000000000000000000000000000000000000000000000000008152600401620021f99062002cd2565b60405180910390fd5b600160008673ffffffffffffffffffffffffffffffffffffffff1673ffffffffffffffffffffffffffffffffffffffff168152602001908152602001600020848154811062002256576200225562002bd3565b5b9060005260206000200160009054906101000a900473ffffffffffffffffffffffffffffffffffffffff1673ffffffffffffffffffffffffffffffffffffffff1663e8025d77846040518263ffffffff1660e01b8152600401620022bb919062002741565b600060405180830381600087803b158015620022d657600080fd5b505af1158015620022eb573d6000803e3d6000fd5b505050507f1c9f5777731ff7f4447da5e2e250f439094077b8c424f318908578434be94b29600160008773ffffffffffffffffffffffffffffffffffffffff1673ffffffffffffffffffffffffffffffffffffffff168152602001908152602001600020858154811062002364576200236362002bd3565b5b9060005260206000200160009054906101000a900473ffffffffffffffffffffffffffffffffffffffff1673ffffffffffffffffffffffffffffffffffffffff16633bc21fcb6040518163ffffffff1660e01b8152600401602060405180830381865afa158015620023da573d6000803e3d6000fd5b505050506040513d601f19601f8201168201806040525081019062002400919062003074565b6040516200240f919062003781565b60405180910390a15050505050565b62002428620025c7565b600073ffffffffffffffffffffffffffffffffffffffff168173ffffffffffffffffffffffffffffffffffffffff16036200249a576040517f08c379a0000000000000000000000000000000000000000000000000000000008152600401620024919062003814565b60405180910390fd5b620024a5816200264c565b50565b600080600660009054906101000a900473ffffffffffffffffffffffffffffffffffffffff1673ffffffffffffffffffffffffffffffffffffffff1683604051620024f390620032cd565b60006040518083038185875af1925050503d806000811462002532576040519150601f19603f3d011682016040523d82523d6000602084013e62002537565b606091505b50509050600115158115151462002585576040517f08c379a00000000000000000000000000000000000000000000000000000000081526004016200257c9062003886565b60405180910390fd5b7f9b23a89ca9bcc46cefe11b1c1ab9dd1046bfdd554a57f49a36be8dea5d457d3283604051620025b6919062002741565b60405180910390a182915050919050565b620025d162002710565b73ffffffffffffffffffffffffffffffffffffffff16620025f1620008e0565b73ffffffffffffffffffffffffffffffffffffffff16146200264a576040517f08c379a00000000000000000000000000000000000000000000000000000000081526004016200264190620038f8565b60405180910390fd5b565b60008060009054906101000a900473ffffffffffffffffffffffffffffffffffffffff169050816000806101000a81548173ffffffffffffffffffffffffffffffffffffffff021916908373ffffffffffffffffffffffffffffffffffffffff1602179055508173ffffffffffffffffffffffffffffffffffffffff168173ffffffffffffffffffffffffffffffffffffffff167f8be0079c531659141344cd1fd0a4f28419497f9722a3daafe3b4186f6b6457e060405160405180910390a35050565b600033905090565b6116b7806200391b83390190565b6000819050919050565b6200273b8162002726565b82525050565b600060208201905062002758600083018462002730565b92915050565b6000604051905090565b600080fd5b600080fd5b6200277d8162002726565b81146200278957600080fd5b50565b6000813590506200279d8162002772565b92915050565b600060208284031215620027bc57620027bb62002768565b5b6000620027cc848285016200278c565b91505092915050565b600073ffffffffffffffffffffffffffffffffffffffff82169050919050565b60006200280282620027d5565b9050919050565b6200281481620027f5565b82525050565b600060208201905062002831600083018462002809565b92915050565b6200284281620027f5565b81146200284e57600080fd5b50565b600081359050620028628162002837565b92915050565b6000806040838503121562002882576200288162002768565b5b6000620028928582860162002851565b9250506020620028a5858286016200278c565b9150509250929050565b600080600060608486031215620028cb57620028ca62002768565b5b6000620028db8682870162002851565b9350506020620028ee868287016200278c565b9250506040620029018682870162002851565b9150509250925092565b600080fd5b600080fd5b6000601f19601f8301169050919050565b7f4e487b7100000000000000000000000000000000000000000000000000000000600052604160045260246000fd5b620029608262002915565b810181811067ffffffffffffffff8211171562002982576200298162002926565b5b80604052505050565b6000620029976200275e565b9050620029a5828262002955565b919050565b600067ffffffffffffffff821115620029c857620029c762002926565b5b620029d38262002915565b9050602081019050919050565b82818337600083830152505050565b600062002a0662002a0084620029aa565b6200298b565b90508281526020810184848401111562002a255762002a2462002910565b5b62002a32848285620029e0565b509392505050565b600082601f83011262002a525762002a516200290b565b5b813562002a64848260208601620029ef565b91505092915050565b6003811062002a7b57600080fd5b50565b60008135905062002a8f8162002a6d565b92915050565b6000806000806080858703121562002ab25762002ab162002768565b5b600085013567ffffffffffffffff81111562002ad35762002ad26200276d565b5b62002ae18782880162002a3a565b945050602085013567ffffffffffffffff81111562002b055762002b046200276d565b5b62002b138782880162002a3a565b935050604062002b268782880162002a7e565b925050606062002b39878288016200278c565b91505092959194509250565b60006020828403121562002b5e5762002b5d62002768565b5b600062002b6e8482850162002851565b91505092915050565b60008060006060848603121562002b935762002b9262002768565b5b600062002ba38682870162002851565b935050602062002bb6868287016200278c565b925050604062002bc9868287016200278c565b9150509250925092565b7f4e487b7100000000000000000000000000000000000000000000000000000000600052603260045260246000fd5b60008151905062002c138162002837565b92915050565b60006020828403121562002c325762002c3162002768565b5b600062002c428482850162002c02565b91505092915050565b600082825260208201905092915050565b7f536f6c6f20656c204f776e65722064656c205469636b6574207469656e65207060008201527f65726d69736f2e00000000000000000000000000000000000000000000000000602082015250565b600062002cba60278362002c4b565b915062002cc78262002c5c565b604082019050919050565b6000602082019050818103600083015262002ced8162002cab565b9050919050565b6002811062002d0257600080fd5b50565b60008151905062002d168162002cf4565b92915050565b60006020828403121562002d355762002d3462002768565b5b600062002d458482850162002d05565b91505092915050565b7f4e487b7100000000000000000000000000000000000000000000000000000000600052602160045260246000fd5b6002811062002d915762002d9062002d4e565b5b50565b600081905062002da48262002d7d565b919050565b600062002db68262002d94565b9050919050565b62002dc88162002da9565b82525050565b600060208201905062002de5600083018462002dbd565b92915050565b60008151905062002dfc8162002772565b92915050565b60006020828403121562002e1b5762002e1a62002768565b5b600062002e2b8482850162002deb565b91505092915050565b7f4e487b7100000000000000000000000000000000000000000000000000000000600052601160045260246000fd5b600062002e708262002726565b915062002e7d8362002726565b925082820262002e8d8162002726565b9150828204841483151762002ea75762002ea662002e34565b5b5092915050565b7f4e487b7100000000000000000000000000000000000000000000000000000000600052601260045260246000fd5b600062002eea8262002726565b915062002ef78362002726565b92508262002f0a5762002f0962002eae565b5b828204905092915050565b600060408201905062002f2c600083018562002730565b62002f3b602083018462002730565b9392505050565b7f41646472657373207265736570746f72612064656c207061676f204e6f20657360008201527f20656c204f776e65720000000000000000000000000000000000000000000000602082015250565b600062002fa060298362002c4b565b915062002fad8262002f42565b604082019050919050565b6000602082019050818103600083015262002fd38162002f91565b9050919050565b7f45737465205469636b6574204e6f206573205472616e7366657269626c650000600082015250565b600062003012601e8362002c4b565b91506200301f8262002fda565b602082019050919050565b60006020820190508181036000830152620030458162003003565b9050919050565b600381106200305a57600080fd5b50565b6000815190506200306e816200304c565b92915050565b6000602082840312156200308d576200308c62002768565b5b60006200309d848285016200305d565b91505092915050565b7f45737465205469636b6574204e6f2065732056616c69646f0000000000000000600082015250565b6000620030de60188362002c4b565b9150620030eb82620030a6565b602082019050919050565b600060208201905081810360008301526200311181620030cf565b9050919050565b7f536f6c6f20656c2050616761646f72207469656e65207065726d69736f20706160008201527f7261206573746120616363696f6e000000000000000000000000000000000000602082015250565b600062003176602e8362002c4b565b9150620031838262003118565b604082019050919050565b60006020820190508181036000830152620031a98162003167565b9050919050565b6000620031bd8262002726565b9150620031ca8362002726565b9250828201905080821115620031e557620031e462002e34565b5b92915050565b7f506f72206661766f722c20696e677265736520756e2076616c6f720000000000600082015250565b600062003223601b8362002c4b565b91506200323082620031eb565b602082019050919050565b60006020820190508181036000830152620032568162003214565b9050919050565b60006200326a8262002726565b9150620032778362002726565b925082820390508181111562003292576200329162002e34565b5b92915050565b600081905092915050565b50565b6000620032b560008362003298565b9150620032c282620032a3565b600082019050919050565b6000620032da82620032a6565b9150819050919050565b7f4572726f7220656e20656c20656e76696f206465204574686572000000000000600082015250565b60006200331c601a8362002c4b565b91506200332982620032e4565b602082019050919050565b600060208201905081810360008301526200334f816200330d565b9050919050565b60006040820190506200336d600083018562002809565b6200337c602083018462002809565b9392505050565b600081519050919050565b60005b83811015620033ae57808201518184015260208101905062003391565b60008484015250505050565b6000620033c78262003383565b620033d3818562002c4b565b9350620033e58185602086016200338e565b620033f08162002915565b840191505092915050565b600381106200340f576200340e62002d4e565b5b50565b60008190506200342282620033fb565b919050565b6000620034348262003412565b9050919050565b620034468162003427565b82525050565b600060a0820190508181036000830152620034688188620033ba565b905081810360208301526200347e8187620033ba565b90506200348f60408301866200343b565b6200349e606083018562002730565b620034ad608083018462002809565b9695505050505050565b60006080820190508181036000830152620034d38187620033ba565b90508181036020830152620034e98186620033ba565b9050620034fa604083018562002730565b62003509606083018462002809565b95945050505050565b7f4c69737461206465205469636b65747320766163696100000000000000000000600082015250565b60006200354a60168362002c4b565b9150620035578262003512565b602082019050919050565b600060208201905081810360008301526200357d816200353b565b9050919050565b6000620035918262002726565b91507fffffffffffffffffffffffffffffffffffffffffffffffffffffffffffffffff8203620035c657620035c562002e34565b5b600182019050919050565b7f4e6f20636f696369646520656c206164647265737320696e6772657361646f2060008201527f636f6e207375206f776e65720000000000000000000000000000000000000000602082015250565b60006200362f602c8362002c4b565b91506200363c82620035d1565b604082019050919050565b60006020820190508181036000830152620036628162003620565b9050919050565b7f456c206d6f6e746f206465206c61207472616e73666572656e6369612065732060008201527f696e737566696369656e74650000000000000000000000000000000000000000602082015250565b6000620036c7602c8362002c4b565b9150620036d48262003669565b604082019050919050565b60006020820190508181036000830152620036fa81620036b8565b9050919050565b7f4e487b7100000000000000000000000000000000000000000000000000000000600052603160045260246000fd5b6003811062003744576200374362002d4e565b5b50565b6000819050620037578262003730565b919050565b6000620037698262003747565b9050919050565b6200377b816200375c565b82525050565b600060208201905062003798600083018462003770565b92915050565b7f4f776e61626c653a206e6577206f776e657220697320746865207a65726f206160008201527f6464726573730000000000000000000000000000000000000000000000000000602082015250565b6000620037fc60268362002c4b565b915062003809826200379e565b604082019050919050565b600060208201905081810360008301526200382f81620037ed565b9050919050565b7f5472616e73666572656e6369612066616c6c6964612100000000000000000000600082015250565b60006200386e60168362002c4b565b91506200387b8262003836565b602082019050919050565b60006020820190508181036000830152620038a1816200385f565b9050919050565b7f4f776e61626c653a2063616c6c6572206973206e6f7420746865206f776e6572600082015250565b6000620038e060208362002c4b565b9150620038ed82620038a8565b602082019050919050565b600060208201905081810360008301526200391381620038d1565b905091905056fe60806040526008600055600054600a6200001a919062000343565b6001553480156200002a57600080fd5b50604051620016b7380380620016b78339818101604052810190620000509190620005e5565b620000606200016d60201b60201c565b6002819055508460039081620000779190620008ec565b50426004819055508360059081620000909190620008ec565b5082600660006101000a81548160ff02191690836002811115620000b957620000b8620009d3565b5b0217905550816007819055506000600860006101000a81548160ff02191690836002811115620000ee57620000ed620009d3565b5b02179055506001600860016101000a81548160ff021916908360018111156200011c576200011b620009d3565b5b021790555080600860026101000a81548173ffffffffffffffffffffffffffffffffffffffff021916908373ffffffffffffffffffffffffffffffffffffffff160217905550505050505062000b0e565b60008033426040516020016200018592919062000a77565b6040516020818303038152906040528051906020012060001c905060015481620001b0919062000ad6565b91505090565b7f4e487b7100000000000000000000000000000000000000000000000000000000600052601160045260246000fd5b60008160011c9050919050565b6000808291508390505b600185111562000244578086048111156200021c576200021b620001b6565b5b60018516156200022c5780820291505b80810290506200023c85620001e5565b9450620001fc565b94509492505050565b6000826200025f576001905062000332565b816200026f576000905062000332565b81600181146200028857600281146200029357620002c9565b600191505062000332565b60ff841115620002a857620002a7620001b6565b5b8360020a915084821115620002c257620002c1620001b6565b5b5062000332565b5060208310610133831016604e8410600b8410161715620003035782820a905083811115620002fd57620002fc620001b6565b5b62000332565b620003128484846001620001f2565b925090508184048111156200032c576200032b620001b6565b5b81810290505b9392505050565b6000819050919050565b6000620003508262000339565b91506200035d8362000339565b92506200038c7fffffffffffffffffffffffffffffffffffffffffffffffffffffffffffffffff84846200024d565b905092915050565b6000604051905090565b600080fd5b600080fd5b600080fd5b600080fd5b6000601f19601f8301169050919050565b7f4e487b7100000000000000000000000000000000000000000000000000000000600052604160045260246000fd5b620003fd82620003b2565b810181811067ffffffffffffffff821117156200041f576200041e620003c3565b5b80604052505050565b60006200043462000394565b9050620004428282620003f2565b919050565b600067ffffffffffffffff821115620004655762000464620003c3565b5b6200047082620003b2565b9050602081019050919050565b60005b838110156200049d57808201518184015260208101905062000480565b60008484015250505050565b6000620004c0620004ba8462000447565b62000428565b905082815260208101848484011115620004df57620004de620003ad565b5b620004ec8482856200047d565b509392505050565b600082601f8301126200050c576200050b620003a8565b5b81516200051e848260208601620004a9565b91505092915050565b600381106200053557600080fd5b50565b600081519050620005498162000527565b92915050565b6200055a8162000339565b81146200056657600080fd5b50565b6000815190506200057a816200054f565b92915050565b600073ffffffffffffffffffffffffffffffffffffffff82169050919050565b6000620005ad8262000580565b9050919050565b620005bf81620005a0565b8114620005cb57600080fd5b50565b600081519050620005df81620005b4565b92915050565b600080600080600060a086880312156200060457620006036200039e565b5b600086015167ffffffffffffffff811115620006255762000624620003a3565b5b6200063388828901620004f4565b955050602086015167ffffffffffffffff811115620006575762000656620003a3565b5b6200066588828901620004f4565b9450506040620006788882890162000538565b93505060606200068b8882890162000569565b92505060806200069e88828901620005ce565b9150509295509295909350565b600081519050919050565b7f4e487b7100000000000000000000000000000000000000000000000000000000600052602260045260246000fd5b60006002820490506001821680620006fe57607f821691505b602082108103620007145762000713620006b6565b5b50919050565b60008190508160005260206000209050919050565b60006020601f8301049050919050565b600082821b905092915050565b6000600883026200077e7fffffffffffffffffffffffffffffffffffffffffffffffffffffffffffffffff826200073f565b6200078a86836200073f565b95508019841693508086168417925050509392505050565b6000819050919050565b6000620007cd620007c7620007c18462000339565b620007a2565b62000339565b9050919050565b6000819050919050565b620007e983620007ac565b62000801620007f882620007d4565b8484546200074c565b825550505050565b600090565b6200081862000809565b62000825818484620007de565b505050565b5b818110156200084d57620008416000826200080e565b6001810190506200082b565b5050565b601f8211156200089c5762000866816200071a565b62000871846200072f565b8101602085101562000881578190505b6200089962000890856200072f565b8301826200082a565b50505b505050565b600082821c905092915050565b6000620008c160001984600802620008a1565b1980831691505092915050565b6000620008dc8383620008ae565b9150826002028217905092915050565b620008f782620006ab565b67ffffffffffffffff811115620009135762000912620003c3565b5b6200091f8254620006e5565b6200092c82828562000851565b600060209050601f8311600181146200096457600084156200094f578287015190505b6200095b8582620008ce565b865550620009cb565b601f19841662000974866200071a565b60005b828110156200099e5784890151825560018201915060208501945060208101905062000977565b86831015620009be5784890151620009ba601f891682620008ae565b8355505b6001600288020188555050505b505050505050565b7f4e487b7100000000000000000000000000000000000000000000000000000000600052602160045260246000fd5b60008160601b9050919050565b600062000a1c8262000a02565b9050919050565b600062000a308262000a0f565b9050919050565b62000a4c62000a4682620005a0565b62000a23565b82525050565b6000819050919050565b62000a7162000a6b8262000339565b62000a52565b82525050565b600062000a85828562000a37565b60148201915062000a97828462000a5c565b6020820191508190509392505050565b7f4e487b7100000000000000000000000000000000000000000000000000000000600052601260045260246000fd5b600062000ae38262000339565b915062000af08362000339565b92508262000b035762000b0262000aa7565b5b828206905092915050565b610b998062000b1e6000396000f3fe608060405234801561001057600080fd5b50600436106100ea5760003560e01c80639f5be1ca1161008c578063a6f9dae111610066578063a6f9dae114610205578063b81e43fc14610221578063e8025d771461023f578063f15358941461025b576100ea565b80639f5be1ca146101ad578063a21145b6146101cb578063a2b40d19146101e9576100ea565b80635d1ca631116100c85780635d1ca63114610149578063893d20e8146101675780638fcde9001461018557806398d5fdca1461018f576100ea565b80631a6fb342146100ef5780633bc21fcb1461010d578063575836a31461012b575b600080fd5b6100f7610265565b60405161010491906106f5565b60405180910390f35b61011561027c565b6040516101229190610758565b60405180910390f35b610133610293565b604051610140919061078c565b60405180910390f35b61015161029d565b60405161015e919061078c565b60405180910390f35b61016f6102a7565b60405161017c91906107e8565b60405180910390f35b61018d6102d1565b005b610197610369565b6040516101a4919061078c565b60405180910390f35b6101b5610373565b6040516101c2919061084b565b60405180910390f35b6101d361038a565b6040516101e091906108f6565b60405180910390f35b61020360048036038101906101fe9190610949565b61041c565b005b61021f600480360381019061021a91906109a2565b610426565b005b6102296104a3565b60405161023691906108f6565b60405180910390f35b61025960048036038101906102549190610949565b610535565b005b6102636105de565b005b6000600860019054906101000a900460ff16905090565b6000600860009054906101000a900460ff16905090565b6000600454905090565b6000600254905090565b6000600860029054906101000a900473ffffffffffffffffffffffffffffffffffffffff16905090565b6001808111156102e4576102e361067e565b5b600860019054906101000a900460ff1660018111156103065761030561067e565b5b0361033b576000600860016101000a81548160ff021916908360018111156103315761033061067e565b5b0217905550610367565b6001600860016101000a81548160ff021916908360018111156103615761036061067e565b5b02179055505b565b6000600754905090565b6000600660009054906101000a900460ff16905090565b606060058054610399906109fe565b80601f01602080910402602001604051908101604052809291908181526020018280546103c5906109fe565b80156104125780601f106103e757610100808354040283529160200191610412565b820191906000526020600020905b8154815290600101906020018083116103f557829003601f168201915b5050505050905090565b8060078190555050565b600073ffffffffffffffffffffffffffffffffffffffff168173ffffffffffffffffffffffffffffffffffffffff160361045f57600080fd5b80600860026101000a81548173ffffffffffffffffffffffffffffffffffffffff021916908373ffffffffffffffffffffffffffffffffffffffff16021790555050565b6060600380546104b2906109fe565b80601f01602080910402602001604051908101604052809291908181526020018280546104de906109fe565b801561052b5780601f106105005761010080835404028352916020019161052b565b820191906000526020600020905b81548152906001019060200180831161050e57829003601f168201915b5050505050905090565b6000810361056d576000600860006101000a81548160ff021916908360028111156105635761056261067e565b5b02179055506105db565b600181036105a5576001600860006101000a81548160ff0219169083600281111561059b5761059a61067e565b5b02179055506105da565b600281036105d9576002600860006101000a81548160ff021916908360028111156105d3576105d261067e565b5b02179055505b5b5b50565b7fdeeed688e34b89a6477cad8a0c65d1f808f26a89ebd96c7cb8b3327ea7ac8b5760025460036004546005600660009054906101000a900460ff16600754600860009054906101000a900460ff16600860019054906101000a900460ff16600860029054906101000a900473ffffffffffffffffffffffffffffffffffffffff1660405161067499989796959493929190610ac8565b60405180910390a1565b7f4e487b7100000000000000000000000000000000000000000000000000000000600052602160045260246000fd5b600281106106be576106bd61067e565b5b50565b60008190506106cf826106ad565b919050565b60006106df826106c1565b9050919050565b6106ef816106d4565b82525050565b600060208201905061070a60008301846106e6565b92915050565b600381106107215761072061067e565b5b50565b600081905061073282610710565b919050565b600061074282610724565b9050919050565b61075281610737565b82525050565b600060208201905061076d6000830184610749565b92915050565b6000819050919050565b61078681610773565b82525050565b60006020820190506107a1600083018461077d565b92915050565b600073ffffffffffffffffffffffffffffffffffffffff82169050919050565b60006107d2826107a7565b9050919050565b6107e2816107c7565b82525050565b60006020820190506107fd60008301846107d9565b92915050565b600381106108145761081361067e565b5b50565b600081905061082582610803565b919050565b600061083582610817565b9050919050565b6108458161082a565b82525050565b6000602082019050610860600083018461083c565b92915050565b600081519050919050565b600082825260208201905092915050565b60005b838110156108a0578082015181840152602081019050610885565b60008484015250505050565b6000601f19601f8301169050919050565b60006108c882610866565b6108d28185610871565b93506108e2818560208601610882565b6108eb816108ac565b840191505092915050565b6000602082019050818103600083015261091081846108bd565b905092915050565b600080fd5b61092681610773565b811461093157600080fd5b50565b6000813590506109438161091d565b92915050565b60006020828403121561095f5761095e610918565b5b600061096d84828501610934565b91505092915050565b61097f816107c7565b811461098a57600080fd5b50565b60008135905061099c81610976565b92915050565b6000602082840312156109b8576109b7610918565b5b60006109c68482850161098d565b91505092915050565b7f4e487b7100000000000000000000000000000000000000000000000000000000600052602260045260246000fd5b60006002820490506001821680610a1657607f821691505b602082108103610a2957610a286109cf565b5b50919050565b60008190508160005260206000209050919050565b60008154610a51816109fe565b610a5b8186610871565b94506001821660008114610a765760018114610a8c57610abf565b60ff198316865281151560200286019350610abf565b610a9585610a2f565b60005b83811015610ab757815481890152600182019150602081019050610a98565b808801955050505b50505092915050565b600061012082019050610ade600083018c61077d565b8181036020830152610af0818b610a44565b9050610aff604083018a61077d565b8181036060830152610b118189610a44565b9050610b20608083018861083c565b610b2d60a083018761077d565b610b3a60c0830186610749565b610b4760e08301856106e6565b610b556101008301846107d9565b9a995050505050505050505056fea2646970667358221220c96ca523c97361bfa2221aec95e02eda6277a7e2e508646967e61ae94c778b4b64736f6c63430008110033a2646970667358221220d91f820221698269d699c2fdef576eec9ea9911fb630eee421380e8638b7096064736f6c63430008110033",
  "immutableReferences": {},
  "source": "/* *** Manager ***\r\nX - Deber tener una funcin para tokenizar un ticket. Esto significa crear un nuevo Ticket con los datos \r\n  correspondientes.\r\nX - Deber tener una funcin para ver todos los tickets que contiene la plataforma, sin importar quien sea el \r\n  dueo.\r\nX - Deber tener una funcin para ver los tickets que estn asignados a un dueo particular (address).\r\nX - Deber tener una funcin para permitir la transferencia de un ticket segn su estado, es decir que si un \r\n  Ticket tiene un estado Transferible, puede cambiar de dueo. Permitiendo que el nuevo dueo enve ethers a \r\n  travs de la plataforma y que el dueo anterior reciba esos ethers.\r\nX - Deber tener una funcin para permitir que el dueo de un ticket pueda cambiar el precio del mismo, pero en \r\n  ese caso el contrato Manager cobra un 5% de comisin y queda en su balance.\r\nX - Deber tener una funcin para retornar la cantidad de tickets que tiene la plataforma y el precio total de \r\n  los tickets. Esto est pensado para mostrar estadsticas y poder llamar la atencin de futuros inversores.\r\nX - Deber tener una funcin para eliminar el ticket de la lista. */\r\n\r\n// SPDX-License-Identifier: MIT\r\npragma solidity 0.8.17;\r\n\r\nimport \"./Ticket.sol\";\r\nimport \"@openzeppelin/contracts/access/Ownable.sol\";\r\n\r\n/** @title Contract Manager.*/\r\ncontract Manager is Ownable {\r\n    // Mapping de Tickets\r\n    mapping(address => Ticket[]) listTickets;\r\n\r\n    // Owners Tickets\r\n    address[] public OwnersTickets;\r\n\r\n    // Total de Tickets\r\n    uint256 totalTickets = 0;\r\n\r\n    // Valor total de Tickets\r\n    uint256 balanceTickets = 0;\r\n\r\n    // Valor del Fee\r\n    uint256 Fee = 5;\r\n\r\n    // Address del Manager\r\n    address addressManager;\r\n\r\n    // Control del Dueo del Ticket\r\n    modifier onlyOwnerTicket(address _addressOwner, uint256 _index) {\r\n        require(\r\n            listTickets[_addressOwner][_index].getOwner() == msg.sender,\r\n            \"Solo el Owner del Ticket tiene permiso.\"\r\n        );\r\n        _;\r\n    }\r\n\r\n    // Events\r\n    event CreatedTicket(string, string, uint256, address);\r\n    event NewPrice(uint256);\r\n    event ShowStatistics(uint256, uint256);\r\n    event DeletedTicket(uint256);\r\n    event ChangedTransferStatusTicket(TransferStatus);\r\n    event ChangedStatusTicket(TicketStatus);\r\n    event TransferredTicket(address, address);\r\n    event ManagedFee(uint256);\r\n\r\n    event FundsReceived(uint256 amount);\r\n\r\n    receive() external payable {\r\n        emit FundsReceived(msg.value);\r\n    }\r\n\r\n    fallback() external payable {\r\n        emit FundsReceived(msg.value);\r\n    }\r\n\r\n    // Constructor\r\n    constructor() {\r\n        addressManager = msg.sender;\r\n    }\r\n\r\n    /**@dev Funcion para Tokenizar Tickets.\r\n    * @param _eventName Nombre del Evento.\r\n    * @param _eventDescription Descripcin del Evento.\r\n    * @param _eventType Tipo del Evento.\r\n    * @param _price Precio del Ticket.\r\n    // El Ticket se crear con STATUS siempre en TicketStatus.VALID.\r\n    // El Ticket se crear con TRANSFER STATUS en TransferStatus.NO_TRANSFERIBLE.\r\n    // El address (msg.sender) que interactue con la funcin 'createTicket' \r\n    // queda como dueo (owner) del Ticket.\r\n    */\r\n    function createTicket(\r\n        string memory _eventName,\r\n        string memory _eventDescription,\r\n        EventType _eventType,\r\n        uint256 _price\r\n    ) public payable {\r\n        Ticket ticketNew = new Ticket(\r\n            _eventName,\r\n            _eventDescription,\r\n            _eventType,\r\n            _price,\r\n            msg.sender\r\n        );\r\n        listTickets[msg.sender].push(ticketNew);\r\n        OwnersTickets.push(msg.sender);\r\n        totalTickets += 1;\r\n        balanceTickets = balanceTickets + _price;\r\n        emit CreatedTicket(_eventName, _eventDescription, _price, msg.sender);\r\n    }\r\n\r\n    /**@dev Funcion para cambiar el precio del ticket.\r\n    * @param _addressOwner Address Dueo del Ticket Ingresado.\r\n    * @param _index Index del Ticket Ingresado.\r\n    * @param _newPriceTicket Nuevo Precio del Ticket Ingresado.\r\n    // Controles realizados:\r\n    // 1-Que listTickets[_addressOwner][_index].getOwner() sea = a msg.sender, \r\n    // solo el dueo puede cambiar el precio del Ticket,\r\n    // 2-Que la _addressOwner ingresado sea realmente la duea del Ticket (getOwner()).\r\n    // 3-Que el monto a pagar sea mayor o igual al nuevo precio del ticket \r\n    // (newPriceTicket + commission para el Manager).\r\n    */\r\n    function changeTicketPrice(\r\n        address _addressOwner,\r\n        uint256 _index,\r\n        uint256 _newPriceTicket\r\n    ) public payable onlyOwnerTicket(_addressOwner, _index) {\r\n        // 1er Control\r\n        // 2do Control\r\n        require(\r\n            listTickets[_addressOwner][_index].getOwner() == _addressOwner,\r\n            \"No coicide el address ingresado con su owner\"\r\n        );\r\n        // 3er Control\r\n        uint256 commission = (_newPriceTicket * Fee) / 100;\r\n        require(\r\n            msg.value >= _newPriceTicket + commission,\r\n            \"El monto de la transferencia es insuficiente\"\r\n        );\r\n        // Pago de comisin y cambio del Precio\r\n        feeManage(commission);\r\n        uint256 priceDifference = _newPriceTicket -\r\n            listTickets[_addressOwner][_index].getPrice();\r\n        balanceTickets = balanceTickets + priceDifference;\r\n        listTickets[_addressOwner][_index].changePrice(_newPriceTicket);\r\n        emit NewPrice(_newPriceTicket);\r\n    }\r\n\r\n    /**@dev Funcin para mostrar las estadisticas.\r\n    // totalTickets: Total de Tickets en la Plataforma.\r\n    // balanceTickets: Precio Total de Tickets en la Plataforma.\r\n    // Solo Manager puede emitir las estadisticas.\r\n    */\r\n    function showStatistics() public onlyOwner {\r\n        emit ShowStatistics(totalTickets, balanceTickets);\r\n    }\r\n\r\n    /**@dev Funcion para Eliminar un Ticket segn address del Owner.\r\n    * @param _addressOwner Address Dueo del Ticket.\r\n    * @param _index Index del Ticket.\r\n    // Solo Manager puede eliminar un ticket.\r\n    */\r\n    function deleteTicket(address _addressOwner, uint256 _index)\r\n        public\r\n        onlyOwner\r\n    {\r\n        listTickets[_addressOwner][_index] = listTickets[_addressOwner][\r\n            _index + 1\r\n        ];\r\n        uint256 oldPrice = listTickets[_addressOwner][_index].getPrice();\r\n        listTickets[_addressOwner].pop();\r\n        totalTickets -= 1;\r\n        balanceTickets = balanceTickets - oldPrice;\r\n        OwnersTickets[_index] = OwnersTickets[_index + 1];\r\n        OwnersTickets.pop;\r\n        emit DeletedTicket(listTickets[_addressOwner][_index].getId());\r\n    }\r\n\r\n    /**@dev Funcin para cambiar el Estado de Transferencia (TRANSFERIBLE, NO_TRANSFERIBLE).\r\n    * @param _addressOwner Address Dueo del Ticket.\r\n    * @param _index Index del Ticket.\r\n    // Control realizado:\r\n    // Que listTickets[_addressOwner][_index].getOwner() sea = a msg.sender, \r\n    // solo el dueo puede cambiar el TransferStatus.\r\n    */\r\n    function changeTransferStatusTicket(address _addressOwner, uint256 _index)\r\n        public\r\n        onlyOwnerTicket(_addressOwner, _index)\r\n    {\r\n        // Cambia el estado\r\n        listTickets[_addressOwner][_index].changeTransferStatus();\r\n        emit ChangedTransferStatusTicket(\r\n            listTickets[_addressOwner][_index].getTransferStatus()\r\n        );\r\n    }\r\n\r\n    /**@dev Funcin para cambiar el Estado del Ticket (VALID, USED, EXPIRED).\r\n    * @param _addressOwner Address Dueo del Ticket.\r\n    * @param _index Index del Ticket.\r\n    * @param _newTicketStatus Nuevo Estado del Ticket.\r\n    // Control realizado:\r\n    // Que listTickets[_addressOwner][_index].getOwner() sea = a msg.sender, \r\n    // solo el dueo puede cambiar el TicketStatus.\r\n    */\r\n    function changeStatusTicket(\r\n        address _addressOwner,\r\n        uint256 _index,\r\n        uint256 _newTicketStatus\r\n    ) public onlyOwnerTicket(_addressOwner, _index) {\r\n        // Cambia el estado\r\n        listTickets[_addressOwner][_index].changeStatus(_newTicketStatus);\r\n        emit ChangedStatusTicket(\r\n            listTickets[_addressOwner][_index].getTicketStatus()\r\n        );\r\n    }\r\n\r\n    /**@dev Funcin para Transferir un Ticket.\r\n    * @param _addressOwner Address Dueo del Ticket.\r\n    * @param _index Index del Ticket.\r\n    * @param _newOwner Nuevo Dueo del Ticket.\r\n    // Controles Realizados:\r\n    // 1-Que la _addressOwner sea realmente la duea del Ticket (getOwner()).\r\n    // 2-Que el Ticket sea Trasferible (tenga TransferStatus.TRANSFERIBLE).\r\n    // 3-Que el Ticket sea Valido (tenga TicketStatus.VALID).\r\n    // 4-Que _newOwner sea msg.sender (_newOwner address pagador del Ticket a _addressOwner).\r\n    // 5-Que el monto a pagar sea mayor o igual al costo del ticket (getPrice()) + el feeTicket para el Manager.\r\n    // La Transferencia del Ticket solo se har si el Ticket est en condicin de Transferirse, \r\n    // esto significa que se encuentra en Estado TRANSFERIBLE y VALID, stos estados del Ticket\r\n    // solo pueden ser modificados por el Dueo del Ticket (Owner).\r\n    // El Nuevo Dueo es quien puede realizar el Pago de la Transferencia del Ticket.\r\n    */\r\n    function transferTicket(\r\n        address _addressOwner,\r\n        uint256 _index,\r\n        address _newOwner\r\n    ) public payable onlyOwnerTicket(_addressOwner, _index) {\r\n        // 1er Control\r\n        require(\r\n            _addressOwner == listTickets[_addressOwner][_index].getOwner(),\r\n            \"Address reseptora del pago No es el Owner\"\r\n        );\r\n        // 2do Control\r\n        require(\r\n            listTickets[_addressOwner][_index].getTransferStatus() ==\r\n                TransferStatus.TRANSFERIBLE,\r\n            \"Este Ticket No es Transferible\"\r\n        );\r\n        // 3er Control\r\n        require(\r\n            listTickets[_addressOwner][_index].getTicketStatus() ==\r\n                TicketStatus.VALID,\r\n            \"Este Ticket No es Valido\"\r\n        );\r\n        // 4to Control\r\n        require(\r\n            _newOwner == msg.sender,\r\n            \"Solo el Pagador tiene permiso para esta accion\"\r\n        );\r\n        // 5to Control\r\n        uint256 feeTicket = feeCalculation(_addressOwner, _index);\r\n        require(\r\n            msg.value >=\r\n                listTickets[_addressOwner][_index].getPrice() + feeTicket,\r\n            \"Por favor, ingrese un valor\"\r\n        );\r\n        // Pago del ticket y cambio de dueo\r\n        (bool sent, ) = _addressOwner.call{\r\n            value: msg.value - feeManage(feeTicket)\r\n        }(\"\");\r\n        require(sent, \"Error en el envio de Ether\");\r\n        listTickets[_addressOwner][_index].changeOwner(_newOwner);\r\n        emit TransferredTicket(_addressOwner, _newOwner);\r\n    }\r\n\r\n    /**@dev Muestra informacin de los Tickets segn dueo (owner).\r\n     * @param _addressOwner Address Dueo de los Tickets.\r\n     */\r\n    function showTicketsByAddress(address _addressOwner) public {\r\n        for (uint256 i = 0; i < listTickets[_addressOwner].length; i++) {\r\n            listTickets[_addressOwner][i].showInformation();\r\n        }\r\n    }\r\n\r\n    /**@dev Muestra informacion de todos los tickets en la Plataforma.\r\n     */\r\n    function showAllTickets() public {\r\n        require(OwnersTickets.length > 0, \"Lista de Tickets vacia\");\r\n        for (uint256 j = 0; j < OwnersTickets.length; j++) {\r\n            showTicketsByAddress(OwnersTickets[j]);\r\n        }\r\n    }\r\n\r\n    /**@dev Funcin para el pago de comisiones al contrato Manager.\r\n     * @param _feeTicket Comisin (fee) a pagar al contrato Manager.\r\n     */\r\n    function feeManage(uint256 _feeTicket) public payable returns (uint256) {\r\n        (bool success, ) = addressManager.call{value: _feeTicket}(\"\");\r\n        require(success == true, \"Transferencia fallida!\");\r\n        emit ManagedFee(_feeTicket);\r\n        return _feeTicket;\r\n    }\r\n\r\n    /**@dev Calculo del fee en las transferencias de ticket.\r\n     * @param _addressOwner Address Dueo del Ticket.\r\n     * @param _index Index del Ticket.\r\n     */\r\n    function feeCalculation(address _addressOwner, uint256 _index)\r\n        public\r\n        view\r\n        returns (uint256)\r\n    {\r\n        return ((listTickets[_addressOwner][_index].getPrice() * Fee) / 100);\r\n    }\r\n}\r\n",
  "sourcePath": "C:\\Users\\FRICHARD\\Desktop\\CURSO SOLIDITY\\Trabajo Final Integrador\\contracts\\Manager.sol",
  "compiler": {
    "name": "solc",
    "version": "0.8.17+commit.8df45f5f.Emscripten.clang"
  },
  "schemaVersion": "3.4.10",
  "updatedAt": "2022-12-05T01:24:18.389Z",
  "devdoc": {
    "kind": "dev",
    "methods": {
      "changeStatusTicket(address,uint256,uint256)": {
        "details": "Funcin para cambiar el Estado del Ticket (VALID, USED, EXPIRED).",
        "params": {
          "_addressOwner": "Address Dueo del Ticket.",
          "_index": "Index del Ticket.",
          "_newTicketStatus": "Nuevo Estado del Ticket. // Control realizado: // Que listTickets[_addressOwner][_index].getOwner() sea = a msg.sender,  // solo el dueo puede cambiar el TicketStatus."
        }
      },
      "changeTicketPrice(address,uint256,uint256)": {
        "details": "Funcion para cambiar el precio del ticket.",
        "params": {
          "_addressOwner": "Address Dueo del Ticket Ingresado.",
          "_index": "Index del Ticket Ingresado.",
          "_newPriceTicket": "Nuevo Precio del Ticket Ingresado. // Controles realizados: // 1-Que listTickets[_addressOwner][_index].getOwner() sea = a msg.sender,  // solo el dueo puede cambiar el precio del Ticket, // 2-Que la _addressOwner ingresado sea realmente la duea del Ticket (getOwner()). // 3-Que el monto a pagar sea mayor o igual al nuevo precio del ticket  // (newPriceTicket + commission para el Manager)."
        }
      },
      "changeTransferStatusTicket(address,uint256)": {
        "details": "Funcin para cambiar el Estado de Transferencia (TRANSFERIBLE, NO_TRANSFERIBLE).",
        "params": {
          "_addressOwner": "Address Dueo del Ticket.",
          "_index": "Index del Ticket. // Control realizado: // Que listTickets[_addressOwner][_index].getOwner() sea = a msg.sender,  // solo el dueo puede cambiar el TransferStatus."
        }
      },
      "createTicket(string,string,uint8,uint256)": {
        "details": "Funcion para Tokenizar Tickets.",
        "params": {
          "_eventDescription": "Descripcin del Evento.",
          "_eventName": "Nombre del Evento.",
          "_eventType": "Tipo del Evento.",
          "_price": "Precio del Ticket. // El Ticket se crear con STATUS siempre en TicketStatus.VALID. // El Ticket se crear con TRANSFER STATUS en TransferStatus.NO_TRANSFERIBLE. // El address (msg.sender) que interactue con la funcin 'createTicket'  // queda como dueo (owner) del Ticket."
        }
      },
      "deleteTicket(address,uint256)": {
        "details": "Funcion para Eliminar un Ticket segn address del Owner.",
        "params": {
          "_addressOwner": "Address Dueo del Ticket.",
          "_index": "Index del Ticket. // Solo Manager puede eliminar un ticket."
        }
      },
      "feeCalculation(address,uint256)": {
        "details": "Calculo del fee en las transferencias de ticket.",
        "params": {
          "_addressOwner": "Address Dueo del Ticket.",
          "_index": "Index del Ticket."
        }
      },
      "feeManage(uint256)": {
        "details": "Funcin para el pago de comisiones al contrato Manager.",
        "params": {
          "_feeTicket": "Comisin (fee) a pagar al contrato Manager."
        }
      },
      "owner()": {
        "details": "Returns the address of the current owner."
      },
      "renounceOwnership()": {
        "details": "Leaves the contract without owner. It will not be possible to call `onlyOwner` functions anymore. Can only be called by the current owner. NOTE: Renouncing ownership will leave the contract without an owner, thereby removing any functionality that is only available to the owner."
      },
      "showAllTickets()": {
        "details": "Muestra informacion de todos los tickets en la Plataforma."
      },
      "showStatistics()": {
        "details": "Funcin para mostrar las estadisticas. // totalTickets: Total de Tickets en la Plataforma. // balanceTickets: Precio Total de Tickets en la Plataforma. // Solo Manager puede emitir las estadisticas."
      },
      "showTicketsByAddress(address)": {
        "details": "Muestra informacin de los Tickets segn dueo (owner).",
        "params": {
          "_addressOwner": "Address Dueo de los Tickets."
        }
      },
      "transferOwnership(address)": {
        "details": "Transfers ownership of the contract to a new account (`newOwner`). Can only be called by the current owner."
      },
      "transferTicket(address,uint256,address)": {
        "details": "Funcin para Transferir un Ticket.",
        "params": {
          "_addressOwner": "Address Dueo del Ticket.",
          "_index": "Index del Ticket.",
          "_newOwner": "Nuevo Dueo del Ticket. // Controles Realizados: // 1-Que la _addressOwner sea realmente la duea del Ticket (getOwner()). // 2-Que el Ticket sea Trasferible (tenga TransferStatus.TRANSFERIBLE). // 3-Que el Ticket sea Valido (tenga TicketStatus.VALID). // 4-Que _newOwner sea msg.sender (_newOwner address pagador del Ticket a _addressOwner). // 5-Que el monto a pagar sea mayor o igual al costo del ticket (getPrice()) + el feeTicket para el Manager. // La Transferencia del Ticket solo se har si el Ticket est en condicin de Transferirse,  // esto significa que se encuentra en Estado TRANSFERIBLE y VALID, stos estados del Ticket // solo pueden ser modificados por el Dueo del Ticket (Owner). // El Nuevo Dueo es quien puede realizar el Pago de la Transferencia del Ticket."
        }
      }
    },
    "title": "Contract Manager.",
    "version": 1
  },
  "userdoc": {
    "kind": "user",
    "methods": {},
    "version": 1
  }
}