{
  "contractName": "Manager",
  "abi": [
    {
      "inputs": [],
      "stateMutability": "nonpayable",
      "type": "constructor"
    },
    {
      "anonymous": false,
      "inputs": [
        {
          "indexed": false,
          "internalType": "uint256",
          "name": "amount",
          "type": "uint256"
        }
      ],
      "name": "FundsReceived",
      "type": "event"
    },
    {
      "anonymous": false,
      "inputs": [
        {
          "indexed": true,
          "internalType": "address",
          "name": "previousOwner",
          "type": "address"
        },
        {
          "indexed": true,
          "internalType": "address",
          "name": "newOwner",
          "type": "address"
        }
      ],
      "name": "OwnershipTransferred",
      "type": "event"
    },
    {
      "stateMutability": "payable",
      "type": "fallback"
    },
    {
      "inputs": [
        {
          "internalType": "uint256",
          "name": "",
          "type": "uint256"
        }
      ],
      "name": "OwnersTickets",
      "outputs": [
        {
          "internalType": "address",
          "name": "",
          "type": "address"
        }
      ],
      "stateMutability": "view",
      "type": "function"
    },
    {
      "inputs": [],
      "name": "owner",
      "outputs": [
        {
          "internalType": "address",
          "name": "",
          "type": "address"
        }
      ],
      "stateMutability": "view",
      "type": "function"
    },
    {
      "inputs": [],
      "name": "renounceOwnership",
      "outputs": [],
      "stateMutability": "nonpayable",
      "type": "function"
    },
    {
      "inputs": [
        {
          "internalType": "address",
          "name": "newOwner",
          "type": "address"
        }
      ],
      "name": "transferOwnership",
      "outputs": [],
      "stateMutability": "nonpayable",
      "type": "function"
    },
    {
      "stateMutability": "payable",
      "type": "receive"
    },
    {
      "inputs": [
        {
          "internalType": "string",
          "name": "_eventName",
          "type": "string"
        },
        {
          "internalType": "string",
          "name": "_eventDescription",
          "type": "string"
        },
        {
          "internalType": "enum EventType",
          "name": "_eventType",
          "type": "uint8"
        },
        {
          "internalType": "uint256",
          "name": "_price",
          "type": "uint256"
        },
        {
          "internalType": "enum TransferStatus",
          "name": "_transferStatus",
          "type": "uint8"
        },
        {
          "internalType": "address",
          "name": "_owner",
          "type": "address"
        }
      ],
      "name": "createTicket",
      "outputs": [],
      "stateMutability": "payable",
      "type": "function"
    },
    {
      "inputs": [
        {
          "internalType": "address",
          "name": "_addressOwner",
          "type": "address"
        },
        {
          "internalType": "uint256",
          "name": "_index",
          "type": "uint256"
        },
        {
          "internalType": "uint256",
          "name": "_newPriceTicket",
          "type": "uint256"
        }
      ],
      "name": "changeTicketPrice",
      "outputs": [],
      "stateMutability": "payable",
      "type": "function"
    },
    {
      "inputs": [],
      "name": "showStatistics",
      "outputs": [
        {
          "internalType": "uint256",
          "name": "",
          "type": "uint256"
        },
        {
          "internalType": "uint256",
          "name": "",
          "type": "uint256"
        }
      ],
      "stateMutability": "view",
      "type": "function"
    },
    {
      "inputs": [
        {
          "internalType": "address",
          "name": "_addressOwner",
          "type": "address"
        },
        {
          "internalType": "uint256",
          "name": "_index",
          "type": "uint256"
        }
      ],
      "name": "deleteTicket",
      "outputs": [],
      "stateMutability": "nonpayable",
      "type": "function"
    },
    {
      "inputs": [
        {
          "internalType": "address",
          "name": "_addressOwner",
          "type": "address"
        },
        {
          "internalType": "uint256",
          "name": "_index",
          "type": "uint256"
        }
      ],
      "name": "changeTransferStatusTicket",
      "outputs": [],
      "stateMutability": "nonpayable",
      "type": "function"
    },
    {
      "inputs": [
        {
          "internalType": "address",
          "name": "_addressOwner",
          "type": "address"
        },
        {
          "internalType": "uint256",
          "name": "_index",
          "type": "uint256"
        },
        {
          "internalType": "uint256",
          "name": "_newTicketStatus",
          "type": "uint256"
        }
      ],
      "name": "changeStatusTicket",
      "outputs": [],
      "stateMutability": "nonpayable",
      "type": "function"
    },
    {
      "inputs": [
        {
          "internalType": "address",
          "name": "_addressOwner",
          "type": "address"
        },
        {
          "internalType": "uint256",
          "name": "_index",
          "type": "uint256"
        },
        {
          "internalType": "address",
          "name": "_newOwner",
          "type": "address"
        }
      ],
      "name": "transferTicket",
      "outputs": [],
      "stateMutability": "payable",
      "type": "function"
    },
    {
      "inputs": [
        {
          "internalType": "address",
          "name": "_addressOwner",
          "type": "address"
        }
      ],
      "name": "showTicketsByAddress",
      "outputs": [],
      "stateMutability": "nonpayable",
      "type": "function"
    },
    {
      "inputs": [],
      "name": "showAllTickets",
      "outputs": [],
      "stateMutability": "nonpayable",
      "type": "function"
    },
    {
      "inputs": [
        {
          "internalType": "uint256",
          "name": "_feeTicket",
          "type": "uint256"
        }
      ],
      "name": "feeManage",
      "outputs": [
        {
          "internalType": "uint256",
          "name": "",
          "type": "uint256"
        }
      ],
      "stateMutability": "payable",
      "type": "function"
    },
    {
      "inputs": [
        {
          "internalType": "address",
          "name": "_addressOwner",
          "type": "address"
        },
        {
          "internalType": "uint256",
          "name": "_index",
          "type": "uint256"
        }
      ],
      "name": "feeCalculation",
      "outputs": [
        {
          "internalType": "uint256",
          "name": "",
          "type": "uint256"
        }
      ],
      "stateMutability": "view",
      "type": "function"
    }
  ],
  "bytecode": "0x608060405260006003556000600455600580553480156200001f57600080fd5b5062000040620000346200008760201b60201c565b6200008f60201b60201c565b33600660006101000a81548173ffffffffffffffffffffffffffffffffffffffff021916908373ffffffffffffffffffffffffffffffffffffffff16021790555062000153565b600033905090565b60008060009054906101000a900473ffffffffffffffffffffffffffffffffffffffff169050816000806101000a81548173ffffffffffffffffffffffffffffffffffffffff021916908373ffffffffffffffffffffffffffffffffffffffff1602179055508173ffffffffffffffffffffffffffffffffffffffff168173ffffffffffffffffffffffffffffffffffffffff167f8be0079c531659141344cd1fd0a4f28419497f9722a3daafe3b4186f6b6457e060405160405180910390a35050565b61490080620001636000396000f3fe608060405260043610620001035760003560e01c8063b31616471162000097578063ed4be5da1162000061578063ed4be5da1462000358578063f08deb151462000386578063f2fde38b14620003b4578063fd50715a14620003e25762000144565b8063b316164714620002d0578063d0c451c014620002ea578063e6977ea21462000318578063ebaebe2214620003385762000144565b80638904bb6611620000d95780638904bb66146200020b5780638da5cb5b146200024f57806390680243146200027f57806394701d7b14620002b05762000144565b80631e6bc4a5146200017f5780632d1645b814620001c3578063715018a614620001f15762000144565b3662000144577fbcdc7071c1beb6dcf2744621e0b29a2f2432ee20812d9ca5e3d5e8f9308d93a3346040516200013a919062002158565b60405180910390a1005b7fbcdc7071c1beb6dcf2744621e0b29a2f2432ee20812d9ca5e3d5e8f9308d93a33460405162000175919062002158565b60405180910390a1005b3480156200018c57600080fd5b50620001ab6004803603810190620001a59190620021ba565b62000418565b604051620001ba919062002231565b60405180910390f35b348015620001d057600080fd5b50620001ef6004803603810190620001e991906200227f565b62000458565b005b348015620001fe57600080fd5b50620002096200069c565b005b3480156200021857600080fd5b506200023760048036038101906200023191906200227f565b620006b4565b60405162000246919062002158565b60405180910390f35b3480156200025c57600080fd5b5062000267620007cb565b60405162000276919062002231565b60405180910390f35b3480156200028c57600080fd5b5062000297620007f4565b604051620002a7929190620022c6565b60405180910390f35b620002ce6004803603810190620002c89190620022f3565b62000805565b005b348015620002dd57600080fd5b50620002e862000fa4565b005b348015620002f757600080fd5b506200031660048036038101906200031091906200234f565b62001065565b005b62000336600480360381019062000330919062002381565b620011ad565b005b6200035660048036038101906200035091906200258f565b620016f9565b005b3480156200036557600080fd5b506200038460048036038101906200037e91906200227f565b62001888565b005b3480156200039357600080fd5b50620003b26004803603810190620003ac919062002381565b62001c1c565b005b348015620003c157600080fd5b50620003e06004803603810190620003da91906200234f565b62001e6e565b005b620004006004803603810190620003fa9190620021ba565b62001ef8565b6040516200040f919062002158565b60405180910390f35b600281815481106200042957600080fd5b906000526020600020016000915054906101000a900473ffffffffffffffffffffffffffffffffffffffff1681565b3373ffffffffffffffffffffffffffffffffffffffff16600160008473ffffffffffffffffffffffffffffffffffffffff1673ffffffffffffffffffffffffffffffffffffffff1681526020019081526020016000208281548110620004c357620004c262002669565b5b9060005260206000200160009054906101000a900473ffffffffffffffffffffffffffffffffffffffff1673ffffffffffffffffffffffffffffffffffffffff1663893d20e86040518163ffffffff1660e01b8152600401602060405180830381865afa15801562000539573d6000803e3d6000fd5b505050506040513d601f19601f820116820180604052508101906200055f9190620026af565b73ffffffffffffffffffffffffffffffffffffffff1614620005b8576040517f08c379a0000000000000000000000000000000000000000000000000000000008152600401620005af9062002768565b60405180910390fd5b600160008373ffffffffffffffffffffffffffffffffffffffff1673ffffffffffffffffffffffffffffffffffffffff16815260200190815260200160002081815481106200060c576200060b62002669565b5b9060005260206000200160009054906101000a900473ffffffffffffffffffffffffffffffffffffffff1673ffffffffffffffffffffffffffffffffffffffff16638fcde9006040518163ffffffff1660e01b8152600401600060405180830381600087803b1580156200067f57600080fd5b505af115801562000694573d6000803e3d6000fd5b505050505050565b620006a662001fde565b620006b2600062002063565b565b60006064600554600160008673ffffffffffffffffffffffffffffffffffffffff1673ffffffffffffffffffffffffffffffffffffffff16815260200190815260200160002084815481106200070f576200070e62002669565b5b9060005260206000200160009054906101000a900473ffffffffffffffffffffffffffffffffffffffff1673ffffffffffffffffffffffffffffffffffffffff166398d5fdca6040518163ffffffff1660e01b8152600401602060405180830381865afa15801562000785573d6000803e3d6000fd5b505050506040513d601f19601f82011682018060405250810190620007ab9190620027a1565b620007b7919062002802565b620007c391906200287c565b905092915050565b60008060009054906101000a900473ffffffffffffffffffffffffffffffffffffffff16905090565b600080600354600454915091509091565b600160008473ffffffffffffffffffffffffffffffffffffffff1673ffffffffffffffffffffffffffffffffffffffff168152602001908152602001600020828154811062000859576200085862002669565b5b9060005260206000200160009054906101000a900473ffffffffffffffffffffffffffffffffffffffff1673ffffffffffffffffffffffffffffffffffffffff1663893d20e86040518163ffffffff1660e01b8152600401602060405180830381865afa158015620008cf573d6000803e3d6000fd5b505050506040513d601f19601f82011682018060405250810190620008f59190620026af565b73ffffffffffffffffffffffffffffffffffffffff168373ffffffffffffffffffffffffffffffffffffffff161462000965576040517f08c379a00000000000000000000000000000000000000000000000000000000081526004016200095c906200292a565b60405180910390fd5b600060018111156200097c576200097b6200294c565b5b600160008573ffffffffffffffffffffffffffffffffffffffff1673ffffffffffffffffffffffffffffffffffffffff1681526020019081526020016000208381548110620009d057620009cf62002669565b5b9060005260206000200160009054906101000a900473ffffffffffffffffffffffffffffffffffffffff1673ffffffffffffffffffffffffffffffffffffffff16631a6fb3426040518163ffffffff1660e01b8152600401602060405180830381865afa15801562000a46573d6000803e3d6000fd5b505050506040513d601f19601f8201168201806040525081019062000a6c919062002992565b600181111562000a815762000a806200294c565b5b1462000ac4576040517f08c379a000000000000000000000000000000000000000000000000000000000815260040162000abb9062002a14565b60405180910390fd5b6000600281111562000adb5762000ada6200294c565b5b600160008573ffffffffffffffffffffffffffffffffffffffff1673ffffffffffffffffffffffffffffffffffffffff168152602001908152602001600020838154811062000b2f5762000b2e62002669565b5b9060005260206000200160009054906101000a900473ffffffffffffffffffffffffffffffffffffffff1673ffffffffffffffffffffffffffffffffffffffff16633bc21fcb6040518163ffffffff1660e01b8152600401602060405180830381865afa15801562000ba5573d6000803e3d6000fd5b505050506040513d601f19601f8201168201806040525081019062000bcb919062002a5e565b600281111562000be05762000bdf6200294c565b5b1462000c23576040517f08c379a000000000000000000000000000000000000000000000000000000000815260040162000c1a9062002ae0565b60405180910390fd5b3373ffffffffffffffffffffffffffffffffffffffff168173ffffffffffffffffffffffffffffffffffffffff161462000c94576040517f08c379a000000000000000000000000000000000000000000000000000000000815260040162000c8b9062002768565b60405180910390fd5b600062000ca28484620006b4565b905080600160008673ffffffffffffffffffffffffffffffffffffffff1673ffffffffffffffffffffffffffffffffffffffff168152602001908152602001600020848154811062000cf95762000cf862002669565b5b9060005260206000200160009054906101000a900473ffffffffffffffffffffffffffffffffffffffff1673ffffffffffffffffffffffffffffffffffffffff166398d5fdca6040518163ffffffff1660e01b8152600401602060405180830381865afa15801562000d6f573d6000803e3d6000fd5b505050506040513d601f19601f8201168201806040525081019062000d959190620027a1565b62000da1919062002b02565b34101562000de6576040517f08c379a000000000000000000000000000000000000000000000000000000000815260040162000ddd9062002b8d565b60405180910390fd5b60008473ffffffffffffffffffffffffffffffffffffffff1662000e0a8362001ef8565b3462000e17919062002baf565b60405162000e259062002c1f565b60006040518083038185875af1925050503d806000811462000e64576040519150601f19603f3d011682016040523d82523d6000602084013e62000e69565b606091505b505090508062000eb0576040517f08c379a000000000000000000000000000000000000000000000000000000000815260040162000ea79062002c86565b60405180910390fd5b600160008673ffffffffffffffffffffffffffffffffffffffff1673ffffffffffffffffffffffffffffffffffffffff168152602001908152602001600020848154811062000f045762000f0362002669565b5b9060005260206000200160009054906101000a900473ffffffffffffffffffffffffffffffffffffffff1673ffffffffffffffffffffffffffffffffffffffff1663a6f9dae1846040518263ffffffff1660e01b815260040162000f69919062002231565b600060405180830381600087803b15801562000f8457600080fd5b505af115801562000f99573d6000803e3d6000fd5b505050505050505050565b60006002805490501162000fef576040517f08c379a000000000000000000000000000000000000000000000000000000000815260040162000fe69062002cf8565b60405180910390fd5b60005b60028054905081101562001062576200104c600282815481106200101b576200101a62002669565b5b9060005260206000200160009054906101000a900473ffffffffffffffffffffffffffffffffffffffff1662001065565b8080620010599062002d1a565b91505062000ff2565b50565b60005b600160008373ffffffffffffffffffffffffffffffffffffffff1673ffffffffffffffffffffffffffffffffffffffff16815260200190815260200160002080549050811015620011a957600160008373ffffffffffffffffffffffffffffffffffffffff1673ffffffffffffffffffffffffffffffffffffffff168152602001908152602001600020818154811062001107576200110662002669565b5b9060005260206000200160009054906101000a900473ffffffffffffffffffffffffffffffffffffffff1673ffffffffffffffffffffffffffffffffffffffff1663f15358946040518163ffffffff1660e01b8152600401600060405180830381600087803b1580156200117a57600080fd5b505af11580156200118f573d6000803e3d6000fd5b505050508080620011a09062002d1a565b91505062001068565b5050565b3373ffffffffffffffffffffffffffffffffffffffff16600160008573ffffffffffffffffffffffffffffffffffffffff1673ffffffffffffffffffffffffffffffffffffffff168152602001908152602001600020838154811062001218576200121762002669565b5b9060005260206000200160009054906101000a900473ffffffffffffffffffffffffffffffffffffffff1673ffffffffffffffffffffffffffffffffffffffff1663893d20e86040518163ffffffff1660e01b8152600401602060405180830381865afa1580156200128e573d6000803e3d6000fd5b505050506040513d601f19601f82011682018060405250810190620012b49190620026af565b73ffffffffffffffffffffffffffffffffffffffff16146200130d576040517f08c379a0000000000000000000000000000000000000000000000000000000008152600401620013049062002768565b60405180910390fd5b8273ffffffffffffffffffffffffffffffffffffffff16600160008573ffffffffffffffffffffffffffffffffffffffff1673ffffffffffffffffffffffffffffffffffffffff168152602001908152602001600020838154811062001378576200137762002669565b5b9060005260206000200160009054906101000a900473ffffffffffffffffffffffffffffffffffffffff1673ffffffffffffffffffffffffffffffffffffffff1663893d20e86040518163ffffffff1660e01b8152600401602060405180830381865afa158015620013ee573d6000803e3d6000fd5b505050506040513d601f19601f82011682018060405250810190620014149190620026af565b73ffffffffffffffffffffffffffffffffffffffff16146200146d576040517f08c379a0000000000000000000000000000000000000000000000000000000008152600401620014649062002ddd565b60405180910390fd5b600060646005548362001481919062002802565b6200148d91906200287c565b905080826200149d919062002b02565b341015620014e2576040517f08c379a0000000000000000000000000000000000000000000000000000000008152600401620014d99062002e75565b60405180910390fd5b620014ed8162001ef8565b506000600160008673ffffffffffffffffffffffffffffffffffffffff1673ffffffffffffffffffffffffffffffffffffffff168152602001908152602001600020848154811062001544576200154362002669565b5b9060005260206000200160009054906101000a900473ffffffffffffffffffffffffffffffffffffffff1673ffffffffffffffffffffffffffffffffffffffff166398d5fdca6040518163ffffffff1660e01b8152600401602060405180830381865afa158015620015ba573d6000803e3d6000fd5b505050506040513d601f19601f82011682018060405250810190620015e09190620027a1565b83620015ed919062002baf565b905080600454620015ff919062002b02565b600481905550600160008673ffffffffffffffffffffffffffffffffffffffff1673ffffffffffffffffffffffffffffffffffffffff168152602001908152602001600020848154811062001659576200165862002669565b5b9060005260206000200160009054906101000a900473ffffffffffffffffffffffffffffffffffffffff1673ffffffffffffffffffffffffffffffffffffffff1663a2b40d19846040518263ffffffff1660e01b8152600401620016be919062002158565b600060405180830381600087803b158015620016d957600080fd5b505af1158015620016ee573d6000803e3d6000fd5b505050505050505050565b6200170362001fde565b600086868686868660405162001719906200212f565b6200172a9695949392919062002fb1565b604051809103906000f08015801562001747573d6000803e3d6000fd5b509050600160008373ffffffffffffffffffffffffffffffffffffffff1673ffffffffffffffffffffffffffffffffffffffff168152602001908152602001600020819080600181540180825580915050600190039060005260206000200160009091909190916101000a81548173ffffffffffffffffffffffffffffffffffffffff021916908373ffffffffffffffffffffffffffffffffffffffff1602179055506002829080600181540180825580915050600190039060005260206000200160009091909190916101000a81548173ffffffffffffffffffffffffffffffffffffffff021916908373ffffffffffffffffffffffffffffffffffffffff16021790555060016003600082825462001862919062002b02565b925050819055508360045462001879919062002b02565b60048190555050505050505050565b6200189262001fde565b600160008373ffffffffffffffffffffffffffffffffffffffff1673ffffffffffffffffffffffffffffffffffffffff168152602001908152602001600020600182620018e0919062002b02565b81548110620018f457620018f362002669565b5b9060005260206000200160009054906101000a900473ffffffffffffffffffffffffffffffffffffffff16600160008473ffffffffffffffffffffffffffffffffffffffff1673ffffffffffffffffffffffffffffffffffffffff168152602001908152602001600020828154811062001973576200197262002669565b5b9060005260206000200160006101000a81548173ffffffffffffffffffffffffffffffffffffffff021916908373ffffffffffffffffffffffffffffffffffffffff1602179055506000600160008473ffffffffffffffffffffffffffffffffffffffff1673ffffffffffffffffffffffffffffffffffffffff168152602001908152602001600020828154811062001a115762001a1062002669565b5b9060005260206000200160009054906101000a900473ffffffffffffffffffffffffffffffffffffffff1673ffffffffffffffffffffffffffffffffffffffff166398d5fdca6040518163ffffffff1660e01b8152600401602060405180830381865afa15801562001a87573d6000803e3d6000fd5b505050506040513d601f19601f8201168201806040525081019062001aad9190620027a1565b9050600160008473ffffffffffffffffffffffffffffffffffffffff1673ffffffffffffffffffffffffffffffffffffffff16815260200190815260200160002080548062001b015762001b006200302c565b5b6001900381819060005260206000200160006101000a81549073ffffffffffffffffffffffffffffffffffffffff0219169055905560016003600082825462001b4b919062002baf565b925050819055508060045462001b62919062002baf565b600481905550600260018362001b79919062002b02565b8154811062001b8d5762001b8c62002669565b5b9060005260206000200160009054906101000a900473ffffffffffffffffffffffffffffffffffffffff166002838154811062001bcf5762001bce62002669565b5b9060005260206000200160006101000a81548173ffffffffffffffffffffffffffffffffffffffff021916908373ffffffffffffffffffffffffffffffffffffffff160217905550505050565b3373ffffffffffffffffffffffffffffffffffffffff16600160008573ffffffffffffffffffffffffffffffffffffffff1673ffffffffffffffffffffffffffffffffffffffff168152602001908152602001600020838154811062001c875762001c8662002669565b5b9060005260206000200160009054906101000a900473ffffffffffffffffffffffffffffffffffffffff1673ffffffffffffffffffffffffffffffffffffffff1663893d20e86040518163ffffffff1660e01b8152600401602060405180830381865afa15801562001cfd573d6000803e3d6000fd5b505050506040513d601f19601f8201168201806040525081019062001d239190620026af565b73ffffffffffffffffffffffffffffffffffffffff161462001d7c576040517f08c379a000000000000000000000000000000000000000000000000000000000815260040162001d739062002768565b60405180910390fd5b600160008473ffffffffffffffffffffffffffffffffffffffff1673ffffffffffffffffffffffffffffffffffffffff168152602001908152602001600020828154811062001dd05762001dcf62002669565b5b9060005260206000200160009054906101000a900473ffffffffffffffffffffffffffffffffffffffff1673ffffffffffffffffffffffffffffffffffffffff1663e8025d77826040518263ffffffff1660e01b815260040162001e35919062002158565b600060405180830381600087803b15801562001e5057600080fd5b505af115801562001e65573d6000803e3d6000fd5b50505050505050565b62001e7862001fde565b600073ffffffffffffffffffffffffffffffffffffffff168173ffffffffffffffffffffffffffffffffffffffff160362001eea576040517f08c379a000000000000000000000000000000000000000000000000000000000815260040162001ee190620030d1565b60405180910390fd5b62001ef58162002063565b50565b600080600660009054906101000a900473ffffffffffffffffffffffffffffffffffffffff1673ffffffffffffffffffffffffffffffffffffffff168360405162001f439062002c1f565b60006040518083038185875af1925050503d806000811462001f82576040519150601f19603f3d011682016040523d82523d6000602084013e62001f87565b606091505b50509050600115158115151462001fd5576040517f08c379a000000000000000000000000000000000000000000000000000000000815260040162001fcc9062003143565b60405180910390fd5b82915050919050565b62001fe862002127565b73ffffffffffffffffffffffffffffffffffffffff1662002008620007cb565b73ffffffffffffffffffffffffffffffffffffffff161462002061576040517f08c379a00000000000000000000000000000000000000000000000000000000081526004016200205890620031b5565b60405180910390fd5b565b60008060009054906101000a900473ffffffffffffffffffffffffffffffffffffffff169050816000806101000a81548173ffffffffffffffffffffffffffffffffffffffff021916908373ffffffffffffffffffffffffffffffffffffffff1602179055508173ffffffffffffffffffffffffffffffffffffffff168173ffffffffffffffffffffffffffffffffffffffff167f8be0079c531659141344cd1fd0a4f28419497f9722a3daafe3b4186f6b6457e060405160405180910390a35050565b600033905090565b6116f380620031d883390190565b6000819050919050565b62002152816200213d565b82525050565b60006020820190506200216f600083018462002147565b92915050565b6000604051905090565b600080fd5b600080fd5b62002194816200213d565b8114620021a057600080fd5b50565b600081359050620021b48162002189565b92915050565b600060208284031215620021d357620021d26200217f565b5b6000620021e384828501620021a3565b91505092915050565b600073ffffffffffffffffffffffffffffffffffffffff82169050919050565b60006200221982620021ec565b9050919050565b6200222b816200220c565b82525050565b600060208201905062002248600083018462002220565b92915050565b62002259816200220c565b81146200226557600080fd5b50565b60008135905062002279816200224e565b92915050565b600080604083850312156200229957620022986200217f565b5b6000620022a98582860162002268565b9250506020620022bc85828601620021a3565b9150509250929050565b6000604082019050620022dd600083018562002147565b620022ec602083018462002147565b9392505050565b6000806000606084860312156200230f576200230e6200217f565b5b60006200231f8682870162002268565b93505060206200233286828701620021a3565b9250506040620023458682870162002268565b9150509250925092565b6000602082840312156200236857620023676200217f565b5b6000620023788482850162002268565b91505092915050565b6000806000606084860312156200239d576200239c6200217f565b5b6000620023ad8682870162002268565b9350506020620023c086828701620021a3565b9250506040620023d386828701620021a3565b9150509250925092565b600080fd5b600080fd5b6000601f19601f8301169050919050565b7f4e487b7100000000000000000000000000000000000000000000000000000000600052604160045260246000fd5b6200243282620023e7565b810181811067ffffffffffffffff82111715620024545762002453620023f8565b5b80604052505050565b60006200246962002175565b905062002477828262002427565b919050565b600067ffffffffffffffff8211156200249a5762002499620023f8565b5b620024a582620023e7565b9050602081019050919050565b82818337600083830152505050565b6000620024d8620024d2846200247c565b6200245d565b905082815260208101848484011115620024f757620024f6620023e2565b5b62002504848285620024b2565b509392505050565b600082601f830112620025245762002523620023dd565b5b813562002536848260208601620024c1565b91505092915050565b600381106200254d57600080fd5b50565b60008135905062002561816200253f565b92915050565b600281106200257557600080fd5b50565b600081359050620025898162002567565b92915050565b60008060008060008060c08789031215620025af57620025ae6200217f565b5b600087013567ffffffffffffffff811115620025d057620025cf62002184565b5b620025de89828a016200250c565b965050602087013567ffffffffffffffff81111562002602576200260162002184565b5b6200261089828a016200250c565b95505060406200262389828a0162002550565b94505060606200263689828a01620021a3565b93505060806200264989828a0162002578565b92505060a06200265c89828a0162002268565b9150509295509295509295565b7f4e487b7100000000000000000000000000000000000000000000000000000000600052603260045260246000fd5b600081519050620026a9816200224e565b92915050565b600060208284031215620026c857620026c76200217f565b5b6000620026d88482850162002698565b91505092915050565b600082825260208201905092915050565b7f4e6f207469656e65207065726d69736f7320706172612065737461206163636960008201527f6f6e000000000000000000000000000000000000000000000000000000000000602082015250565b600062002750602283620026e1565b91506200275d82620026f2565b604082019050919050565b60006020820190508181036000830152620027838162002741565b9050919050565b6000815190506200279b8162002189565b92915050565b600060208284031215620027ba57620027b96200217f565b5b6000620027ca848285016200278a565b91505092915050565b7f4e487b7100000000000000000000000000000000000000000000000000000000600052601160045260246000fd5b60006200280f826200213d565b91506200281c836200213d565b92508282026200282c816200213d565b91508282048414831517620028465762002845620027d3565b5b5092915050565b7f4e487b7100000000000000000000000000000000000000000000000000000000600052601260045260246000fd5b600062002889826200213d565b915062002896836200213d565b925082620028a957620028a86200284d565b5b828204905092915050565b7f41646472657373207265736570746f72612064656c207061676f204e6f20657360008201527f20656c204f776e65720000000000000000000000000000000000000000000000602082015250565b600062002912602983620026e1565b91506200291f82620028b4565b604082019050919050565b60006020820190508181036000830152620029458162002903565b9050919050565b7f4e487b7100000000000000000000000000000000000000000000000000000000600052602160045260246000fd5b6000815190506200298c8162002567565b92915050565b600060208284031215620029ab57620029aa6200217f565b5b6000620029bb848285016200297b565b91505092915050565b7f45737465205469636b6574204e6f206573205472616e7366657269626c650000600082015250565b6000620029fc601e83620026e1565b915062002a0982620029c4565b602082019050919050565b6000602082019050818103600083015262002a2f81620029ed565b9050919050565b6003811062002a4457600080fd5b50565b60008151905062002a588162002a36565b92915050565b60006020828403121562002a775762002a766200217f565b5b600062002a878482850162002a47565b91505092915050565b7f45737465205469636b6574204e6f2065732056616c69646f0000000000000000600082015250565b600062002ac8601883620026e1565b915062002ad58262002a90565b602082019050919050565b6000602082019050818103600083015262002afb8162002ab9565b9050919050565b600062002b0f826200213d565b915062002b1c836200213d565b925082820190508082111562002b375762002b36620027d3565b5b92915050565b7f506f72206661766f722c20696e677265736520756e2076616c6f720000000000600082015250565b600062002b75601b83620026e1565b915062002b828262002b3d565b602082019050919050565b6000602082019050818103600083015262002ba88162002b66565b9050919050565b600062002bbc826200213d565b915062002bc9836200213d565b925082820390508181111562002be45762002be3620027d3565b5b92915050565b600081905092915050565b50565b600062002c0760008362002bea565b915062002c148262002bf5565b600082019050919050565b600062002c2c8262002bf8565b9150819050919050565b7f4572726f7220656e20656c20656e76696f206465204574686572000000000000600082015250565b600062002c6e601a83620026e1565b915062002c7b8262002c36565b602082019050919050565b6000602082019050818103600083015262002ca18162002c5f565b9050919050565b7f4c69737461206465205469636b65747320766163696100000000000000000000600082015250565b600062002ce0601683620026e1565b915062002ced8262002ca8565b602082019050919050565b6000602082019050818103600083015262002d138162002cd1565b9050919050565b600062002d27826200213d565b91507fffffffffffffffffffffffffffffffffffffffffffffffffffffffffffffffff820362002d5c5762002d5b620027d3565b5b600182019050919050565b7f4e6f20636f696369646520656c206164647265737320696e6772657361646f2060008201527f636f6e207375206f776e65720000000000000000000000000000000000000000602082015250565b600062002dc5602c83620026e1565b915062002dd28262002d67565b604082019050919050565b6000602082019050818103600083015262002df88162002db6565b9050919050565b7f456c206d6f6e746f206465206c61207472616e73666572656e6369612065732060008201527f696e737566696369656e74650000000000000000000000000000000000000000602082015250565b600062002e5d602c83620026e1565b915062002e6a8262002dff565b604082019050919050565b6000602082019050818103600083015262002e908162002e4e565b9050919050565b600081519050919050565b60005b8381101562002ec257808201518184015260208101905062002ea5565b60008484015250505050565b600062002edb8262002e97565b62002ee78185620026e1565b935062002ef981856020860162002ea2565b62002f0481620023e7565b840191505092915050565b6003811062002f235762002f226200294c565b5b50565b600081905062002f368262002f0f565b919050565b600062002f488262002f26565b9050919050565b62002f5a8162002f3b565b82525050565b6002811062002f745762002f736200294c565b5b50565b600081905062002f878262002f60565b919050565b600062002f998262002f77565b9050919050565b62002fab8162002f8c565b82525050565b600060c082019050818103600083015262002fcd818962002ece565b9050818103602083015262002fe3818862002ece565b905062002ff4604083018762002f4f565b62003003606083018662002147565b62003012608083018562002fa0565b6200302160a083018462002220565b979650505050505050565b7f4e487b7100000000000000000000000000000000000000000000000000000000600052603160045260246000fd5b7f4f776e61626c653a206e6577206f776e657220697320746865207a65726f206160008201527f6464726573730000000000000000000000000000000000000000000000000000602082015250565b6000620030b9602683620026e1565b9150620030c6826200305b565b604082019050919050565b60006020820190508181036000830152620030ec81620030aa565b9050919050565b7f5472616e73666572656e6369612066616c6c6964612100000000000000000000600082015250565b60006200312b601683620026e1565b91506200313882620030f3565b602082019050919050565b600060208201905081810360008301526200315e816200311c565b9050919050565b7f4f776e61626c653a2063616c6c6572206973206e6f7420746865206f776e6572600082015250565b60006200319d602083620026e1565b9150620031aa8262003165565b602082019050919050565b60006020820190508181036000830152620031d0816200318e565b905091905056fe60806040526008600055600054600a6200001a919062000343565b6001553480156200002a57600080fd5b50604051620016f3380380620016f383398181016040528101906200005091906200060d565b620000606200016d60201b60201c565b600281905550856003908162000077919062000928565b5042600481905550846005908162000090919062000928565b5083600660006101000a81548160ff02191690836002811115620000b957620000b862000a0f565b5b0217905550826007819055506000600860006101000a81548160ff02191690836002811115620000ee57620000ed62000a0f565b5b021790555081600860016101000a81548160ff021916908360018111156200011b576200011a62000a0f565b5b021790555080600860026101000a81548173ffffffffffffffffffffffffffffffffffffffff021916908373ffffffffffffffffffffffffffffffffffffffff16021790555050505050505062000b4a565b60008033426040516020016200018592919062000ab3565b6040516020818303038152906040528051906020012060001c905060015481620001b0919062000b12565b91505090565b7f4e487b7100000000000000000000000000000000000000000000000000000000600052601160045260246000fd5b60008160011c9050919050565b6000808291508390505b600185111562000244578086048111156200021c576200021b620001b6565b5b60018516156200022c5780820291505b80810290506200023c85620001e5565b9450620001fc565b94509492505050565b6000826200025f576001905062000332565b816200026f576000905062000332565b81600181146200028857600281146200029357620002c9565b600191505062000332565b60ff841115620002a857620002a7620001b6565b5b8360020a915084821115620002c257620002c1620001b6565b5b5062000332565b5060208310610133831016604e8410600b8410161715620003035782820a905083811115620002fd57620002fc620001b6565b5b62000332565b620003128484846001620001f2565b925090508184048111156200032c576200032b620001b6565b5b81810290505b9392505050565b6000819050919050565b6000620003508262000339565b91506200035d8362000339565b92506200038c7fffffffffffffffffffffffffffffffffffffffffffffffffffffffffffffffff84846200024d565b905092915050565b6000604051905090565b600080fd5b600080fd5b600080fd5b600080fd5b6000601f19601f8301169050919050565b7f4e487b7100000000000000000000000000000000000000000000000000000000600052604160045260246000fd5b620003fd82620003b2565b810181811067ffffffffffffffff821117156200041f576200041e620003c3565b5b80604052505050565b60006200043462000394565b9050620004428282620003f2565b919050565b600067ffffffffffffffff821115620004655762000464620003c3565b5b6200047082620003b2565b9050602081019050919050565b60005b838110156200049d57808201518184015260208101905062000480565b60008484015250505050565b6000620004c0620004ba8462000447565b62000428565b905082815260208101848484011115620004df57620004de620003ad565b5b620004ec8482856200047d565b509392505050565b600082601f8301126200050c576200050b620003a8565b5b81516200051e848260208601620004a9565b91505092915050565b600381106200053557600080fd5b50565b600081519050620005498162000527565b92915050565b6200055a8162000339565b81146200056657600080fd5b50565b6000815190506200057a816200054f565b92915050565b600281106200058e57600080fd5b50565b600081519050620005a28162000580565b92915050565b600073ffffffffffffffffffffffffffffffffffffffff82169050919050565b6000620005d582620005a8565b9050919050565b620005e781620005c8565b8114620005f357600080fd5b50565b6000815190506200060781620005dc565b92915050565b60008060008060008060c087890312156200062d576200062c6200039e565b5b600087015167ffffffffffffffff8111156200064e576200064d620003a3565b5b6200065c89828a01620004f4565b965050602087015167ffffffffffffffff81111562000680576200067f620003a3565b5b6200068e89828a01620004f4565b9550506040620006a189828a0162000538565b9450506060620006b489828a0162000569565b9350506080620006c789828a0162000591565b92505060a0620006da89828a01620005f6565b9150509295509295509295565b600081519050919050565b7f4e487b7100000000000000000000000000000000000000000000000000000000600052602260045260246000fd5b600060028204905060018216806200073a57607f821691505b60208210810362000750576200074f620006f2565b5b50919050565b60008190508160005260206000209050919050565b60006020601f8301049050919050565b600082821b905092915050565b600060088302620007ba7fffffffffffffffffffffffffffffffffffffffffffffffffffffffffffffffff826200077b565b620007c686836200077b565b95508019841693508086168417925050509392505050565b6000819050919050565b60006200080962000803620007fd8462000339565b620007de565b62000339565b9050919050565b6000819050919050565b6200082583620007e8565b6200083d620008348262000810565b84845462000788565b825550505050565b600090565b6200085462000845565b620008618184846200081a565b505050565b5b8181101562000889576200087d6000826200084a565b60018101905062000867565b5050565b601f821115620008d857620008a28162000756565b620008ad846200076b565b81016020851015620008bd578190505b620008d5620008cc856200076b565b83018262000866565b50505b505050565b600082821c905092915050565b6000620008fd60001984600802620008dd565b1980831691505092915050565b6000620009188383620008ea565b9150826002028217905092915050565b6200093382620006e7565b67ffffffffffffffff8111156200094f576200094e620003c3565b5b6200095b825462000721565b620009688282856200088d565b600060209050601f831160018114620009a057600084156200098b578287015190505b6200099785826200090a565b86555062000a07565b601f198416620009b08662000756565b60005b82811015620009da57848901518255600182019150602085019450602081019050620009b3565b86831015620009fa5784890151620009f6601f891682620008ea565b8355505b6001600288020188555050505b505050505050565b7f4e487b7100000000000000000000000000000000000000000000000000000000600052602160045260246000fd5b60008160601b9050919050565b600062000a588262000a3e565b9050919050565b600062000a6c8262000a4b565b9050919050565b62000a8862000a8282620005c8565b62000a5f565b82525050565b6000819050919050565b62000aad62000aa78262000339565b62000a8e565b82525050565b600062000ac1828562000a73565b60148201915062000ad3828462000a98565b6020820191508190509392505050565b7f4e487b7100000000000000000000000000000000000000000000000000000000600052601260045260246000fd5b600062000b1f8262000339565b915062000b2c8362000339565b92508262000b3f5762000b3e62000ae3565b5b828206905092915050565b610b998062000b5a6000396000f3fe608060405234801561001057600080fd5b50600436106100ea5760003560e01c80639f5be1ca1161008c578063a6f9dae111610066578063a6f9dae114610205578063b81e43fc14610221578063e8025d771461023f578063f15358941461025b576100ea565b80639f5be1ca146101ad578063a21145b6146101cb578063a2b40d19146101e9576100ea565b80635d1ca631116100c85780635d1ca63114610149578063893d20e8146101675780638fcde9001461018557806398d5fdca1461018f576100ea565b80631a6fb342146100ef5780633bc21fcb1461010d578063575836a31461012b575b600080fd5b6100f7610265565b60405161010491906106f5565b60405180910390f35b61011561027c565b6040516101229190610758565b60405180910390f35b610133610293565b604051610140919061078c565b60405180910390f35b61015161029d565b60405161015e919061078c565b60405180910390f35b61016f6102a7565b60405161017c91906107e8565b60405180910390f35b61018d6102d1565b005b610197610369565b6040516101a4919061078c565b60405180910390f35b6101b5610373565b6040516101c2919061084b565b60405180910390f35b6101d361038a565b6040516101e091906108f6565b60405180910390f35b61020360048036038101906101fe9190610949565b61041c565b005b61021f600480360381019061021a91906109a2565b610426565b005b6102296104a3565b60405161023691906108f6565b60405180910390f35b61025960048036038101906102549190610949565b610535565b005b6102636105de565b005b6000600860019054906101000a900460ff16905090565b6000600860009054906101000a900460ff16905090565b6000600454905090565b6000600254905090565b6000600860029054906101000a900473ffffffffffffffffffffffffffffffffffffffff16905090565b6001808111156102e4576102e361067e565b5b600860019054906101000a900460ff1660018111156103065761030561067e565b5b0361033b576000600860016101000a81548160ff021916908360018111156103315761033061067e565b5b0217905550610367565b6001600860016101000a81548160ff021916908360018111156103615761036061067e565b5b02179055505b565b6000600754905090565b6000600660009054906101000a900460ff16905090565b606060058054610399906109fe565b80601f01602080910402602001604051908101604052809291908181526020018280546103c5906109fe565b80156104125780601f106103e757610100808354040283529160200191610412565b820191906000526020600020905b8154815290600101906020018083116103f557829003601f168201915b5050505050905090565b8060078190555050565b600073ffffffffffffffffffffffffffffffffffffffff168173ffffffffffffffffffffffffffffffffffffffff160361045f57600080fd5b80600860026101000a81548173ffffffffffffffffffffffffffffffffffffffff021916908373ffffffffffffffffffffffffffffffffffffffff16021790555050565b6060600380546104b2906109fe565b80601f01602080910402602001604051908101604052809291908181526020018280546104de906109fe565b801561052b5780601f106105005761010080835404028352916020019161052b565b820191906000526020600020905b81548152906001019060200180831161050e57829003601f168201915b5050505050905090565b6000810361056d576000600860006101000a81548160ff021916908360028111156105635761056261067e565b5b02179055506105db565b600181036105a5576001600860006101000a81548160ff0219169083600281111561059b5761059a61067e565b5b02179055506105da565b600281036105d9576002600860006101000a81548160ff021916908360028111156105d3576105d261067e565b5b02179055505b5b5b50565b7fdeeed688e34b89a6477cad8a0c65d1f808f26a89ebd96c7cb8b3327ea7ac8b5760025460036004546005600660009054906101000a900460ff16600754600860009054906101000a900460ff16600860019054906101000a900460ff16600860029054906101000a900473ffffffffffffffffffffffffffffffffffffffff1660405161067499989796959493929190610ac8565b60405180910390a1565b7f4e487b7100000000000000000000000000000000000000000000000000000000600052602160045260246000fd5b600281106106be576106bd61067e565b5b50565b60008190506106cf826106ad565b919050565b60006106df826106c1565b9050919050565b6106ef816106d4565b82525050565b600060208201905061070a60008301846106e6565b92915050565b600381106107215761072061067e565b5b50565b600081905061073282610710565b919050565b600061074282610724565b9050919050565b61075281610737565b82525050565b600060208201905061076d6000830184610749565b92915050565b6000819050919050565b61078681610773565b82525050565b60006020820190506107a1600083018461077d565b92915050565b600073ffffffffffffffffffffffffffffffffffffffff82169050919050565b60006107d2826107a7565b9050919050565b6107e2816107c7565b82525050565b60006020820190506107fd60008301846107d9565b92915050565b600381106108145761081361067e565b5b50565b600081905061082582610803565b919050565b600061083582610817565b9050919050565b6108458161082a565b82525050565b6000602082019050610860600083018461083c565b92915050565b600081519050919050565b600082825260208201905092915050565b60005b838110156108a0578082015181840152602081019050610885565b60008484015250505050565b6000601f19601f8301169050919050565b60006108c882610866565b6108d28185610871565b93506108e2818560208601610882565b6108eb816108ac565b840191505092915050565b6000602082019050818103600083015261091081846108bd565b905092915050565b600080fd5b61092681610773565b811461093157600080fd5b50565b6000813590506109438161091d565b92915050565b60006020828403121561095f5761095e610918565b5b600061096d84828501610934565b91505092915050565b61097f816107c7565b811461098a57600080fd5b50565b60008135905061099c81610976565b92915050565b6000602082840312156109b8576109b7610918565b5b60006109c68482850161098d565b91505092915050565b7f4e487b7100000000000000000000000000000000000000000000000000000000600052602260045260246000fd5b60006002820490506001821680610a1657607f821691505b602082108103610a2957610a286109cf565b5b50919050565b60008190508160005260206000209050919050565b60008154610a51816109fe565b610a5b8186610871565b94506001821660008114610a765760018114610a8c57610abf565b60ff198316865281151560200286019350610abf565b610a9585610a2f565b60005b83811015610ab757815481890152600182019150602081019050610a98565b808801955050505b50505092915050565b600061012082019050610ade600083018c61077d565b8181036020830152610af0818b610a44565b9050610aff604083018a61077d565b8181036060830152610b118189610a44565b9050610b20608083018861083c565b610b2d60a083018761077d565b610b3a60c0830186610749565b610b4760e08301856106e6565b610b556101008301846107d9565b9a995050505050505050505056fea26469706673582212206469a60d2f1fa86695dca400b321f4a59311c3fa84ab4ac255f8b0ee0463db3064736f6c63430008110033a2646970667358221220a4d123be9f2db8f58192122f20a858bb09f5c67f13b98308fa597957ce26fef564736f6c63430008110033",
  "immutableReferences": {},
  "source": "/* *** Manager ***\r\nX - Deber tener una funcin para tokenizar un ticket. Esto significa crear un nuevo Ticket con los datos \r\n  correspondientes.\r\nX - Deber tener una funcin para ver todos los tickets que contiene la plataforma, sin importar quien sea el \r\n  dueo.\r\nX - Deber tener una funcin para ver los tickets que estn asignados a un dueo particular (address).\r\nX - Deber tener una funcin para permitir la transferencia de un ticket segn su estado, es decir que si un \r\n  Ticket tiene un estado Transferible, puede cambiar de dueo. Permitiendo que el nuevo dueo enve ethers a \r\n  travs de la plataforma y que el dueo anterior reciba esos ethers.\r\nX - Deber tener una funcin para permitir que el dueo de un ticket pueda cambiar el precio del mismo, pero en \r\n  ese caso el contrato Manager cobra un 5% de comisin y queda en su balance.\r\nX - Deber tener una funcin para retornar la cantidad de tickets que tiene la plataforma y el precio total de \r\n  los tickets. Esto est pensado para mostrar estadsticas y poder llamar la atencin de futuros inversores.\r\nX - Deber tener una funcin para eliminar el ticket de la lista. */\r\n\r\n// SPDX-License-Identifier: MIT\r\npragma solidity 0.8.17;\r\n\r\nimport \"./Ticket.sol\";\r\nimport \"@openzeppelin/contracts/access/Ownable.sol\";\r\n\r\n/** @title Contract Manager.*/\r\ncontract Manager is Ownable {\r\n    // Mapping de Tickets\r\n    mapping(address => Ticket[]) listTickets;\r\n\r\n    // Owners Tickets\r\n    address[] public OwnersTickets;\r\n\r\n    // Total de Tickets\r\n    uint256 totalTickets = 0;\r\n\r\n    // Valor total de Tickets\r\n    uint256 balanceTickets = 0;\r\n\r\n    // Valor del Fee\r\n    uint256 Fee = 5;\r\n\r\n    // Address del Manager\r\n    address addressManager;\r\n\r\n    event FundsReceived(uint256 amount);\r\n\r\n    receive() external payable {\r\n        emit FundsReceived(msg.value);\r\n    }\r\n\r\n    fallback() external payable {\r\n        emit FundsReceived(msg.value);\r\n    }\r\n\r\n    constructor() {\r\n        addressManager = msg.sender;\r\n    }\r\n\r\n    /**@dev Funcion para Tokenizar Tickets.\r\n    * @param _eventName Nombre del Evento.\r\n    * @param _eventDescription Descripcin del Evento.\r\n    * @param _eventType Tipo del Evento.\r\n    * @param _price Precio del Ticket.\r\n    * @param _transferStatus Estodo de Transferencia.\r\n    * @param _owner Address Dueo del Ticket\r\n    // El Ticket se crear con STATUS siempre en TicketStatus.VALID\r\n    // Solo Manager puede crear un ticket nuevo\r\n    */\r\n    function createTicket(\r\n        string memory _eventName,\r\n        string memory _eventDescription,\r\n        EventType _eventType,\r\n        uint256 _price,\r\n        TransferStatus _transferStatus,\r\n        address _owner\r\n    ) public payable onlyOwner {\r\n        Ticket ticketNew = new Ticket(\r\n            _eventName,\r\n            _eventDescription,\r\n            _eventType,\r\n            _price,\r\n            _transferStatus,\r\n            _owner\r\n        );\r\n        listTickets[_owner].push(ticketNew);\r\n        OwnersTickets.push(_owner);\r\n        totalTickets += 1;\r\n        balanceTickets = balanceTickets + _price;\r\n    }\r\n\r\n    /**@dev Funcion para cambiar el precio del ticket.\r\n    * @param _addressOwner Address Dueo del Ticket Ingresado.\r\n    * @param _index Index del Ticket Ingresado.\r\n    * @param _newPriceTicket Nuevo Precio del Ticket Ingresado.\r\n    // Controles realizados:\r\n    // 1-Que listTickets[_addressOwner][_index].getOwner() sea msg.sender, solo el dueo puede cambiar el precio del Ticket,\r\n    // 2-Que la _addressOwner ingresado sea realmente la duea del Ticket (getOwner())\r\n    // 3-Que el monto a pagar sea mayor o igual al nuevo precio del ticket (newPriceTicket + commission para el Manager)\r\n    */\r\n    function changeTicketPrice(\r\n        address _addressOwner,\r\n        uint256 _index,\r\n        uint256 _newPriceTicket\r\n    ) public payable {\r\n        // 1er Control\r\n        require(\r\n            listTickets[_addressOwner][_index].getOwner() == msg.sender,\r\n            \"No tiene permisos para esta accion\"\r\n        );\r\n        // 2do Control\r\n        require(\r\n            listTickets[_addressOwner][_index].getOwner() == _addressOwner,\r\n            \"No coicide el address ingresado con su owner\"\r\n        );\r\n        // 3er Control\r\n        uint256 commission = (_newPriceTicket * Fee) / 100;\r\n        require(\r\n            msg.value >= _newPriceTicket + commission,\r\n            \"El monto de la transferencia es insuficiente\"\r\n        );\r\n        // Pago de comisin y cambio del Precio\r\n        feeManage(commission);\r\n        uint256 priceDifference = _newPriceTicket -\r\n            listTickets[_addressOwner][_index].getPrice();\r\n        balanceTickets = balanceTickets + priceDifference;\r\n        listTickets[_addressOwner][_index].changePrice(_newPriceTicket);\r\n    }\r\n\r\n    /**@dev Funcin para mostrar las estadisticas.\r\n    * @return totalTickets Total de Tickets en la Plataforma.\r\n    * @return balanceTickets Precio Total de Tickets en la Plataforma.\r\n    */\r\n    function showStatistics() public view returns (uint256, uint256) {\r\n        return (totalTickets, balanceTickets);\r\n    }\r\n\r\n    /**@dev Funcion para Eliminar un Ticket segn address del Owner.\r\n    * @param _addressOwner Address Dueo del Ticket.\r\n    * @param _index Index del Ticket.\r\n    // Solo Manager puede eliminar un ticket.\r\n    */\r\n    function deleteTicket(address _addressOwner, uint256 _index)\r\n        public\r\n        onlyOwner\r\n    {\r\n        listTickets[_addressOwner][_index] = listTickets[_addressOwner][\r\n            _index + 1\r\n        ];\r\n        uint256 oldPrice = listTickets[_addressOwner][_index].getPrice();\r\n        listTickets[_addressOwner].pop();\r\n        totalTickets -= 1;\r\n        balanceTickets = balanceTickets - oldPrice;\r\n        OwnersTickets[_index] = OwnersTickets[_index + 1];\r\n        OwnersTickets.pop;\r\n    }\r\n\r\n    /**@dev Funcin para cambiar el Estado de Transferencia (TRANSFERIBLE, NO_TRANSFERIBLE).\r\n    * @param _addressOwner Address Dueo del Ticket.\r\n    * @param _index Index del Ticket.\r\n    // Control realizado:\r\n    // -Que listTickets[_addressOwner][_index].getOwner() sea msg.sender, solo el dueo puede cambiar el TransferStatus\r\n    */\r\n    function changeTransferStatusTicket(address _addressOwner, uint256 _index)\r\n        public\r\n    {\r\n        // Control\r\n        require(\r\n            listTickets[_addressOwner][_index].getOwner() == msg.sender,\r\n            \"No tiene permisos para esta accion\"\r\n        );\r\n        // Cambia el estado\r\n        listTickets[_addressOwner][_index].changeTransferStatus();\r\n    }\r\n\r\n    /**@dev Funcin para cambiar el Estado del Ticket (VALID, USED, EXPIRED).\r\n    * @param _addressOwner Address Dueo del Ticket.\r\n    * @param _index Index del Ticket.\r\n    * @param _newTicketStatus Nuevo Estado del Ticket.\r\n    // Control realizado:\r\n    // Que listTickets[_addressOwner][_index].getOwner() sea msg.sender, solo el dueo puede cambiar el TicketStatus\r\n    */\r\n    function changeStatusTicket(\r\n        address _addressOwner,\r\n        uint256 _index,\r\n        uint256 _newTicketStatus\r\n    ) public {\r\n        // Control\r\n        require(\r\n            listTickets[_addressOwner][_index].getOwner() == msg.sender,\r\n            \"No tiene permisos para esta accion\"\r\n        );\r\n        // Cambia el estado\r\n        listTickets[_addressOwner][_index].changeStatus(_newTicketStatus);\r\n    }\r\n\r\n    /**@dev Funcin para Transferir un Ticket.\r\n    * @param _addressOwner Address Dueo del Ticket.\r\n    * @param _index Index del Ticket.\r\n    * @param _newOwner Nuevo Dueo del Ticket.\r\n    // Controles Realizados:\r\n    // 1-Que la _addressOwner sea realmente la duea del Ticket (getOwner())\r\n    // 2-Que el Ticket sea Trasferible (tenga TransferStatus.TRANSFERIBLE),\r\n    // 3-Que el Ticket sea Valido (tenga TicketStatus.VALID),\r\n    // 4-Que _newOwner sea msg.sender (_newOwner address pagador del Ticket a _addressOwner),\r\n    // 5-Que el monto a pagar sea mayor o igual al costo del ticket (getPrice()) + el feeTicket para el Manager\r\n    */\r\n    function transferTicket(\r\n        address _addressOwner,\r\n        uint256 _index,\r\n        address _newOwner\r\n    ) public payable {\r\n        // 1er Control\r\n        require(\r\n            _addressOwner == listTickets[_addressOwner][_index].getOwner(),\r\n            \"Address reseptora del pago No es el Owner\"\r\n        );\r\n        // 2do Control\r\n        require(\r\n            listTickets[_addressOwner][_index].getTransferStatus() ==\r\n                TransferStatus.TRANSFERIBLE,\r\n            \"Este Ticket No es Transferible\"\r\n        );\r\n        // 3er Control\r\n        require(\r\n            listTickets[_addressOwner][_index].getTicketStatus() ==\r\n                TicketStatus.VALID,\r\n            \"Este Ticket No es Valido\"\r\n        );\r\n        // 4to Control\r\n        require(_newOwner == msg.sender, \"No tiene permisos para esta accion\");\r\n        // 5to Control\r\n        uint256 feeTicket = feeCalculation(_addressOwner, _index);\r\n        require(\r\n            msg.value >=\r\n                listTickets[_addressOwner][_index].getPrice() + feeTicket,\r\n            \"Por favor, ingrese un valor\"\r\n        );\r\n        // Pago del ticket y cambio de dueo\r\n        (bool sent, ) = _addressOwner.call{\r\n            value: msg.value - feeManage(feeTicket)\r\n        }(\"\");\r\n        require(sent, \"Error en el envio de Ether\");\r\n        listTickets[_addressOwner][_index].changeOwner(_newOwner);\r\n    }\r\n\r\n    /**@dev Muestra informacin de los Tickets segn dueo (owner).\r\n    * @param _addressOwner Address Dueo de los Tickets.\r\n    */\r\n    function showTicketsByAddress(address _addressOwner) public {\r\n        for (uint256 i = 0; i < listTickets[_addressOwner].length; i++) {\r\n            listTickets[_addressOwner][i].showInformation();\r\n        }\r\n    }\r\n\r\n    /**@dev Muestra informacion de todos los tickets en la Plataforma.\r\n    */\r\n    function showAllTickets() public {\r\n        require(OwnersTickets.length > 0, \"Lista de Tickets vacia\");\r\n        for (uint256 j = 0; j < OwnersTickets.length; j++) {\r\n            showTicketsByAddress(OwnersTickets[j]);\r\n        }\r\n    }\r\n\r\n    /**@dev Funcin para el pago de comisiones al contrato Manager.\r\n    * @param _feeTicket Comisin (fee) a pagar al contrato Manager.\r\n    */\r\n    function feeManage(uint256 _feeTicket) public payable returns (uint256) {\r\n        (bool success, ) = addressManager.call{value: _feeTicket}(\"\");\r\n        require(success == true, \"Transferencia fallida!\");\r\n        return _feeTicket;\r\n    }\r\n\r\n    /**@dev Calculo del fee en las transferencias de ticket.\r\n    * @param _addressOwner Address Dueo del Ticket.\r\n    * @param _index Index del Ticket.\r\n    */\r\n    function feeCalculation(address _addressOwner, uint256 _index)\r\n        public\r\n        view\r\n        returns (uint256)\r\n    {\r\n        return ((listTickets[_addressOwner][_index].getPrice() * Fee) / 100);\r\n    }\r\n}\r\n",
  "sourcePath": "C:\\Users\\FRICHARD\\Desktop\\CURSO SOLIDITY\\Trabajo Final Integrador\\contracts\\Manager.sol",
  "compiler": {
    "name": "solc",
    "version": "0.8.17+commit.8df45f5f.Emscripten.clang"
  },
  "schemaVersion": "3.4.10",
  "updatedAt": "2022-12-02T23:37:51.135Z",
  "devdoc": {
    "kind": "dev",
    "methods": {
      "changeStatusTicket(address,uint256,uint256)": {
        "details": "Funcin para cambiar el Estado del Ticket (VALID, USED, EXPIRED).",
        "params": {
          "_addressOwner": "Address Dueo del Ticket.",
          "_index": "Index del Ticket.",
          "_newTicketStatus": "Nuevo Estado del Ticket. // Control realizado: // Que listTickets[_addressOwner][_index].getOwner() sea msg.sender, solo el dueo puede cambiar el TicketStatus"
        }
      },
      "changeTicketPrice(address,uint256,uint256)": {
        "details": "Funcion para cambiar el precio del ticket.",
        "params": {
          "_addressOwner": "Address Dueo del Ticket Ingresado.",
          "_index": "Index del Ticket Ingresado.",
          "_newPriceTicket": "Nuevo Precio del Ticket Ingresado. // Controles realizados: // 1-Que listTickets[_addressOwner][_index].getOwner() sea msg.sender, solo el dueo puede cambiar el precio del Ticket, // 2-Que la _addressOwner ingresado sea realmente la duea del Ticket (getOwner()) // 3-Que el monto a pagar sea mayor o igual al nuevo precio del ticket (newPriceTicket + commission para el Manager)"
        }
      },
      "changeTransferStatusTicket(address,uint256)": {
        "details": "Funcin para cambiar el Estado de Transferencia (TRANSFERIBLE, NO_TRANSFERIBLE).",
        "params": {
          "_addressOwner": "Address Dueo del Ticket.",
          "_index": "Index del Ticket. // Control realizado: // -Que listTickets[_addressOwner][_index].getOwner() sea msg.sender, solo el dueo puede cambiar el TransferStatus"
        }
      },
      "createTicket(string,string,uint8,uint256,uint8,address)": {
        "details": "Funcion para Tokenizar Tickets.",
        "params": {
          "_eventDescription": "Descripcin del Evento.",
          "_eventName": "Nombre del Evento.",
          "_eventType": "Tipo del Evento.",
          "_owner": "Address Dueo del Ticket // El Ticket se crear con STATUS siempre en TicketStatus.VALID // Solo Manager puede crear un ticket nuevo",
          "_price": "Precio del Ticket.",
          "_transferStatus": "Estodo de Transferencia."
        }
      },
      "deleteTicket(address,uint256)": {
        "details": "Funcion para Eliminar un Ticket segn address del Owner.",
        "params": {
          "_addressOwner": "Address Dueo del Ticket.",
          "_index": "Index del Ticket. // Solo Manager puede eliminar un ticket."
        }
      },
      "feeCalculation(address,uint256)": {
        "details": "Calculo del fee en las transferencias de ticket.",
        "params": {
          "_addressOwner": "Address Dueo del Ticket.",
          "_index": "Index del Ticket."
        }
      },
      "feeManage(uint256)": {
        "details": "Funcin para el pago de comisiones al contrato Manager.",
        "params": {
          "_feeTicket": "Comisin (fee) a pagar al contrato Manager."
        }
      },
      "owner()": {
        "details": "Returns the address of the current owner."
      },
      "renounceOwnership()": {
        "details": "Leaves the contract without owner. It will not be possible to call `onlyOwner` functions anymore. Can only be called by the current owner. NOTE: Renouncing ownership will leave the contract without an owner, thereby removing any functionality that is only available to the owner."
      },
      "showAllTickets()": {
        "details": "Muestra informacion de todos los tickets en la Plataforma."
      },
      "showStatistics()": {
        "details": "Funcin para mostrar las estadisticas.",
        "returns": {
          "_0": "totalTickets Total de Tickets en la Plataforma.",
          "_1": "balanceTickets Precio Total de Tickets en la Plataforma."
        }
      },
      "showTicketsByAddress(address)": {
        "details": "Muestra informacin de los Tickets segn dueo (owner).",
        "params": {
          "_addressOwner": "Address Dueo de los Tickets."
        }
      },
      "transferOwnership(address)": {
        "details": "Transfers ownership of the contract to a new account (`newOwner`). Can only be called by the current owner."
      },
      "transferTicket(address,uint256,address)": {
        "details": "Funcin para Transferir un Ticket.",
        "params": {
          "_addressOwner": "Address Dueo del Ticket.",
          "_index": "Index del Ticket.",
          "_newOwner": "Nuevo Dueo del Ticket. // Controles Realizados: // 1-Que la _addressOwner sea realmente la duea del Ticket (getOwner()) // 2-Que el Ticket sea Trasferible (tenga TransferStatus.TRANSFERIBLE), // 3-Que el Ticket sea Valido (tenga TicketStatus.VALID), // 4-Que _newOwner sea msg.sender (_newOwner address pagador del Ticket a _addressOwner), // 5-Que el monto a pagar sea mayor o igual al costo del ticket (getPrice()) + el feeTicket para el Manager"
        }
      }
    },
    "title": "Contract Manager.",
    "version": 1
  },
  "userdoc": {
    "kind": "user",
    "methods": {},
    "version": 1
  }
}