{
  "contractName": "Manager",
  "abi": [
    {
      "inputs": [],
      "stateMutability": "nonpayable",
      "type": "constructor"
    },
    {
      "anonymous": false,
      "inputs": [
        {
          "indexed": false,
          "internalType": "enum TicketStatus",
          "name": "statusTicket",
          "type": "uint8"
        }
      ],
      "name": "ChangedStatusTicket",
      "type": "event"
    },
    {
      "anonymous": false,
      "inputs": [
        {
          "indexed": false,
          "internalType": "enum TransferStatus",
          "name": "transferStatusTicket",
          "type": "uint8"
        }
      ],
      "name": "ChangedTransferStatusTicket",
      "type": "event"
    },
    {
      "anonymous": false,
      "inputs": [
        {
          "indexed": false,
          "internalType": "string",
          "name": "",
          "type": "string"
        },
        {
          "indexed": false,
          "internalType": "string",
          "name": "",
          "type": "string"
        },
        {
          "indexed": false,
          "internalType": "enum EventType",
          "name": "",
          "type": "uint8"
        },
        {
          "indexed": false,
          "internalType": "uint256",
          "name": "",
          "type": "uint256"
        },
        {
          "indexed": false,
          "internalType": "address",
          "name": "",
          "type": "address"
        }
      ],
      "name": "CreatedTicket",
      "type": "event"
    },
    {
      "anonymous": false,
      "inputs": [
        {
          "indexed": false,
          "internalType": "uint256",
          "name": "",
          "type": "uint256"
        }
      ],
      "name": "DeletedTicket",
      "type": "event"
    },
    {
      "anonymous": false,
      "inputs": [
        {
          "indexed": false,
          "internalType": "uint256",
          "name": "amount",
          "type": "uint256"
        }
      ],
      "name": "FundsReceived",
      "type": "event"
    },
    {
      "anonymous": false,
      "inputs": [
        {
          "indexed": false,
          "internalType": "uint256",
          "name": "",
          "type": "uint256"
        }
      ],
      "name": "NewPrice",
      "type": "event"
    },
    {
      "anonymous": false,
      "inputs": [
        {
          "indexed": true,
          "internalType": "address",
          "name": "previousOwner",
          "type": "address"
        },
        {
          "indexed": true,
          "internalType": "address",
          "name": "newOwner",
          "type": "address"
        }
      ],
      "name": "OwnershipTransferred",
      "type": "event"
    },
    {
      "anonymous": false,
      "inputs": [
        {
          "indexed": false,
          "internalType": "uint256",
          "name": "",
          "type": "uint256"
        },
        {
          "indexed": false,
          "internalType": "uint256",
          "name": "",
          "type": "uint256"
        }
      ],
      "name": "ShowStatistics",
      "type": "event"
    },
    {
      "anonymous": false,
      "inputs": [
        {
          "indexed": false,
          "internalType": "address",
          "name": "oldOwner",
          "type": "address"
        },
        {
          "indexed": false,
          "internalType": "address",
          "name": "newOwner",
          "type": "address"
        }
      ],
      "name": "TransferredTicket",
      "type": "event"
    },
    {
      "stateMutability": "payable",
      "type": "fallback",
      "payable": true
    },
    {
      "inputs": [
        {
          "internalType": "uint256",
          "name": "",
          "type": "uint256"
        }
      ],
      "name": "OwnersTickets",
      "outputs": [
        {
          "internalType": "address",
          "name": "",
          "type": "address"
        }
      ],
      "stateMutability": "view",
      "type": "function",
      "constant": true
    },
    {
      "inputs": [],
      "name": "owner",
      "outputs": [
        {
          "internalType": "address",
          "name": "",
          "type": "address"
        }
      ],
      "stateMutability": "view",
      "type": "function",
      "constant": true
    },
    {
      "inputs": [],
      "name": "renounceOwnership",
      "outputs": [],
      "stateMutability": "nonpayable",
      "type": "function"
    },
    {
      "inputs": [
        {
          "internalType": "address",
          "name": "newOwner",
          "type": "address"
        }
      ],
      "name": "transferOwnership",
      "outputs": [],
      "stateMutability": "nonpayable",
      "type": "function"
    },
    {
      "stateMutability": "payable",
      "type": "receive",
      "payable": true
    },
    {
      "inputs": [
        {
          "internalType": "string",
          "name": "_eventName",
          "type": "string"
        },
        {
          "internalType": "string",
          "name": "_eventDescription",
          "type": "string"
        },
        {
          "internalType": "enum EventType",
          "name": "_eventType",
          "type": "uint8"
        },
        {
          "internalType": "uint256",
          "name": "_price",
          "type": "uint256"
        }
      ],
      "name": "createTicket",
      "outputs": [],
      "stateMutability": "payable",
      "type": "function",
      "payable": true
    },
    {
      "inputs": [
        {
          "internalType": "address",
          "name": "_addressOwner",
          "type": "address"
        },
        {
          "internalType": "uint256",
          "name": "_index",
          "type": "uint256"
        },
        {
          "internalType": "uint256",
          "name": "_newPriceTicket",
          "type": "uint256"
        }
      ],
      "name": "changeTicketPrice",
      "outputs": [],
      "stateMutability": "payable",
      "type": "function",
      "payable": true
    },
    {
      "inputs": [],
      "name": "showStatistics",
      "outputs": [],
      "stateMutability": "nonpayable",
      "type": "function"
    },
    {
      "inputs": [
        {
          "internalType": "address",
          "name": "_addressOwner",
          "type": "address"
        },
        {
          "internalType": "uint256",
          "name": "_index",
          "type": "uint256"
        }
      ],
      "name": "deleteTicket",
      "outputs": [],
      "stateMutability": "nonpayable",
      "type": "function"
    },
    {
      "inputs": [
        {
          "internalType": "address",
          "name": "_addressOwner",
          "type": "address"
        },
        {
          "internalType": "uint256",
          "name": "_index",
          "type": "uint256"
        }
      ],
      "name": "changeTransferStatusTicket",
      "outputs": [],
      "stateMutability": "nonpayable",
      "type": "function"
    },
    {
      "inputs": [
        {
          "internalType": "address",
          "name": "_addressOwner",
          "type": "address"
        },
        {
          "internalType": "uint256",
          "name": "_index",
          "type": "uint256"
        },
        {
          "internalType": "uint256",
          "name": "_newTicketStatus",
          "type": "uint256"
        }
      ],
      "name": "changeStatusTicket",
      "outputs": [],
      "stateMutability": "nonpayable",
      "type": "function"
    },
    {
      "inputs": [
        {
          "internalType": "address",
          "name": "_addressOwner",
          "type": "address"
        },
        {
          "internalType": "uint256",
          "name": "_index",
          "type": "uint256"
        },
        {
          "internalType": "address",
          "name": "_newOwner",
          "type": "address"
        }
      ],
      "name": "transferTicket",
      "outputs": [],
      "stateMutability": "payable",
      "type": "function",
      "payable": true
    },
    {
      "inputs": [
        {
          "internalType": "address",
          "name": "_addressOwner",
          "type": "address"
        }
      ],
      "name": "showTicketsByAddress",
      "outputs": [],
      "stateMutability": "nonpayable",
      "type": "function"
    },
    {
      "inputs": [],
      "name": "showAllTickets",
      "outputs": [],
      "stateMutability": "nonpayable",
      "type": "function"
    },
    {
      "inputs": [
        {
          "internalType": "uint256",
          "name": "_feeTicket",
          "type": "uint256"
        }
      ],
      "name": "feeManage",
      "outputs": [
        {
          "internalType": "uint256",
          "name": "",
          "type": "uint256"
        }
      ],
      "stateMutability": "payable",
      "type": "function",
      "payable": true
    },
    {
      "inputs": [
        {
          "internalType": "address",
          "name": "_addressOwner",
          "type": "address"
        },
        {
          "internalType": "uint256",
          "name": "_index",
          "type": "uint256"
        }
      ],
      "name": "feeCalculation",
      "outputs": [
        {
          "internalType": "uint256",
          "name": "",
          "type": "uint256"
        }
      ],
      "stateMutability": "view",
      "type": "function",
      "constant": true
    },
    {
      "inputs": [],
      "name": "getOwners",
      "outputs": [
        {
          "internalType": "address[]",
          "name": "",
          "type": "address[]"
        }
      ],
      "stateMutability": "view",
      "type": "function",
      "constant": true
    }
  ],
  "bytecode": "0x60806040526000600455600060055560056006553480156200002057600080fd5b5062000041620000356200008860201b60201c565b6200009060201b60201c565b33600760006101000a81548173ffffffffffffffffffffffffffffffffffffffff021916908373ffffffffffffffffffffffffffffffffffffffff16021790555062000154565b600033905090565b60008060009054906101000a900473ffffffffffffffffffffffffffffffffffffffff169050816000806101000a81548173ffffffffffffffffffffffffffffffffffffffff021916908373ffffffffffffffffffffffffffffffffffffffff1602179055508173ffffffffffffffffffffffffffffffffffffffff168173ffffffffffffffffffffffffffffffffffffffff167f8be0079c531659141344cd1fd0a4f28419497f9722a3daafe3b4186f6b6457e060405160405180910390a35050565b615f7180620001646000396000f3fe6080604052600436106200010f5760003560e01c8063a0e67e2b1162000097578063ed4be5da1162000061578063ed4be5da146200037d578063f08deb1514620003ab578063f2fde38b14620003d9578063fd50715a14620004075762000150565b8063a0e67e2b14620002e5578063b31616471462000315578063d0c451c0146200032f578063e6977ea2146200035d5762000150565b80638da5cb5b11620000d95780638da5cb5b146200025b57806390680243146200028b57806394701d7b14620002a55780639a9bb76514620002c55762000150565b80631e6bc4a5146200018b5780632d1645b814620001cf578063715018a614620001fd5780638904bb6614620002175762000150565b3662000150577fbcdc7071c1beb6dcf2744621e0b29a2f2432ee20812d9ca5e3d5e8f9308d93a334604051620001469190620034ca565b60405180910390a1005b7fbcdc7071c1beb6dcf2744621e0b29a2f2432ee20812d9ca5e3d5e8f9308d93a334604051620001819190620034ca565b60405180910390a1005b3480156200019857600080fd5b50620001b76004803603810190620001b191906200352c565b6200043d565b604051620001c69190620035a3565b60405180910390f35b348015620001dc57600080fd5b50620001fb6004803603810190620001f59190620035f1565b6200047d565b005b3480156200020a57600080fd5b5062000215620007ed565b005b3480156200022457600080fd5b506200024360048036038101906200023d9190620035f1565b62000805565b604051620002529190620034ca565b60405180910390f35b3480156200026857600080fd5b50620002736200091c565b604051620002829190620035a3565b60405180910390f35b3480156200029857600080fd5b50620002a362000945565b005b620002c36004803603810190620002bd919062003638565b62000990565b005b620002e36004803603810190620002dd91906200381e565b62001a6a565b005b348015620002f257600080fd5b50620002fd62001c2c565b6040516200030c91906200399c565b60405180910390f35b3480156200032257600080fd5b506200032d62001cbc565b005b3480156200033c57600080fd5b506200035b6004803603810190620003559190620039c0565b62002112565b005b6200037b6004803603810190620003759190620039f2565b6200225a565b005b3480156200038a57600080fd5b50620003a96004803603810190620003a39190620035f1565b620027e3565b005b348015620003b857600080fd5b50620003d76004803603810190620003d19190620039f2565b6200292b565b005b348015620003e657600080fd5b50620004056004803603810190620003ff9190620039c0565b62002ca9565b005b6200042560048036038101906200041f91906200352c565b62002d33565b604051620004349190620034ca565b60405180910390f35b600281815481106200044e57600080fd5b906000526020600020016000915054906101000a900473ffffffffffffffffffffffffffffffffffffffff1681565b81813373ffffffffffffffffffffffffffffffffffffffff16600160008473ffffffffffffffffffffffffffffffffffffffff1673ffffffffffffffffffffffffffffffffffffffff1681526020019081526020016000208281548110620004ea57620004e962003a4e565b5b9060005260206000200160009054906101000a900473ffffffffffffffffffffffffffffffffffffffff1673ffffffffffffffffffffffffffffffffffffffff1663893d20e86040518163ffffffff1660e01b8152600401602060405180830381865afa15801562000560573d6000803e3d6000fd5b505050506040513d601f19601f8201168201806040525081019062000586919062003a94565b73ffffffffffffffffffffffffffffffffffffffff1614620005df576040517f08c379a0000000000000000000000000000000000000000000000000000000008152600401620005d69062003b4d565b60405180910390fd5b600160008573ffffffffffffffffffffffffffffffffffffffff1673ffffffffffffffffffffffffffffffffffffffff168152602001908152602001600020838154811062000633576200063262003a4e565b5b9060005260206000200160009054906101000a900473ffffffffffffffffffffffffffffffffffffffff1673ffffffffffffffffffffffffffffffffffffffff16638fcde9006040518163ffffffff1660e01b8152600401600060405180830381600087803b158015620006a657600080fd5b505af1158015620006bb573d6000803e3d6000fd5b505050507f5016c736980f15ba9ca6969354cd15ef1fe4875ddc8d6083ae2d2f21432eec70600160008673ffffffffffffffffffffffffffffffffffffffff1673ffffffffffffffffffffffffffffffffffffffff168152602001908152602001600020848154811062000734576200073362003a4e565b5b9060005260206000200160009054906101000a900473ffffffffffffffffffffffffffffffffffffffff1673ffffffffffffffffffffffffffffffffffffffff16631a6fb3426040518163ffffffff1660e01b8152600401602060405180830381865afa158015620007aa573d6000803e3d6000fd5b505050506040513d601f19601f82011682018060405250810190620007d0919062003b97565b604051620007df919062003c49565b60405180910390a150505050565b620007f762002e19565b62000803600062002e9e565b565b60006064600654600160008673ffffffffffffffffffffffffffffffffffffffff1673ffffffffffffffffffffffffffffffffffffffff168152602001908152602001600020848154811062000860576200085f62003a4e565b5b9060005260206000200160009054906101000a900473ffffffffffffffffffffffffffffffffffffffff1673ffffffffffffffffffffffffffffffffffffffff166398d5fdca6040518163ffffffff1660e01b8152600401602060405180830381865afa158015620008d6573d6000803e3d6000fd5b505050506040513d601f19601f82011682018060405250810190620008fc919062003c7d565b62000908919062003cde565b62000914919062003d58565b905092915050565b60008060009054906101000a900473ffffffffffffffffffffffffffffffffffffffff16905090565b6200094f62002e19565b7f2fe515efe22a4094d7457228c6dc1a0c8c3bc2f31c51e37e1f8b421dc9c013786004546005546040516200098692919062003d90565b60405180910390a1565b6000806000806000600160008973ffffffffffffffffffffffffffffffffffffffff1673ffffffffffffffffffffffffffffffffffffffff1681526020019081526020016000208781548110620009ec57620009eb62003a4e565b5b9060005260206000200160009054906101000a900473ffffffffffffffffffffffffffffffffffffffff1673ffffffffffffffffffffffffffffffffffffffff1663893d20e86040518163ffffffff1660e01b8152600401602060405180830381865afa15801562000a62573d6000803e3d6000fd5b505050506040513d601f19601f8201168201806040525081019062000a88919062003a94565b73ffffffffffffffffffffffffffffffffffffffff168873ffffffffffffffffffffffffffffffffffffffff161462000af8576040517f08c379a000000000000000000000000000000000000000000000000000000000815260040162000aef9062003e33565b60405180910390fd5b6000600181111562000b0f5762000b0e62003bc9565b5b600160008a73ffffffffffffffffffffffffffffffffffffffff1673ffffffffffffffffffffffffffffffffffffffff168152602001908152602001600020888154811062000b635762000b6262003a4e565b5b9060005260206000200160009054906101000a900473ffffffffffffffffffffffffffffffffffffffff1673ffffffffffffffffffffffffffffffffffffffff16631a6fb3426040518163ffffffff1660e01b8152600401602060405180830381865afa15801562000bd9573d6000803e3d6000fd5b505050506040513d601f19601f8201168201806040525081019062000bff919062003b97565b600181111562000c145762000c1362003bc9565b5b1462000c57576040517f08c379a000000000000000000000000000000000000000000000000000000000815260040162000c4e9062003ea5565b60405180910390fd5b6000600281111562000c6e5762000c6d62003bc9565b5b600160008a73ffffffffffffffffffffffffffffffffffffffff1673ffffffffffffffffffffffffffffffffffffffff168152602001908152602001600020888154811062000cc25762000cc162003a4e565b5b9060005260206000200160009054906101000a900473ffffffffffffffffffffffffffffffffffffffff1673ffffffffffffffffffffffffffffffffffffffff16633bc21fcb6040518163ffffffff1660e01b8152600401602060405180830381865afa15801562000d38573d6000803e3d6000fd5b505050506040513d601f19601f8201168201806040525081019062000d5e919062003eef565b600281111562000d735762000d7262003bc9565b5b1462000db6576040517f08c379a000000000000000000000000000000000000000000000000000000000815260040162000dad9062003f71565b60405180910390fd5b3373ffffffffffffffffffffffffffffffffffffffff168673ffffffffffffffffffffffffffffffffffffffff161462000e27576040517f08c379a000000000000000000000000000000000000000000000000000000000815260040162000e1e9062004009565b60405180910390fd5b600062000e35898962000805565b905080600160008b73ffffffffffffffffffffffffffffffffffffffff1673ffffffffffffffffffffffffffffffffffffffff168152602001908152602001600020898154811062000e8c5762000e8b62003a4e565b5b9060005260206000200160009054906101000a900473ffffffffffffffffffffffffffffffffffffffff1673ffffffffffffffffffffffffffffffffffffffff166398d5fdca6040518163ffffffff1660e01b8152600401602060405180830381865afa15801562000f02573d6000803e3d6000fd5b505050506040513d601f19601f8201168201806040525081019062000f28919062003c7d565b62000f3491906200402b565b34101562000f79576040517f08c379a000000000000000000000000000000000000000000000000000000000815260040162000f7090620040b6565b60405180910390fd5b60008973ffffffffffffffffffffffffffffffffffffffff1662000f9d8362002d33565b3462000faa9190620040d8565b60405162000fb89062004148565b60006040518083038185875af1925050503d806000811462000ff7576040519150601f19603f3d011682016040523d82523d6000602084013e62000ffc565b606091505b505090508062001043576040517f08c379a00000000000000000000000000000000000000000000000000000000081526004016200103a90620041af565b60405180910390fd5b600160008b73ffffffffffffffffffffffffffffffffffffffff1673ffffffffffffffffffffffffffffffffffffffff168152602001908152602001600020898154811062001097576200109662003a4e565b5b9060005260206000200160009054906101000a900473ffffffffffffffffffffffffffffffffffffffff1673ffffffffffffffffffffffffffffffffffffffff1663893d20e86040518163ffffffff1660e01b8152600401602060405180830381865afa1580156200110d573d6000803e3d6000fd5b505050506040513d601f19601f8201168201806040525081019062001133919062003a94565b9650600160008b73ffffffffffffffffffffffffffffffffffffffff1673ffffffffffffffffffffffffffffffffffffffff168152602001908152602001600020898154811062001189576200118862003a4e565b5b9060005260206000200160009054906101000a900473ffffffffffffffffffffffffffffffffffffffff1673ffffffffffffffffffffffffffffffffffffffff16635d1ca6316040518163ffffffff1660e01b8152600401602060405180830381865afa158015620011ff573d6000803e3d6000fd5b505050506040513d601f19601f8201168201806040525081019062001225919062003c7d565b9450600160008b73ffffffffffffffffffffffffffffffffffffffff1673ffffffffffffffffffffffffffffffffffffffff16815260200190815260200160002089815481106200127b576200127a62003a4e565b5b9060005260206000200160009054906101000a900473ffffffffffffffffffffffffffffffffffffffff1673ffffffffffffffffffffffffffffffffffffffff1663575836a36040518163ffffffff1660e01b8152600401602060405180830381865afa158015620012f1573d6000803e3d6000fd5b505050506040513d601f19601f8201168201806040525081019062001317919062003c7d565b9250620016ed600160008c73ffffffffffffffffffffffffffffffffffffffff1673ffffffffffffffffffffffffffffffffffffffff1681526020019081526020016000208a8154811062001371576200137062003a4e565b5b9060005260206000200160009054906101000a900473ffffffffffffffffffffffffffffffffffffffff1673ffffffffffffffffffffffffffffffffffffffff1663b81e43fc6040518163ffffffff1660e01b8152600401600060405180830381865afa158015620013e7573d6000803e3d6000fd5b505050506040513d6000823e3d601f19601f820116820180604052508101906200141291906200427b565b600160008d73ffffffffffffffffffffffffffffffffffffffff1673ffffffffffffffffffffffffffffffffffffffff1681526020019081526020016000208b8154811062001466576200146562003a4e565b5b9060005260206000200160009054906101000a900473ffffffffffffffffffffffffffffffffffffffff1673ffffffffffffffffffffffffffffffffffffffff1663a21145b66040518163ffffffff1660e01b8152600401600060405180830381865afa158015620014dc573d6000803e3d6000fd5b505050506040513d6000823e3d601f19601f820116820180604052508101906200150791906200427b565b600160008e73ffffffffffffffffffffffffffffffffffffffff1673ffffffffffffffffffffffffffffffffffffffff1681526020019081526020016000208c815481106200155b576200155a62003a4e565b5b9060005260206000200160009054906101000a900473ffffffffffffffffffffffffffffffffffffffff1673ffffffffffffffffffffffffffffffffffffffff16639f5be1ca6040518163ffffffff1660e01b8152600401602060405180830381865afa158015620015d1573d6000803e3d6000fd5b505050506040513d601f19601f82011682018060405250810190620015f79190620042e3565b600160008f73ffffffffffffffffffffffffffffffffffffffff1673ffffffffffffffffffffffffffffffffffffffff1681526020019081526020016000208d815481106200164b576200164a62003a4e565b5b9060005260206000200160009054906101000a900473ffffffffffffffffffffffffffffffffffffffff1673ffffffffffffffffffffffffffffffffffffffff166398d5fdca6040518163ffffffff1660e01b8152600401602060405180830381865afa158015620016c1573d6000803e3d6000fd5b505050506040513d601f19601f82011682018060405250810190620016e7919062003c7d565b62001a6a565b600060018060008b73ffffffffffffffffffffffffffffffffffffffff1673ffffffffffffffffffffffffffffffffffffffff168152602001908152602001600020805490506200173f9190620040d8565b9050600160008a73ffffffffffffffffffffffffffffffffffffffff1673ffffffffffffffffffffffffffffffffffffffff168152602001908152602001600020818154811062001795576200179462003a4e565b5b9060005260206000200160009054906101000a900473ffffffffffffffffffffffffffffffffffffffff1673ffffffffffffffffffffffffffffffffffffffff166325b2494d8a88876040518463ffffffff1660e01b8152600401620017fe9392919062004315565b600060405180830381600087803b1580156200181957600080fd5b505af11580156200182e573d6000803e3d6000fd5b50505050600160008a73ffffffffffffffffffffffffffffffffffffffff1673ffffffffffffffffffffffffffffffffffffffff168152602001908152602001600020818154811062001886576200188562003a4e565b5b9060005260206000200160009054906101000a900473ffffffffffffffffffffffffffffffffffffffff1673ffffffffffffffffffffffffffffffffffffffff1663893d20e86040518163ffffffff1660e01b8152600401602060405180830381865afa158015620018fc573d6000803e3d6000fd5b505050506040513d601f19601f8201168201806040525081019062001922919062003a94565b9650600160008a73ffffffffffffffffffffffffffffffffffffffff1673ffffffffffffffffffffffffffffffffffffffff168152602001908152602001600020818154811062001978576200197762003a4e565b5b9060005260206000200160009054906101000a900473ffffffffffffffffffffffffffffffffffffffff1673ffffffffffffffffffffffffffffffffffffffff16635d1ca6316040518163ffffffff1660e01b8152600401602060405180830381865afa158015620019ee573d6000803e3d6000fd5b505050506040513d601f19601f8201168201806040525081019062001a14919062003c7d565b945062001a228b8b62002f62565b7f7478cc8eb40d9aeecde2e2f399de4bfeb61e737a737f3412f2a6043a077e4494888860405162001a5592919062004352565b60405180910390a15050505050505050505050565b6000848484843360405162001a7f90620034a1565b62001a8f9594939291906200441c565b604051809103906000f08015801562001aac573d6000803e3d6000fd5b509050600160003373ffffffffffffffffffffffffffffffffffffffff1673ffffffffffffffffffffffffffffffffffffffff168152602001908152602001600020819080600181540180825580915050600190039060005260206000200160009091909190916101000a81548173ffffffffffffffffffffffffffffffffffffffff021916908373ffffffffffffffffffffffffffffffffffffffff1602179055506002339080600181540180825580915050600190039060005260206000200160009091909190916101000a81548173ffffffffffffffffffffffffffffffffffffffff021916908373ffffffffffffffffffffffffffffffffffffffff16021790555060016004600082825462001bc791906200402b565b925050819055508160055462001bde91906200402b565b6005819055507fdb2409cdfceabdf77ab72eb6c59c713233968b22d6341d955ec2741a77ece1ac858585853360405162001c1d9594939291906200441c565b60405180910390a15050505050565b6060600280548060200260200160405190810160405280929190818152602001828054801562001cb257602002820191906000526020600020905b8160009054906101000a900473ffffffffffffffffffffffffffffffffffffffff1673ffffffffffffffffffffffffffffffffffffffff168152602001906001019080831162001c67575b5050505050905090565b60006002805490501162001d07576040517f08c379a000000000000000000000000000000000000000000000000000000000815260040162001cfe90620044d7565b60405180910390fd5b60008060005b6002805490508110156200210d576000810362001e5e5762001d706002828154811062001d3f5762001d3e62003a4e565b5b9060005260206000200160009054906101000a900473ffffffffffffffffffffffffffffffffffffffff1662002112565b6002818154811062001d875762001d8662003a4e565b5b9060005260206000200160009054906101000a900473ffffffffffffffffffffffffffffffffffffffff16925060036002828154811062001dcd5762001dcc62003a4e565b5b9060005260206000200160009054906101000a900473ffffffffffffffffffffffffffffffffffffffff169080600181540180825580915050600190039060005260206000200160009091909190916101000a81548173ffffffffffffffffffffffffffffffffffffffff021916908373ffffffffffffffffffffffffffffffffffffffff160217905550620020f7565b6002818154811062001e755762001e7462003a4e565b5b9060005260206000200160009054906101000a900473ffffffffffffffffffffffffffffffffffffffff1673ffffffffffffffffffffffffffffffffffffffff168373ffffffffffffffffffffffffffffffffffffffff1614620020f6576000915060005b60038054905081101562001fb9576003818154811062001eff5762001efe62003a4e565b5b9060005260206000200160009054906101000a900473ffffffffffffffffffffffffffffffffffffffff1673ffffffffffffffffffffffffffffffffffffffff166002838154811062001f575762001f5662003a4e565b5b9060005260206000200160009054906101000a900473ffffffffffffffffffffffffffffffffffffffff1673ffffffffffffffffffffffffffffffffffffffff160362001fa357600192505b808062001fb090620044f9565b91505062001eda565b5081620020f5576200200c6002828154811062001fdb5762001fda62003a4e565b5b9060005260206000200160009054906101000a900473ffffffffffffffffffffffffffffffffffffffff1662002112565b6002818154811062002023576200202262003a4e565b5b9060005260206000200160009054906101000a900473ffffffffffffffffffffffffffffffffffffffff16925060036002828154811062002069576200206862003a4e565b5b9060005260206000200160009054906101000a900473ffffffffffffffffffffffffffffffffffffffff169080600181540180825580915050600190039060005260206000200160009091909190916101000a81548173ffffffffffffffffffffffffffffffffffffffff021916908373ffffffffffffffffffffffffffffffffffffffff1602179055505b5b5b80806200210490620044f9565b91505062001d0d565b505050565b60005b600160008373ffffffffffffffffffffffffffffffffffffffff1673ffffffffffffffffffffffffffffffffffffffff168152602001908152602001600020805490508110156200225657600160008373ffffffffffffffffffffffffffffffffffffffff1673ffffffffffffffffffffffffffffffffffffffff1681526020019081526020016000208181548110620021b457620021b362003a4e565b5b9060005260206000200160009054906101000a900473ffffffffffffffffffffffffffffffffffffffff1673ffffffffffffffffffffffffffffffffffffffff1663f15358946040518163ffffffff1660e01b8152600401600060405180830381600087803b1580156200222757600080fd5b505af11580156200223c573d6000803e3d6000fd5b5050505080806200224d90620044f9565b91505062002115565b5050565b82823373ffffffffffffffffffffffffffffffffffffffff16600160008473ffffffffffffffffffffffffffffffffffffffff1673ffffffffffffffffffffffffffffffffffffffff1681526020019081526020016000208281548110620022c757620022c662003a4e565b5b9060005260206000200160009054906101000a900473ffffffffffffffffffffffffffffffffffffffff1673ffffffffffffffffffffffffffffffffffffffff1663893d20e86040518163ffffffff1660e01b8152600401602060405180830381865afa1580156200233d573d6000803e3d6000fd5b505050506040513d601f19601f8201168201806040525081019062002363919062003a94565b73ffffffffffffffffffffffffffffffffffffffff1614620023bc576040517f08c379a0000000000000000000000000000000000000000000000000000000008152600401620023b39062003b4d565b60405180910390fd5b8473ffffffffffffffffffffffffffffffffffffffff16600160008773ffffffffffffffffffffffffffffffffffffffff1673ffffffffffffffffffffffffffffffffffffffff168152602001908152602001600020858154811062002427576200242662003a4e565b5b9060005260206000200160009054906101000a900473ffffffffffffffffffffffffffffffffffffffff1673ffffffffffffffffffffffffffffffffffffffff1663893d20e86040518163ffffffff1660e01b8152600401602060405180830381865afa1580156200249d573d6000803e3d6000fd5b505050506040513d601f19601f82011682018060405250810190620024c3919062003a94565b73ffffffffffffffffffffffffffffffffffffffff16146200251c576040517f08c379a00000000000000000000000000000000000000000000000000000000081526004016200251390620045bc565b60405180910390fd5b600060646006548562002530919062003cde565b6200253c919062003d58565b905080846200254c91906200402b565b34101562002591576040517f08c379a0000000000000000000000000000000000000000000000000000000008152600401620025889062004654565b60405180910390fd5b6200259c8162002d33565b506000600160008873ffffffffffffffffffffffffffffffffffffffff1673ffffffffffffffffffffffffffffffffffffffff1681526020019081526020016000208681548110620025f357620025f262003a4e565b5b9060005260206000200160009054906101000a900473ffffffffffffffffffffffffffffffffffffffff1673ffffffffffffffffffffffffffffffffffffffff166398d5fdca6040518163ffffffff1660e01b8152600401602060405180830381865afa15801562002669573d6000803e3d6000fd5b505050506040513d601f19601f820116820180604052508101906200268f919062003c7d565b856200269c9190620040d8565b905080600554620026ae91906200402b565b600581905550600160008873ffffffffffffffffffffffffffffffffffffffff1673ffffffffffffffffffffffffffffffffffffffff168152602001908152602001600020868154811062002708576200270762003a4e565b5b9060005260206000200160009054906101000a900473ffffffffffffffffffffffffffffffffffffffff1673ffffffffffffffffffffffffffffffffffffffff1663a2b40d19866040518263ffffffff1660e01b81526004016200276d9190620034ca565b600060405180830381600087803b1580156200278857600080fd5b505af11580156200279d573d6000803e3d6000fd5b505050507f270b316b51ab2cf3a3bb8ca4d22e76a327d05e762fcaa8bd6afaf8cfde9270b785604051620027d29190620034ca565b60405180910390a150505050505050565b620027ed62002e19565b6000600160008473ffffffffffffffffffffffffffffffffffffffff1673ffffffffffffffffffffffffffffffffffffffff168152602001908152602001600020828154811062002843576200284262003a4e565b5b9060005260206000200160009054906101000a900473ffffffffffffffffffffffffffffffffffffffff1673ffffffffffffffffffffffffffffffffffffffff16635d1ca6316040518163ffffffff1660e01b8152600401602060405180830381865afa158015620028b9573d6000803e3d6000fd5b505050506040513d601f19601f82011682018060405250810190620028df919062003c7d565b9050620028ed838362002f62565b7f1049f766a3c2d53fc5550825d553de9bf2c3d86d02e0817899d8c3311956511e816040516200291e9190620034ca565b60405180910390a1505050565b82823373ffffffffffffffffffffffffffffffffffffffff16600160008473ffffffffffffffffffffffffffffffffffffffff1673ffffffffffffffffffffffffffffffffffffffff168152602001908152602001600020828154811062002998576200299762003a4e565b5b9060005260206000200160009054906101000a900473ffffffffffffffffffffffffffffffffffffffff1673ffffffffffffffffffffffffffffffffffffffff1663893d20e86040518163ffffffff1660e01b8152600401602060405180830381865afa15801562002a0e573d6000803e3d6000fd5b505050506040513d601f19601f8201168201806040525081019062002a34919062003a94565b73ffffffffffffffffffffffffffffffffffffffff161462002a8d576040517f08c379a000000000000000000000000000000000000000000000000000000000815260040162002a849062003b4d565b60405180910390fd5b600160008673ffffffffffffffffffffffffffffffffffffffff1673ffffffffffffffffffffffffffffffffffffffff168152602001908152602001600020848154811062002ae15762002ae062003a4e565b5b9060005260206000200160009054906101000a900473ffffffffffffffffffffffffffffffffffffffff1673ffffffffffffffffffffffffffffffffffffffff1663e8025d77846040518263ffffffff1660e01b815260040162002b469190620034ca565b600060405180830381600087803b15801562002b6157600080fd5b505af115801562002b76573d6000803e3d6000fd5b505050507f1c9f5777731ff7f4447da5e2e250f439094077b8c424f318908578434be94b29600160008773ffffffffffffffffffffffffffffffffffffffff1673ffffffffffffffffffffffffffffffffffffffff168152602001908152602001600020858154811062002bef5762002bee62003a4e565b5b9060005260206000200160009054906101000a900473ffffffffffffffffffffffffffffffffffffffff1673ffffffffffffffffffffffffffffffffffffffff16633bc21fcb6040518163ffffffff1660e01b8152600401602060405180830381865afa15801562002c65573d6000803e3d6000fd5b505050506040513d601f19601f8201168201806040525081019062002c8b919062003eef565b60405162002c9a9190620046c7565b60405180910390a15050505050565b62002cb362002e19565b600073ffffffffffffffffffffffffffffffffffffffff168173ffffffffffffffffffffffffffffffffffffffff160362002d25576040517f08c379a000000000000000000000000000000000000000000000000000000000815260040162002d1c906200475a565b60405180910390fd5b62002d308162002e9e565b50565b600080600760009054906101000a900473ffffffffffffffffffffffffffffffffffffffff1673ffffffffffffffffffffffffffffffffffffffff168360405162002d7e9062004148565b60006040518083038185875af1925050503d806000811462002dbd576040519150601f19603f3d011682016040523d82523d6000602084013e62002dc2565b606091505b50509050600115158115151462002e10576040517f08c379a000000000000000000000000000000000000000000000000000000000815260040162002e0790620047cc565b60405180910390fd5b82915050919050565b62002e2362003499565b73ffffffffffffffffffffffffffffffffffffffff1662002e436200091c565b73ffffffffffffffffffffffffffffffffffffffff161462002e9c576040517f08c379a000000000000000000000000000000000000000000000000000000000815260040162002e93906200483e565b60405180910390fd5b565b60008060009054906101000a900473ffffffffffffffffffffffffffffffffffffffff169050816000806101000a81548173ffffffffffffffffffffffffffffffffffffffff021916908373ffffffffffffffffffffffffffffffffffffffff1602179055508173ffffffffffffffffffffffffffffffffffffffff168173ffffffffffffffffffffffffffffffffffffffff167f8be0079c531659141344cd1fd0a4f28419497f9722a3daafe3b4186f6b6457e060405160405180910390a35050565b6000600160008473ffffffffffffffffffffffffffffffffffffffff1673ffffffffffffffffffffffffffffffffffffffff168152602001908152602001600020828154811062002fb85762002fb762003a4e565b5b9060005260206000200160009054906101000a900473ffffffffffffffffffffffffffffffffffffffff1673ffffffffffffffffffffffffffffffffffffffff166398d5fdca6040518163ffffffff1660e01b8152600401602060405180830381865afa1580156200302e573d6000803e3d6000fd5b505050506040513d601f19601f8201168201806040525081019062003054919062003c7d565b905060008290505b60018060008673ffffffffffffffffffffffffffffffffffffffff1673ffffffffffffffffffffffffffffffffffffffff16815260200190815260200160002080549050620030ac9190620040d8565b811015620031f357600160008573ffffffffffffffffffffffffffffffffffffffff1673ffffffffffffffffffffffffffffffffffffffff1681526020019081526020016000206001826200310291906200402b565b8154811062003116576200311562003a4e565b5b9060005260206000200160009054906101000a900473ffffffffffffffffffffffffffffffffffffffff16600160008673ffffffffffffffffffffffffffffffffffffffff1673ffffffffffffffffffffffffffffffffffffffff168152602001908152602001600020828154811062003195576200319462003a4e565b5b9060005260206000200160006101000a81548173ffffffffffffffffffffffffffffffffffffffff021916908373ffffffffffffffffffffffffffffffffffffffff1602179055508080620031ea90620044f9565b9150506200305c565b50600160008473ffffffffffffffffffffffffffffffffffffffff1673ffffffffffffffffffffffffffffffffffffffff16815260200190815260200160002080548062003246576200324562004860565b5b6001900381819060005260206000200160006101000a81549073ffffffffffffffffffffffffffffffffffffffff02191690559055600160046000828254620032909190620040d8565b9250508190555080600554620032a79190620040d8565b600581905550600080600090505b6001600280549050620032c99190620040d8565b81101562003360578473ffffffffffffffffffffffffffffffffffffffff1660028281548110620032ff57620032fe62003a4e565b5b9060005260206000200160009054906101000a900473ffffffffffffffffffffffffffffffffffffffff1673ffffffffffffffffffffffffffffffffffffffff16036200334a578091505b80806200335790620044f9565b915050620032b5565b5060008190505b60016002805490506200337b9190620040d8565b811015620034485760026001826200339491906200402b565b81548110620033a857620033a762003a4e565b5b9060005260206000200160009054906101000a900473ffffffffffffffffffffffffffffffffffffffff1660028281548110620033ea57620033e962003a4e565b5b9060005260206000200160006101000a81548173ffffffffffffffffffffffffffffffffffffffff021916908373ffffffffffffffffffffffffffffffffffffffff16021790555080806200343f90620044f9565b91505062003367565b5060028054806200345e576200345d62004860565b5b6001900381819060005260206000200160006101000a81549073ffffffffffffffffffffffffffffffffffffffff0219169055905550505050565b600033905090565b6116ac806200489083390190565b6000819050919050565b620034c481620034af565b82525050565b6000602082019050620034e16000830184620034b9565b92915050565b6000604051905090565b600080fd5b600080fd5b6200350681620034af565b81146200351257600080fd5b50565b6000813590506200352681620034fb565b92915050565b600060208284031215620035455762003544620034f1565b5b6000620035558482850162003515565b91505092915050565b600073ffffffffffffffffffffffffffffffffffffffff82169050919050565b60006200358b826200355e565b9050919050565b6200359d816200357e565b82525050565b6000602082019050620035ba600083018462003592565b92915050565b620035cb816200357e565b8114620035d757600080fd5b50565b600081359050620035eb81620035c0565b92915050565b600080604083850312156200360b576200360a620034f1565b5b60006200361b85828601620035da565b92505060206200362e8582860162003515565b9150509250929050565b600080600060608486031215620036545762003653620034f1565b5b60006200366486828701620035da565b9350506020620036778682870162003515565b92505060406200368a86828701620035da565b9150509250925092565b600080fd5b600080fd5b6000601f19601f8301169050919050565b7f4e487b7100000000000000000000000000000000000000000000000000000000600052604160045260246000fd5b620036e9826200369e565b810181811067ffffffffffffffff821117156200370b576200370a620036af565b5b80604052505050565b600062003720620034e7565b90506200372e8282620036de565b919050565b600067ffffffffffffffff821115620037515762003750620036af565b5b6200375c826200369e565b9050602081019050919050565b82818337600083830152505050565b60006200378f620037898462003733565b62003714565b905082815260208101848484011115620037ae57620037ad62003699565b5b620037bb84828562003769565b509392505050565b600082601f830112620037db57620037da62003694565b5b8135620037ed84826020860162003778565b91505092915050565b600381106200380457600080fd5b50565b6000813590506200381881620037f6565b92915050565b600080600080608085870312156200383b576200383a620034f1565b5b600085013567ffffffffffffffff8111156200385c576200385b620034f6565b5b6200386a87828801620037c3565b945050602085013567ffffffffffffffff8111156200388e576200388d620034f6565b5b6200389c87828801620037c3565b9350506040620038af8782880162003807565b9250506060620038c28782880162003515565b91505092959194509250565b600081519050919050565b600082825260208201905092915050565b6000819050602082019050919050565b62003905816200357e565b82525050565b6000620039198383620038fa565b60208301905092915050565b6000602082019050919050565b60006200393f82620038ce565b6200394b8185620038d9565b93506200395883620038ea565b8060005b838110156200398f5781516200397388826200390b565b9750620039808362003925565b9250506001810190506200395c565b5085935050505092915050565b60006020820190508181036000830152620039b8818462003932565b905092915050565b600060208284031215620039d957620039d8620034f1565b5b6000620039e984828501620035da565b91505092915050565b60008060006060848603121562003a0e5762003a0d620034f1565b5b600062003a1e86828701620035da565b935050602062003a318682870162003515565b925050604062003a448682870162003515565b9150509250925092565b7f4e487b7100000000000000000000000000000000000000000000000000000000600052603260045260246000fd5b60008151905062003a8e81620035c0565b92915050565b60006020828403121562003aad5762003aac620034f1565b5b600062003abd8482850162003a7d565b91505092915050565b600082825260208201905092915050565b7f536f6c6f20656c204f776e65722064656c205469636b6574207469656e65207060008201527f65726d69736f2e00000000000000000000000000000000000000000000000000602082015250565b600062003b3560278362003ac6565b915062003b428262003ad7565b604082019050919050565b6000602082019050818103600083015262003b688162003b26565b9050919050565b6002811062003b7d57600080fd5b50565b60008151905062003b918162003b6f565b92915050565b60006020828403121562003bb05762003baf620034f1565b5b600062003bc08482850162003b80565b91505092915050565b7f4e487b7100000000000000000000000000000000000000000000000000000000600052602160045260246000fd5b6002811062003c0c5762003c0b62003bc9565b5b50565b600081905062003c1f8262003bf8565b919050565b600062003c318262003c0f565b9050919050565b62003c438162003c24565b82525050565b600060208201905062003c60600083018462003c38565b92915050565b60008151905062003c7781620034fb565b92915050565b60006020828403121562003c965762003c95620034f1565b5b600062003ca68482850162003c66565b91505092915050565b7f4e487b7100000000000000000000000000000000000000000000000000000000600052601160045260246000fd5b600062003ceb82620034af565b915062003cf883620034af565b925082820262003d0881620034af565b9150828204841483151762003d225762003d2162003caf565b5b5092915050565b7f4e487b7100000000000000000000000000000000000000000000000000000000600052601260045260246000fd5b600062003d6582620034af565b915062003d7283620034af565b92508262003d855762003d8462003d29565b5b828204905092915050565b600060408201905062003da76000830185620034b9565b62003db66020830184620034b9565b9392505050565b7f41646472657373207265736570746f72612064656c207061676f204e6f20657360008201527f20656c204f776e65720000000000000000000000000000000000000000000000602082015250565b600062003e1b60298362003ac6565b915062003e288262003dbd565b604082019050919050565b6000602082019050818103600083015262003e4e8162003e0c565b9050919050565b7f45737465205469636b6574204e6f206573205472616e7366657269626c650000600082015250565b600062003e8d601e8362003ac6565b915062003e9a8262003e55565b602082019050919050565b6000602082019050818103600083015262003ec08162003e7e565b9050919050565b6003811062003ed557600080fd5b50565b60008151905062003ee98162003ec7565b92915050565b60006020828403121562003f085762003f07620034f1565b5b600062003f188482850162003ed8565b91505092915050565b7f45737465205469636b6574204e6f2065732056616c69646f0000000000000000600082015250565b600062003f5960188362003ac6565b915062003f668262003f21565b602082019050919050565b6000602082019050818103600083015262003f8c8162003f4a565b9050919050565b7f536f6c6f20656c2050616761646f72207469656e65207065726d69736f20706160008201527f7261206573746120616363696f6e000000000000000000000000000000000000602082015250565b600062003ff1602e8362003ac6565b915062003ffe8262003f93565b604082019050919050565b60006020820190508181036000830152620040248162003fe2565b9050919050565b60006200403882620034af565b91506200404583620034af565b925082820190508082111562004060576200405f62003caf565b5b92915050565b7f506f72206661766f722c20696e677265736520756e2076616c6f720000000000600082015250565b60006200409e601b8362003ac6565b9150620040ab8262004066565b602082019050919050565b60006020820190508181036000830152620040d1816200408f565b9050919050565b6000620040e582620034af565b9150620040f283620034af565b92508282039050818111156200410d576200410c62003caf565b5b92915050565b600081905092915050565b50565b60006200413060008362004113565b91506200413d826200411e565b600082019050919050565b6000620041558262004121565b9150819050919050565b7f4572726f7220656e20656c20656e76696f206465204574686572000000000000600082015250565b600062004197601a8362003ac6565b9150620041a4826200415f565b602082019050919050565b60006020820190508181036000830152620041ca8162004188565b9050919050565b60005b83811015620041f1578082015181840152602081019050620041d4565b60008484015250505050565b6000620042146200420e8462003733565b62003714565b90508281526020810184848401111562004233576200423262003699565b5b62004240848285620041d1565b509392505050565b600082601f83011262004260576200425f62003694565b5b815162004272848260208601620041fd565b91505092915050565b600060208284031215620042945762004293620034f1565b5b600082015167ffffffffffffffff811115620042b557620042b4620034f6565b5b620042c38482850162004248565b91505092915050565b600081519050620042dd81620037f6565b92915050565b600060208284031215620042fc57620042fb620034f1565b5b60006200430c84828501620042cc565b91505092915050565b60006060820190506200432c600083018662003592565b6200433b6020830185620034b9565b6200434a6040830184620034b9565b949350505050565b600060408201905062004369600083018562003592565b62004378602083018462003592565b9392505050565b600081519050919050565b600062004397826200437f565b620043a3818562003ac6565b9350620043b5818560208601620041d1565b620043c0816200369e565b840191505092915050565b60038110620043df57620043de62003bc9565b5b50565b6000819050620043f282620043cb565b919050565b60006200440482620043e2565b9050919050565b6200441681620043f7565b82525050565b600060a08201905081810360008301526200443881886200438a565b905081810360208301526200444e81876200438a565b90506200445f60408301866200440b565b6200446e6060830185620034b9565b6200447d608083018462003592565b9695505050505050565b7f4c69737461206465205469636b65747320766163696100000000000000000000600082015250565b6000620044bf60168362003ac6565b9150620044cc8262004487565b602082019050919050565b60006020820190508181036000830152620044f281620044b0565b9050919050565b60006200450682620034af565b91507fffffffffffffffffffffffffffffffffffffffffffffffffffffffffffffffff82036200453b576200453a62003caf565b5b600182019050919050565b7f4e6f20636f696369646520656c206164647265737320696e6772657361646f2060008201527f636f6e207375206f776e65720000000000000000000000000000000000000000602082015250565b6000620045a4602c8362003ac6565b9150620045b18262004546565b604082019050919050565b60006020820190508181036000830152620045d78162004595565b9050919050565b7f456c206d6f6e746f206465206c61207472616e73666572656e6369612065732060008201527f696e737566696369656e74650000000000000000000000000000000000000000602082015250565b60006200463c602c8362003ac6565b91506200464982620045de565b604082019050919050565b600060208201905081810360008301526200466f816200462d565b9050919050565b600381106200468a576200468962003bc9565b5b50565b60008190506200469d8262004676565b919050565b6000620046af826200468d565b9050919050565b620046c181620046a2565b82525050565b6000602082019050620046de6000830184620046b6565b92915050565b7f4f776e61626c653a206e6577206f776e657220697320746865207a65726f206160008201527f6464726573730000000000000000000000000000000000000000000000000000602082015250565b60006200474260268362003ac6565b91506200474f82620046e4565b604082019050919050565b60006020820190508181036000830152620047758162004733565b9050919050565b7f5472616e73666572656e6369612066616c6c6964612100000000000000000000600082015250565b6000620047b460168362003ac6565b9150620047c1826200477c565b602082019050919050565b60006020820190508181036000830152620047e781620047a5565b9050919050565b7f4f776e61626c653a2063616c6c6572206973206e6f7420746865206f776e6572600082015250565b60006200482660208362003ac6565b91506200483382620047ee565b602082019050919050565b60006020820190508181036000830152620048598162004817565b9050919050565b7f4e487b7100000000000000000000000000000000000000000000000000000000600052603160045260246000fdfe60806040526008600055600054600a6200001a919062000343565b6001553480156200002a57600080fd5b50604051620016ac380380620016ac8339818101604052810190620000509190620005e5565b620000606200016d60201b60201c565b6002819055504260048190555084600390816200007e9190620008ec565b508360059081620000909190620008ec565b5082600660006101000a81548160ff02191690836002811115620000b957620000b8620009d3565b5b0217905550816007819055506000600860006101000a81548160ff02191690836002811115620000ee57620000ed620009d3565b5b02179055506001600860016101000a81548160ff021916908360018111156200011c576200011b620009d3565b5b021790555080600860026101000a81548173ffffffffffffffffffffffffffffffffffffffff021916908373ffffffffffffffffffffffffffffffffffffffff160217905550505050505062000b0e565b60008033426040516020016200018592919062000a77565b6040516020818303038152906040528051906020012060001c905060015481620001b0919062000ad6565b91505090565b7f4e487b7100000000000000000000000000000000000000000000000000000000600052601160045260246000fd5b60008160011c9050919050565b6000808291508390505b600185111562000244578086048111156200021c576200021b620001b6565b5b60018516156200022c5780820291505b80810290506200023c85620001e5565b9450620001fc565b94509492505050565b6000826200025f576001905062000332565b816200026f576000905062000332565b81600181146200028857600281146200029357620002c9565b600191505062000332565b60ff841115620002a857620002a7620001b6565b5b8360020a915084821115620002c257620002c1620001b6565b5b5062000332565b5060208310610133831016604e8410600b8410161715620003035782820a905083811115620002fd57620002fc620001b6565b5b62000332565b620003128484846001620001f2565b925090508184048111156200032c576200032b620001b6565b5b81810290505b9392505050565b6000819050919050565b6000620003508262000339565b91506200035d8362000339565b92506200038c7fffffffffffffffffffffffffffffffffffffffffffffffffffffffffffffffff84846200024d565b905092915050565b6000604051905090565b600080fd5b600080fd5b600080fd5b600080fd5b6000601f19601f8301169050919050565b7f4e487b7100000000000000000000000000000000000000000000000000000000600052604160045260246000fd5b620003fd82620003b2565b810181811067ffffffffffffffff821117156200041f576200041e620003c3565b5b80604052505050565b60006200043462000394565b9050620004428282620003f2565b919050565b600067ffffffffffffffff821115620004655762000464620003c3565b5b6200047082620003b2565b9050602081019050919050565b60005b838110156200049d57808201518184015260208101905062000480565b60008484015250505050565b6000620004c0620004ba8462000447565b62000428565b905082815260208101848484011115620004df57620004de620003ad565b5b620004ec8482856200047d565b509392505050565b600082601f8301126200050c576200050b620003a8565b5b81516200051e848260208601620004a9565b91505092915050565b600381106200053557600080fd5b50565b600081519050620005498162000527565b92915050565b6200055a8162000339565b81146200056657600080fd5b50565b6000815190506200057a816200054f565b92915050565b600073ffffffffffffffffffffffffffffffffffffffff82169050919050565b6000620005ad8262000580565b9050919050565b620005bf81620005a0565b8114620005cb57600080fd5b50565b600081519050620005df81620005b4565b92915050565b600080600080600060a086880312156200060457620006036200039e565b5b600086015167ffffffffffffffff811115620006255762000624620003a3565b5b6200063388828901620004f4565b955050602086015167ffffffffffffffff811115620006575762000656620003a3565b5b6200066588828901620004f4565b9450506040620006788882890162000538565b93505060606200068b8882890162000569565b92505060806200069e88828901620005ce565b9150509295509295909350565b600081519050919050565b7f4e487b7100000000000000000000000000000000000000000000000000000000600052602260045260246000fd5b60006002820490506001821680620006fe57607f821691505b602082108103620007145762000713620006b6565b5b50919050565b60008190508160005260206000209050919050565b60006020601f8301049050919050565b600082821b905092915050565b6000600883026200077e7fffffffffffffffffffffffffffffffffffffffffffffffffffffffffffffffff826200073f565b6200078a86836200073f565b95508019841693508086168417925050509392505050565b6000819050919050565b6000620007cd620007c7620007c18462000339565b620007a2565b62000339565b9050919050565b6000819050919050565b620007e983620007ac565b62000801620007f882620007d4565b8484546200074c565b825550505050565b600090565b6200081862000809565b62000825818484620007de565b505050565b5b818110156200084d57620008416000826200080e565b6001810190506200082b565b5050565b601f8211156200089c5762000866816200071a565b62000871846200072f565b8101602085101562000881578190505b6200089962000890856200072f565b8301826200082a565b50505b505050565b600082821c905092915050565b6000620008c160001984600802620008a1565b1980831691505092915050565b6000620008dc8383620008ae565b9150826002028217905092915050565b620008f782620006ab565b67ffffffffffffffff811115620009135762000912620003c3565b5b6200091f8254620006e5565b6200092c82828562000851565b600060209050601f8311600181146200096457600084156200094f578287015190505b6200095b8582620008ce565b865550620009cb565b601f19841662000974866200071a565b60005b828110156200099e5784890151825560018201915060208501945060208101905062000977565b86831015620009be5784890151620009ba601f891682620008ae565b8355505b6001600288020188555050505b505050505050565b7f4e487b7100000000000000000000000000000000000000000000000000000000600052602160045260246000fd5b60008160601b9050919050565b600062000a1c8262000a02565b9050919050565b600062000a308262000a0f565b9050919050565b62000a4c62000a4682620005a0565b62000a23565b82525050565b6000819050919050565b62000a7162000a6b8262000339565b62000a52565b82525050565b600062000a85828562000a37565b60148201915062000a97828462000a5c565b6020820191508190509392505050565b7f4e487b7100000000000000000000000000000000000000000000000000000000600052601260045260246000fd5b600062000ae38262000339565b915062000af08362000339565b92508262000b035762000b0262000aa7565b5b828206905092915050565b610b8e8062000b1e6000396000f3fe608060405234801561001057600080fd5b50600436106100ea5760003560e01c806398d5fdca1161008c578063a2b40d1911610066578063a2b40d1914610205578063b81e43fc14610221578063e8025d771461023f578063f15358941461025b576100ea565b806398d5fdca146101ab5780639f5be1ca146101c9578063a21145b6146101e7576100ea565b8063575836a3116100c8578063575836a3146101475780635d1ca63114610165578063893d20e8146101835780638fcde900146101a1576100ea565b80631a6fb342146100ef57806325b2494d1461010d5780633bc21fcb14610129575b600080fd5b6100f7610265565b60405161010491906106c4565b60405180910390f35b61012760048036038101906101229190610778565b61027c565b005b6101316102c8565b60405161013e9190610813565b60405180910390f35b61014f6102df565b60405161015c919061083d565b60405180910390f35b61016d6102e9565b60405161017a919061083d565b60405180910390f35b61018b6102f3565b6040516101989190610867565b60405180910390f35b6101a961031d565b005b6101b36103b5565b6040516101c0919061083d565b60405180910390f35b6101d16103bf565b6040516101de91906108ca565b60405180910390f35b6101ef6103d6565b6040516101fc9190610975565b60405180910390f35b61021f600480360381019061021a9190610997565b610468565b005b610229610472565b6040516102369190610975565b60405180910390f35b61025960048036038101906102549190610997565b610504565b005b6102636105ad565b005b6000600860019054906101000a900460ff16905090565b600073ffffffffffffffffffffffffffffffffffffffff168373ffffffffffffffffffffffffffffffffffffffff16036102b557600080fd5b8160028190555080600481905550505050565b6000600860009054906101000a900460ff16905090565b6000600454905090565b6000600254905090565b6000600860029054906101000a900473ffffffffffffffffffffffffffffffffffffffff16905090565b6001808111156103305761032f61064d565b5b600860019054906101000a900460ff1660018111156103525761035161064d565b5b03610387576000600860016101000a81548160ff0219169083600181111561037d5761037c61064d565b5b02179055506103b3565b6001600860016101000a81548160ff021916908360018111156103ad576103ac61064d565b5b02179055505b565b6000600754905090565b6000600660009054906101000a900460ff16905090565b6060600580546103e5906109f3565b80601f0160208091040260200160405190810160405280929190818152602001828054610411906109f3565b801561045e5780601f106104335761010080835404028352916020019161045e565b820191906000526020600020905b81548152906001019060200180831161044157829003601f168201915b5050505050905090565b8060078190555050565b606060038054610481906109f3565b80601f01602080910402602001604051908101604052809291908181526020018280546104ad906109f3565b80156104fa5780601f106104cf576101008083540402835291602001916104fa565b820191906000526020600020905b8154815290600101906020018083116104dd57829003601f168201915b5050505050905090565b6000810361053c576000600860006101000a81548160ff021916908360028111156105325761053161064d565b5b02179055506105aa565b60018103610574576001600860006101000a81548160ff0219169083600281111561056a5761056961064d565b5b02179055506105a9565b600281036105a8576002600860006101000a81548160ff021916908360028111156105a2576105a161064d565b5b02179055505b5b5b50565b7fdeeed688e34b89a6477cad8a0c65d1f808f26a89ebd96c7cb8b3327ea7ac8b5760025460036004546005600660009054906101000a900460ff16600754600860009054906101000a900460ff16600860019054906101000a900460ff16600860029054906101000a900473ffffffffffffffffffffffffffffffffffffffff1660405161064399989796959493929190610abd565b60405180910390a1565b7f4e487b7100000000000000000000000000000000000000000000000000000000600052602160045260246000fd5b6002811061068d5761068c61064d565b5b50565b600081905061069e8261067c565b919050565b60006106ae82610690565b9050919050565b6106be816106a3565b82525050565b60006020820190506106d960008301846106b5565b92915050565b600080fd5b600073ffffffffffffffffffffffffffffffffffffffff82169050919050565b600061070f826106e4565b9050919050565b61071f81610704565b811461072a57600080fd5b50565b60008135905061073c81610716565b92915050565b6000819050919050565b61075581610742565b811461076057600080fd5b50565b6000813590506107728161074c565b92915050565b600080600060608486031215610791576107906106df565b5b600061079f8682870161072d565b93505060206107b086828701610763565b92505060406107c186828701610763565b9150509250925092565b600381106107dc576107db61064d565b5b50565b60008190506107ed826107cb565b919050565b60006107fd826107df565b9050919050565b61080d816107f2565b82525050565b60006020820190506108286000830184610804565b92915050565b61083781610742565b82525050565b6000602082019050610852600083018461082e565b92915050565b61086181610704565b82525050565b600060208201905061087c6000830184610858565b92915050565b600381106108935761089261064d565b5b50565b60008190506108a482610882565b919050565b60006108b482610896565b9050919050565b6108c4816108a9565b82525050565b60006020820190506108df60008301846108bb565b92915050565b600081519050919050565b600082825260208201905092915050565b60005b8381101561091f578082015181840152602081019050610904565b60008484015250505050565b6000601f19601f8301169050919050565b6000610947826108e5565b61095181856108f0565b9350610961818560208601610901565b61096a8161092b565b840191505092915050565b6000602082019050818103600083015261098f818461093c565b905092915050565b6000602082840312156109ad576109ac6106df565b5b60006109bb84828501610763565b91505092915050565b7f4e487b7100000000000000000000000000000000000000000000000000000000600052602260045260246000fd5b60006002820490506001821680610a0b57607f821691505b602082108103610a1e57610a1d6109c4565b5b50919050565b60008190508160005260206000209050919050565b60008154610a46816109f3565b610a5081866108f0565b94506001821660008114610a6b5760018114610a8157610ab4565b60ff198316865281151560200286019350610ab4565b610a8a85610a24565b60005b83811015610aac57815481890152600182019150602081019050610a8d565b808801955050505b50505092915050565b600061012082019050610ad3600083018c61082e565b8181036020830152610ae5818b610a39565b9050610af4604083018a61082e565b8181036060830152610b068189610a39565b9050610b1560808301886108bb565b610b2260a083018761082e565b610b2f60c0830186610804565b610b3c60e08301856106b5565b610b4a610100830184610858565b9a995050505050505050505056fea26469706673582212205be664e6e57273619317b804dc014bfbe5a735dc67c2ee2c0f695cf7813ede9764736f6c63430008110033a2646970667358221220674f397ec26ef5bfe2bab803ea29b4ac44d81a45cdedd79b898fbb8ed4f0d61464736f6c63430008110033",
  "immutableReferences": {},
  "source": "/* *** Manager ***\r\nX - Deber tener una funcin para tokenizar un ticket. Esto significa crear un nuevo Ticket con los datos \r\n  correspondientes.\r\nX - Deber tener una funcin para ver todos los tickets que contiene la plataforma, sin importar quien sea el \r\n  dueo.\r\nX - Deber tener una funcin para ver los tickets que estn asignados a un dueo particular (address).\r\nX - Deber tener una funcin para permitir la transferencia de un ticket segn su estado, es decir que si un \r\n  Ticket tiene un estado Transferible, puede cambiar de dueo. Permitiendo que el nuevo dueo enve ethers a \r\n  travs de la plataforma y que el dueo anterior reciba esos ethers.\r\nX - Deber tener una funcin para permitir que el dueo de un ticket pueda cambiar el precio del mismo, pero en \r\n  ese caso el contrato Manager cobra un 5% de comisin y queda en su balance.\r\nX - Deber tener una funcin para retornar la cantidad de tickets que tiene la plataforma y el precio total de \r\n  los tickets. Esto est pensado para mostrar estadsticas y poder llamar la atencin de futuros inversores.\r\nX - Deber tener una funcin para eliminar el ticket de la lista. */\r\n\r\n// SPDX-License-Identifier: MIT\r\npragma solidity 0.8.17;\r\n\r\nimport \"./Ticket.sol\";\r\nimport \"@openzeppelin/contracts/access/Ownable.sol\";\r\n\r\n/** @title Contract Manager.*/\r\ncontract Manager is Ownable {\r\n    // Mapping de Tickets\r\n    mapping(address => Ticket[]) listTickets;\r\n\r\n    // Owners Tickets\r\n    address[] public OwnersTickets;\r\n    address[] private noRepeatOwner;\r\n\r\n    // Total de Tickets\r\n    uint256 totalTickets = 0;\r\n\r\n    // Valor total de Tickets\r\n    uint256 balanceTickets = 0;\r\n\r\n    // Valor del Fee\r\n    uint256 Fee = 5;\r\n\r\n    // Address del Manager\r\n    address addressManager;\r\n\r\n    // Control del Dueo del Ticket\r\n    modifier onlyOwnerTicket(address _addressOwner, uint256 _index) {\r\n        require(\r\n            listTickets[_addressOwner][_index].getOwner() == msg.sender,\r\n            \"Solo el Owner del Ticket tiene permiso.\"\r\n        );\r\n        _;\r\n    }\r\n\r\n    // Events\r\n    event CreatedTicket(string, string, EventType, uint256, address);\r\n    event NewPrice(uint256);\r\n    event ShowStatistics(uint256, uint256);\r\n    event DeletedTicket(uint256);\r\n    event ChangedTransferStatusTicket(TransferStatus transferStatusTicket);\r\n    event ChangedStatusTicket(TicketStatus statusTicket);\r\n    event TransferredTicket(address oldOwner, address newOwner);\r\n\r\n    event FundsReceived(uint256 amount);\r\n\r\n    receive() external payable {\r\n        emit FundsReceived(msg.value);\r\n    }\r\n\r\n    fallback() external payable {\r\n        emit FundsReceived(msg.value);\r\n    }\r\n\r\n    // Constructor\r\n    constructor() {\r\n        addressManager = msg.sender;\r\n    }\r\n\r\n    /**@dev Funcion para Tokenizar Tickets.\r\n    * @param _eventName Nombre del Evento.\r\n    * @param _eventDescription Descripcin del Evento.\r\n    * @param _eventType Tipo del Evento.\r\n    * @param _price Precio del Ticket.\r\n    // El Ticket se crear con STATUS siempre en TicketStatus.VALID.\r\n    // El Ticket se crear con TRANSFER STATUS en TransferStatus.NO_TRANSFERIBLE.\r\n    // El address (msg.sender) que interactue con la funcin 'createTicket' \r\n    // queda como dueo (owner) del Ticket.\r\n    */\r\n    function createTicket(\r\n        string memory _eventName,\r\n        string memory _eventDescription,\r\n        EventType _eventType,\r\n        uint256 _price\r\n    ) public payable {\r\n        Ticket ticketNew = new Ticket(\r\n            _eventName,\r\n            _eventDescription,\r\n            _eventType,\r\n            _price,\r\n            msg.sender\r\n        );\r\n        listTickets[msg.sender].push(ticketNew);\r\n        OwnersTickets.push(msg.sender);\r\n        totalTickets += 1;\r\n        balanceTickets = balanceTickets + _price;\r\n        emit CreatedTicket(_eventName, _eventDescription, _eventType, _price, msg.sender);\r\n    }\r\n\r\n    /**@dev Funcion para cambiar el precio del ticket.\r\n    * @param _addressOwner Address Dueo del Ticket Ingresado.\r\n    * @param _index Index del Ticket Ingresado.\r\n    * @param _newPriceTicket Nuevo Precio del Ticket Ingresado.\r\n    // Controles realizados:\r\n    // 1-Que listTickets[_addressOwner][_index].getOwner() sea = a msg.sender, \r\n    // solo el dueo puede cambiar el precio del Ticket,\r\n    // 2-Que la _addressOwner ingresado sea realmente la duea del Ticket (getOwner()).\r\n    // 3-Que el monto a pagar sea mayor o igual al nuevo precio del ticket \r\n    // (newPriceTicket + commission para el Manager).\r\n    */\r\n    function changeTicketPrice(\r\n        address _addressOwner,\r\n        uint256 _index,\r\n        uint256 _newPriceTicket\r\n    ) public payable onlyOwnerTicket(_addressOwner, _index) {\r\n        // 1er Control\r\n        // 2do Control\r\n        require(\r\n            listTickets[_addressOwner][_index].getOwner() == _addressOwner,\r\n            \"No coicide el address ingresado con su owner\"\r\n        );\r\n        // 3er Control\r\n        uint256 commission = (_newPriceTicket * Fee) / 100;\r\n        require(\r\n            msg.value >= _newPriceTicket + commission,\r\n            \"El monto de la transferencia es insuficiente\"\r\n        );\r\n        // Pago de comisin y cambio del Precio\r\n        feeManage(commission);\r\n        uint256 priceDifference = _newPriceTicket -\r\n            listTickets[_addressOwner][_index].getPrice();\r\n        balanceTickets = balanceTickets + priceDifference;\r\n        listTickets[_addressOwner][_index].changePrice(_newPriceTicket);\r\n        emit NewPrice(_newPriceTicket);\r\n    }\r\n\r\n    /**@dev Funcin para mostrar las estadisticas.\r\n    // totalTickets: Total de Tickets en la Plataforma.\r\n    // balanceTickets: Precio Total de Tickets en la Plataforma.\r\n    // Solo Manager puede emitir las estadisticas.\r\n    */\r\n    function showStatistics() public onlyOwner {\r\n        emit ShowStatistics(totalTickets, balanceTickets);\r\n    }\r\n\r\n    /**@dev Funcion para Eliminar un Ticket segn address del Owner.\r\n    * @param _addressOwner Address Dueo del Ticket.\r\n    * @param _index Index del Ticket.\r\n    // Solo Manager puede eliminar un ticket.\r\n    */\r\n    function deleteTicket(address _addressOwner, uint256 _index)\r\n        public\r\n        onlyOwner\r\n    {\r\n        uint256 deletedTicket = listTickets[_addressOwner][_index].getId();\r\n        removingTicket(_addressOwner, _index);\r\n        emit DeletedTicket(deletedTicket);\r\n    }\r\n\r\n    /**@dev Funcion para Remover un Ticket segn address del Owner (Funcin complementaria).\r\n    * @param _addressOwner Address Dueo del Ticket.\r\n    * @param _index Index del Ticket.\r\n    // Funcin accedida desde deleteTicket y desde transferTicket.\r\n    */\r\n    function removingTicket(address _addressOwner, uint256 _index) private {\r\n        uint256 oldPrice = listTickets[_addressOwner][_index].getPrice();\r\n        for (uint256 i = _index; i < listTickets[_addressOwner].length - 1; i++) {\r\n            listTickets[_addressOwner][i] = listTickets[_addressOwner][i + 1];\r\n        }\r\n        listTickets[_addressOwner].pop();\r\n        // NO OLVIDAR UN TRY CATCH PARA .pop()\r\n        totalTickets -= 1;\r\n        balanceTickets = balanceTickets - oldPrice;\r\n        uint256 indexOwner;\r\n        for (uint256 j = 0; j < OwnersTickets.length-1; j++) {\r\n            if (OwnersTickets[j] == _addressOwner) {\r\n                indexOwner = j;\r\n            }\r\n        }\r\n        for (uint256 z = indexOwner; z < OwnersTickets.length - 1; z++) {\r\n            OwnersTickets[z] = OwnersTickets[z + 1];\r\n        }\r\n        OwnersTickets.pop();\r\n        // HASTA AC DENTRO DEL TRY\r\n    }\r\n\r\n    /**@dev Funcin para cambiar el Estado de Transferencia (TRANSFERIBLE, NO_TRANSFERIBLE).\r\n    * @param _addressOwner Address Dueo del Ticket.\r\n    * @param _index Index del Ticket.\r\n    // Control realizado:\r\n    // Que listTickets[_addressOwner][_index].getOwner() sea = a msg.sender, \r\n    // solo el dueo puede cambiar el TransferStatus.\r\n    */\r\n    function changeTransferStatusTicket(address _addressOwner, uint256 _index)\r\n        public\r\n        onlyOwnerTicket(_addressOwner, _index)\r\n    {\r\n        // Cambia el estado\r\n        listTickets[_addressOwner][_index].changeTransferStatus();\r\n        emit ChangedTransferStatusTicket(\r\n            listTickets[_addressOwner][_index].getTransferStatus()\r\n        );\r\n    }\r\n\r\n    /**@dev Funcin para cambiar el Estado del Ticket (VALID, USED, EXPIRED).\r\n    * @param _addressOwner Address Dueo del Ticket.\r\n    * @param _index Index del Ticket.\r\n    * @param _newTicketStatus Nuevo Estado del Ticket.\r\n    // Control realizado:\r\n    // Que listTickets[_addressOwner][_index].getOwner() sea = a msg.sender, \r\n    // solo el dueo puede cambiar el TicketStatus.\r\n    */\r\n    function changeStatusTicket(\r\n        address _addressOwner,\r\n        uint256 _index,\r\n        uint256 _newTicketStatus\r\n    ) public onlyOwnerTicket(_addressOwner, _index) {\r\n        // Cambia el estado\r\n        listTickets[_addressOwner][_index].changeStatus(_newTicketStatus);\r\n        emit ChangedStatusTicket(\r\n            listTickets[_addressOwner][_index].getTicketStatus()\r\n        );\r\n    }\r\n\r\n    /**@dev Funcin para Transferir un Ticket.\r\n    * @param _addressOwner Address Dueo del Ticket.\r\n    * @param _index Index del Ticket.\r\n    * @param _newOwner Nuevo Dueo del Ticket.\r\n    // Controles Realizados:\r\n    // 1-Que la _addressOwner sea realmente la duea del Ticket (getOwner()).\r\n    // 2-Que el Ticket sea Trasferible (tenga TransferStatus.TRANSFERIBLE).\r\n    // 3-Que el Ticket sea Valido (tenga TicketStatus.VALID).\r\n    // 4-Que _newOwner sea msg.sender (_newOwner address pagador del Ticket a _addressOwner).\r\n    // 5-Que el monto a pagar sea mayor o igual al costo del ticket (getPrice()) + el feeTicket para el Manager.\r\n    // La Transferencia del Ticket solo se har si el Ticket est en condicin de Transferirse, \r\n    // esto significa que se encuentra en Estado TRANSFERIBLE y VALID, stos estados del Ticket\r\n    // solo pueden ser modificados por el Dueo del Ticket (Owner).\r\n    // El Nuevo Dueo es quien puede realizar el Pago de la Transferencia del Ticket.\r\n    // \r\n    */\r\n    function transferTicket(\r\n        address _addressOwner,\r\n        uint256 _index,\r\n        address _newOwner\r\n    ) public payable {\r\n        address oldOwner;\r\n        address newOwner;\r\n        uint256 idOldOwner;\r\n        uint256 idNewOwner;\r\n        uint256 eventDateOldOwner;\r\n        // 1er Control\r\n        require(\r\n            _addressOwner == listTickets[_addressOwner][_index].getOwner(),\r\n            \"Address reseptora del pago No es el Owner\"\r\n        );\r\n        // 2do Control\r\n        require(\r\n            listTickets[_addressOwner][_index].getTransferStatus() ==\r\n                TransferStatus.TRANSFERIBLE,\r\n            \"Este Ticket No es Transferible\"\r\n        );\r\n        // 3er Control\r\n        require(\r\n            listTickets[_addressOwner][_index].getTicketStatus() ==\r\n                TicketStatus.VALID,\r\n            \"Este Ticket No es Valido\"\r\n        );\r\n        // 4to Control\r\n        require(\r\n            _newOwner == msg.sender,\r\n            \"Solo el Pagador tiene permiso para esta accion\"\r\n        );\r\n        // 5to Control\r\n        uint256 feeTicket = feeCalculation(_addressOwner, _index);\r\n        require(\r\n            msg.value >=\r\n                listTickets[_addressOwner][_index].getPrice() + feeTicket,\r\n            \"Por favor, ingrese un valor\"\r\n        );\r\n        // Pago del Ticket\r\n        (bool sent, ) = _addressOwner.call{\r\n            value: msg.value - feeManage(feeTicket)\r\n        }(\"\");\r\n        require(sent, \"Error en el envio de Ether\");\r\n        // Cambio de Dueo (address owner)\r\n        // Crea uno nuevo (address new owner) con los datos del anterior dueo.\r\n        oldOwner = listTickets[_addressOwner][_index].getOwner();\r\n        idOldOwner = listTickets[_addressOwner][_index].getId();\r\n        eventDateOldOwner = listTickets[_addressOwner][_index].getEventDate();\r\n        createTicket(\r\n            listTickets[_addressOwner][_index].getEventName(),\r\n            listTickets[_addressOwner][_index].getEventDescription(),\r\n            listTickets[_addressOwner][_index].getEventType(),\r\n            listTickets[_addressOwner][_index].getPrice()\r\n        );\r\n        uint256 _indexNewOwner = listTickets[_newOwner].length - 1;\r\n        listTickets[_newOwner][_indexNewOwner].changeOwner(_newOwner, idOldOwner, eventDateOldOwner);\r\n        newOwner = listTickets[_newOwner][_indexNewOwner].getOwner();\r\n        idNewOwner = listTickets[_newOwner][_indexNewOwner].getId();\r\n        // Elimina antiguo Ticket (old owner)\r\n        removingTicket(_addressOwner, _index);\r\n        emit TransferredTicket(oldOwner, newOwner);\r\n    }\r\n\r\n    /**@dev Muestra informacin de los Tickets segn dueo (owner).\r\n     * @param _addressOwner Address Dueo de los Tickets.\r\n     */\r\n    function showTicketsByAddress(address _addressOwner) public {\r\n        for (uint256 i = 0; i < listTickets[_addressOwner].length; i++) {\r\n            listTickets[_addressOwner][i].showInformation();\r\n        }\r\n    }\r\n\r\n    /**@dev Muestra informacion de todos los tickets en la Plataforma.\r\n     */\r\n    function showAllTickets() public {\r\n        require(OwnersTickets.length > 0, \"Lista de Tickets vacia\");\r\n        address previuOwner;\r\n        bool repeat;\r\n        for (uint256 j = 0; j < OwnersTickets.length; j++) {\r\n            if(j == 0) {\r\n                showTicketsByAddress(OwnersTickets[j]);\r\n                previuOwner = OwnersTickets[j];\r\n                noRepeatOwner.push(OwnersTickets[j]);\r\n            } else if(previuOwner != OwnersTickets[j]) {\r\n                repeat = false;\r\n                for(uint256 z=0; z < noRepeatOwner.length; z++){\r\n                    if(OwnersTickets[j] == noRepeatOwner[z]){\r\n                        repeat = true;\r\n                    }\r\n                }\r\n                if(!repeat){\r\n                    showTicketsByAddress(OwnersTickets[j]);\r\n                    previuOwner = OwnersTickets[j];\r\n                    noRepeatOwner.push(OwnersTickets[j]);\r\n                }   \r\n            }\r\n        }\r\n    }\r\n\r\n    /**@dev Funcin para el pago de comisiones al contrato Manager.\r\n     * @param _feeTicket Comisin (fee) a pagar al contrato Manager.\r\n     */\r\n    function feeManage(uint256 _feeTicket) public payable returns (uint256) {\r\n        (bool success, ) = addressManager.call{value: _feeTicket}(\"\");\r\n        require(success == true, \"Transferencia fallida!\");\r\n        return _feeTicket;\r\n    }\r\n\r\n    /**@dev Calculo del fee en las transferencias de ticket.\r\n     * @param _addressOwner Address Dueo del Ticket.\r\n     * @param _index Index del Ticket.\r\n     */\r\n    function feeCalculation(address _addressOwner, uint256 _index)\r\n        public\r\n        view\r\n        returns (uint256)\r\n    {\r\n        return ((listTickets[_addressOwner][_index].getPrice() * Fee) / 100);\r\n    }\r\n\r\n    /**@dev Funcin que devuelve la lista de Owners.\r\n    * @return OwnersTickets Lista de Address de Dueos de Tickets.\r\n    */\r\n    function getOwners() public view returns (address[] memory) {\r\n        return OwnersTickets;\r\n    }\r\n}\r\n",
  "sourcePath": "C:\\Users\\FRICHARD\\Desktop\\CURSO SOLIDITY\\Trabajo Final Integrador\\contracts\\Manager.sol",
  "compiler": {
    "name": "solc",
    "version": "0.8.17+commit.8df45f5f.Emscripten.clang"
  },
  "schemaVersion": "3.4.10",
  "updatedAt": "2022-12-12T00:16:28.294Z",
  "networkType": "ethereum",
  "devdoc": {
    "kind": "dev",
    "methods": {
      "changeStatusTicket(address,uint256,uint256)": {
        "details": "Funcin para cambiar el Estado del Ticket (VALID, USED, EXPIRED).",
        "params": {
          "_addressOwner": "Address Dueo del Ticket.",
          "_index": "Index del Ticket.",
          "_newTicketStatus": "Nuevo Estado del Ticket. // Control realizado: // Que listTickets[_addressOwner][_index].getOwner() sea = a msg.sender,  // solo el dueo puede cambiar el TicketStatus."
        }
      },
      "changeTicketPrice(address,uint256,uint256)": {
        "details": "Funcion para cambiar el precio del ticket.",
        "params": {
          "_addressOwner": "Address Dueo del Ticket Ingresado.",
          "_index": "Index del Ticket Ingresado.",
          "_newPriceTicket": "Nuevo Precio del Ticket Ingresado. // Controles realizados: // 1-Que listTickets[_addressOwner][_index].getOwner() sea = a msg.sender,  // solo el dueo puede cambiar el precio del Ticket, // 2-Que la _addressOwner ingresado sea realmente la duea del Ticket (getOwner()). // 3-Que el monto a pagar sea mayor o igual al nuevo precio del ticket  // (newPriceTicket + commission para el Manager)."
        }
      },
      "changeTransferStatusTicket(address,uint256)": {
        "details": "Funcin para cambiar el Estado de Transferencia (TRANSFERIBLE, NO_TRANSFERIBLE).",
        "params": {
          "_addressOwner": "Address Dueo del Ticket.",
          "_index": "Index del Ticket. // Control realizado: // Que listTickets[_addressOwner][_index].getOwner() sea = a msg.sender,  // solo el dueo puede cambiar el TransferStatus."
        }
      },
      "createTicket(string,string,uint8,uint256)": {
        "details": "Funcion para Tokenizar Tickets.",
        "params": {
          "_eventDescription": "Descripcin del Evento.",
          "_eventName": "Nombre del Evento.",
          "_eventType": "Tipo del Evento.",
          "_price": "Precio del Ticket. // El Ticket se crear con STATUS siempre en TicketStatus.VALID. // El Ticket se crear con TRANSFER STATUS en TransferStatus.NO_TRANSFERIBLE. // El address (msg.sender) que interactue con la funcin 'createTicket'  // queda como dueo (owner) del Ticket."
        }
      },
      "deleteTicket(address,uint256)": {
        "details": "Funcion para Eliminar un Ticket segn address del Owner.",
        "params": {
          "_addressOwner": "Address Dueo del Ticket.",
          "_index": "Index del Ticket. // Solo Manager puede eliminar un ticket."
        }
      },
      "feeCalculation(address,uint256)": {
        "details": "Calculo del fee en las transferencias de ticket.",
        "params": {
          "_addressOwner": "Address Dueo del Ticket.",
          "_index": "Index del Ticket."
        }
      },
      "feeManage(uint256)": {
        "details": "Funcin para el pago de comisiones al contrato Manager.",
        "params": {
          "_feeTicket": "Comisin (fee) a pagar al contrato Manager."
        }
      },
      "getOwners()": {
        "details": "Funcin que devuelve la lista de Owners.",
        "returns": {
          "_0": "OwnersTickets Lista de Address de Dueos de Tickets."
        }
      },
      "owner()": {
        "details": "Returns the address of the current owner."
      },
      "renounceOwnership()": {
        "details": "Leaves the contract without owner. It will not be possible to call `onlyOwner` functions anymore. Can only be called by the current owner. NOTE: Renouncing ownership will leave the contract without an owner, thereby removing any functionality that is only available to the owner."
      },
      "showAllTickets()": {
        "details": "Muestra informacion de todos los tickets en la Plataforma."
      },
      "showStatistics()": {
        "details": "Funcin para mostrar las estadisticas. // totalTickets: Total de Tickets en la Plataforma. // balanceTickets: Precio Total de Tickets en la Plataforma. // Solo Manager puede emitir las estadisticas."
      },
      "showTicketsByAddress(address)": {
        "details": "Muestra informacin de los Tickets segn dueo (owner).",
        "params": {
          "_addressOwner": "Address Dueo de los Tickets."
        }
      },
      "transferOwnership(address)": {
        "details": "Transfers ownership of the contract to a new account (`newOwner`). Can only be called by the current owner."
      },
      "transferTicket(address,uint256,address)": {
        "details": "Funcin para Transferir un Ticket.",
        "params": {
          "_addressOwner": "Address Dueo del Ticket.",
          "_index": "Index del Ticket.",
          "_newOwner": "Nuevo Dueo del Ticket. // Controles Realizados: // 1-Que la _addressOwner sea realmente la duea del Ticket (getOwner()). // 2-Que el Ticket sea Trasferible (tenga TransferStatus.TRANSFERIBLE). // 3-Que el Ticket sea Valido (tenga TicketStatus.VALID). // 4-Que _newOwner sea msg.sender (_newOwner address pagador del Ticket a _addressOwner). // 5-Que el monto a pagar sea mayor o igual al costo del ticket (getPrice()) + el feeTicket para el Manager. // La Transferencia del Ticket solo se har si el Ticket est en condicin de Transferirse,  // esto significa que se encuentra en Estado TRANSFERIBLE y VALID, stos estados del Ticket // solo pueden ser modificados por el Dueo del Ticket (Owner). // El Nuevo Dueo es quien puede realizar el Pago de la Transferencia del Ticket. // "
        }
      }
    },
    "title": "Contract Manager.",
    "version": 1
  },
  "userdoc": {
    "kind": "user",
    "methods": {},
    "version": 1
  }
}