{
  "contractName": "Ticket",
  "abi": [
    {
      "inputs": [
        {
          "internalType": "string",
          "name": "eventNameTicket",
          "type": "string"
        },
        {
          "internalType": "string",
          "name": "eventDescriptionTicket",
          "type": "string"
        },
        {
          "internalType": "enum EventType",
          "name": "eventTypeTicket",
          "type": "uint8"
        },
        {
          "internalType": "uint256",
          "name": "priceTicket",
          "type": "uint256"
        },
        {
          "internalType": "enum TransferStatus",
          "name": "transferStatusTicket",
          "type": "uint8"
        },
        {
          "internalType": "address",
          "name": "ownerTicket",
          "type": "address"
        }
      ],
      "stateMutability": "nonpayable",
      "type": "constructor"
    },
    {
      "anonymous": false,
      "inputs": [
        {
          "indexed": false,
          "internalType": "uint256",
          "name": "",
          "type": "uint256"
        },
        {
          "indexed": false,
          "internalType": "string",
          "name": "",
          "type": "string"
        },
        {
          "indexed": false,
          "internalType": "uint256",
          "name": "",
          "type": "uint256"
        },
        {
          "indexed": false,
          "internalType": "string",
          "name": "",
          "type": "string"
        },
        {
          "indexed": false,
          "internalType": "enum EventType",
          "name": "",
          "type": "uint8"
        },
        {
          "indexed": false,
          "internalType": "uint256",
          "name": "",
          "type": "uint256"
        },
        {
          "indexed": false,
          "internalType": "enum TicketStatus",
          "name": "",
          "type": "uint8"
        },
        {
          "indexed": false,
          "internalType": "enum TransferStatus",
          "name": "",
          "type": "uint8"
        },
        {
          "indexed": false,
          "internalType": "address",
          "name": "",
          "type": "address"
        }
      ],
      "name": "ShowTicket",
      "type": "event"
    },
    {
      "inputs": [
        {
          "internalType": "address",
          "name": "_newOwner",
          "type": "address"
        }
      ],
      "name": "changeOwner",
      "outputs": [],
      "stateMutability": "nonpayable",
      "type": "function"
    },
    {
      "inputs": [
        {
          "internalType": "uint256",
          "name": "_newPriceTicket",
          "type": "uint256"
        }
      ],
      "name": "changePrice",
      "outputs": [],
      "stateMutability": "nonpayable",
      "type": "function"
    },
    {
      "inputs": [],
      "name": "changeTransferStatus",
      "outputs": [],
      "stateMutability": "nonpayable",
      "type": "function"
    },
    {
      "inputs": [
        {
          "internalType": "uint256",
          "name": "_newTicketStatus",
          "type": "uint256"
        }
      ],
      "name": "changeStatus",
      "outputs": [],
      "stateMutability": "nonpayable",
      "type": "function"
    },
    {
      "inputs": [],
      "name": "showInformation",
      "outputs": [],
      "stateMutability": "nonpayable",
      "type": "function"
    },
    {
      "inputs": [],
      "name": "getId",
      "outputs": [
        {
          "internalType": "uint256",
          "name": "",
          "type": "uint256"
        }
      ],
      "stateMutability": "view",
      "type": "function"
    },
    {
      "inputs": [],
      "name": "getEventName",
      "outputs": [
        {
          "internalType": "string",
          "name": "",
          "type": "string"
        }
      ],
      "stateMutability": "view",
      "type": "function"
    },
    {
      "inputs": [],
      "name": "getEventDate",
      "outputs": [
        {
          "internalType": "uint256",
          "name": "",
          "type": "uint256"
        }
      ],
      "stateMutability": "view",
      "type": "function"
    },
    {
      "inputs": [],
      "name": "getEventDescription",
      "outputs": [
        {
          "internalType": "string",
          "name": "",
          "type": "string"
        }
      ],
      "stateMutability": "view",
      "type": "function"
    },
    {
      "inputs": [],
      "name": "getEventType",
      "outputs": [
        {
          "internalType": "enum EventType",
          "name": "",
          "type": "uint8"
        }
      ],
      "stateMutability": "view",
      "type": "function"
    },
    {
      "inputs": [],
      "name": "getPrice",
      "outputs": [
        {
          "internalType": "uint256",
          "name": "",
          "type": "uint256"
        }
      ],
      "stateMutability": "view",
      "type": "function"
    },
    {
      "inputs": [],
      "name": "getTransferStatus",
      "outputs": [
        {
          "internalType": "enum TransferStatus",
          "name": "",
          "type": "uint8"
        }
      ],
      "stateMutability": "view",
      "type": "function"
    },
    {
      "inputs": [],
      "name": "getTicketStatus",
      "outputs": [
        {
          "internalType": "enum TicketStatus",
          "name": "",
          "type": "uint8"
        }
      ],
      "stateMutability": "view",
      "type": "function"
    },
    {
      "inputs": [],
      "name": "getOwner",
      "outputs": [
        {
          "internalType": "address",
          "name": "",
          "type": "address"
        }
      ],
      "stateMutability": "view",
      "type": "function"
    }
  ],
  "bytecode": "0x60806040526008600055600054600a6200001a919062000343565b6001553480156200002a57600080fd5b50604051620016f3380380620016f383398181016040528101906200005091906200060d565b620000606200016d60201b60201c565b600281905550856003908162000077919062000928565b5042600481905550846005908162000090919062000928565b5083600660006101000a81548160ff02191690836002811115620000b957620000b862000a0f565b5b0217905550826007819055506000600860006101000a81548160ff02191690836002811115620000ee57620000ed62000a0f565b5b021790555081600860016101000a81548160ff021916908360018111156200011b576200011a62000a0f565b5b021790555080600860026101000a81548173ffffffffffffffffffffffffffffffffffffffff021916908373ffffffffffffffffffffffffffffffffffffffff16021790555050505050505062000b4a565b60008033426040516020016200018592919062000ab3565b6040516020818303038152906040528051906020012060001c905060015481620001b0919062000b12565b91505090565b7f4e487b7100000000000000000000000000000000000000000000000000000000600052601160045260246000fd5b60008160011c9050919050565b6000808291508390505b600185111562000244578086048111156200021c576200021b620001b6565b5b60018516156200022c5780820291505b80810290506200023c85620001e5565b9450620001fc565b94509492505050565b6000826200025f576001905062000332565b816200026f576000905062000332565b81600181146200028857600281146200029357620002c9565b600191505062000332565b60ff841115620002a857620002a7620001b6565b5b8360020a915084821115620002c257620002c1620001b6565b5b5062000332565b5060208310610133831016604e8410600b8410161715620003035782820a905083811115620002fd57620002fc620001b6565b5b62000332565b620003128484846001620001f2565b925090508184048111156200032c576200032b620001b6565b5b81810290505b9392505050565b6000819050919050565b6000620003508262000339565b91506200035d8362000339565b92506200038c7fffffffffffffffffffffffffffffffffffffffffffffffffffffffffffffffff84846200024d565b905092915050565b6000604051905090565b600080fd5b600080fd5b600080fd5b600080fd5b6000601f19601f8301169050919050565b7f4e487b7100000000000000000000000000000000000000000000000000000000600052604160045260246000fd5b620003fd82620003b2565b810181811067ffffffffffffffff821117156200041f576200041e620003c3565b5b80604052505050565b60006200043462000394565b9050620004428282620003f2565b919050565b600067ffffffffffffffff821115620004655762000464620003c3565b5b6200047082620003b2565b9050602081019050919050565b60005b838110156200049d57808201518184015260208101905062000480565b60008484015250505050565b6000620004c0620004ba8462000447565b62000428565b905082815260208101848484011115620004df57620004de620003ad565b5b620004ec8482856200047d565b509392505050565b600082601f8301126200050c576200050b620003a8565b5b81516200051e848260208601620004a9565b91505092915050565b600381106200053557600080fd5b50565b600081519050620005498162000527565b92915050565b6200055a8162000339565b81146200056657600080fd5b50565b6000815190506200057a816200054f565b92915050565b600281106200058e57600080fd5b50565b600081519050620005a28162000580565b92915050565b600073ffffffffffffffffffffffffffffffffffffffff82169050919050565b6000620005d582620005a8565b9050919050565b620005e781620005c8565b8114620005f357600080fd5b50565b6000815190506200060781620005dc565b92915050565b60008060008060008060c087890312156200062d576200062c6200039e565b5b600087015167ffffffffffffffff8111156200064e576200064d620003a3565b5b6200065c89828a01620004f4565b965050602087015167ffffffffffffffff81111562000680576200067f620003a3565b5b6200068e89828a01620004f4565b9550506040620006a189828a0162000538565b9450506060620006b489828a0162000569565b9350506080620006c789828a0162000591565b92505060a0620006da89828a01620005f6565b9150509295509295509295565b600081519050919050565b7f4e487b7100000000000000000000000000000000000000000000000000000000600052602260045260246000fd5b600060028204905060018216806200073a57607f821691505b60208210810362000750576200074f620006f2565b5b50919050565b60008190508160005260206000209050919050565b60006020601f8301049050919050565b600082821b905092915050565b600060088302620007ba7fffffffffffffffffffffffffffffffffffffffffffffffffffffffffffffffff826200077b565b620007c686836200077b565b95508019841693508086168417925050509392505050565b6000819050919050565b60006200080962000803620007fd8462000339565b620007de565b62000339565b9050919050565b6000819050919050565b6200082583620007e8565b6200083d620008348262000810565b84845462000788565b825550505050565b600090565b6200085462000845565b620008618184846200081a565b505050565b5b8181101562000889576200087d6000826200084a565b60018101905062000867565b5050565b601f821115620008d857620008a28162000756565b620008ad846200076b565b81016020851015620008bd578190505b620008d5620008cc856200076b565b83018262000866565b50505b505050565b600082821c905092915050565b6000620008fd60001984600802620008dd565b1980831691505092915050565b6000620009188383620008ea565b9150826002028217905092915050565b6200093382620006e7565b67ffffffffffffffff8111156200094f576200094e620003c3565b5b6200095b825462000721565b620009688282856200088d565b600060209050601f831160018114620009a057600084156200098b578287015190505b6200099785826200090a565b86555062000a07565b601f198416620009b08662000756565b60005b82811015620009da57848901518255600182019150602085019450602081019050620009b3565b86831015620009fa5784890151620009f6601f891682620008ea565b8355505b6001600288020188555050505b505050505050565b7f4e487b7100000000000000000000000000000000000000000000000000000000600052602160045260246000fd5b60008160601b9050919050565b600062000a588262000a3e565b9050919050565b600062000a6c8262000a4b565b9050919050565b62000a8862000a8282620005c8565b62000a5f565b82525050565b6000819050919050565b62000aad62000aa78262000339565b62000a8e565b82525050565b600062000ac1828562000a73565b60148201915062000ad3828462000a98565b6020820191508190509392505050565b7f4e487b7100000000000000000000000000000000000000000000000000000000600052601260045260246000fd5b600062000b1f8262000339565b915062000b2c8362000339565b92508262000b3f5762000b3e62000ae3565b5b828206905092915050565b610b998062000b5a6000396000f3fe608060405234801561001057600080fd5b50600436106100ea5760003560e01c80639f5be1ca1161008c578063a6f9dae111610066578063a6f9dae114610205578063b81e43fc14610221578063e8025d771461023f578063f15358941461025b576100ea565b80639f5be1ca146101ad578063a21145b6146101cb578063a2b40d19146101e9576100ea565b80635d1ca631116100c85780635d1ca63114610149578063893d20e8146101675780638fcde9001461018557806398d5fdca1461018f576100ea565b80631a6fb342146100ef5780633bc21fcb1461010d578063575836a31461012b575b600080fd5b6100f7610265565b60405161010491906106f5565b60405180910390f35b61011561027c565b6040516101229190610758565b60405180910390f35b610133610293565b604051610140919061078c565b60405180910390f35b61015161029d565b60405161015e919061078c565b60405180910390f35b61016f6102a7565b60405161017c91906107e8565b60405180910390f35b61018d6102d1565b005b610197610369565b6040516101a4919061078c565b60405180910390f35b6101b5610373565b6040516101c2919061084b565b60405180910390f35b6101d361038a565b6040516101e091906108f6565b60405180910390f35b61020360048036038101906101fe9190610949565b61041c565b005b61021f600480360381019061021a91906109a2565b610426565b005b6102296104a3565b60405161023691906108f6565b60405180910390f35b61025960048036038101906102549190610949565b610535565b005b6102636105de565b005b6000600860019054906101000a900460ff16905090565b6000600860009054906101000a900460ff16905090565b6000600454905090565b6000600254905090565b6000600860029054906101000a900473ffffffffffffffffffffffffffffffffffffffff16905090565b6001808111156102e4576102e361067e565b5b600860019054906101000a900460ff1660018111156103065761030561067e565b5b0361033b576000600860016101000a81548160ff021916908360018111156103315761033061067e565b5b0217905550610367565b6001600860016101000a81548160ff021916908360018111156103615761036061067e565b5b02179055505b565b6000600754905090565b6000600660009054906101000a900460ff16905090565b606060058054610399906109fe565b80601f01602080910402602001604051908101604052809291908181526020018280546103c5906109fe565b80156104125780601f106103e757610100808354040283529160200191610412565b820191906000526020600020905b8154815290600101906020018083116103f557829003601f168201915b5050505050905090565b8060078190555050565b600073ffffffffffffffffffffffffffffffffffffffff168173ffffffffffffffffffffffffffffffffffffffff160361045f57600080fd5b80600860026101000a81548173ffffffffffffffffffffffffffffffffffffffff021916908373ffffffffffffffffffffffffffffffffffffffff16021790555050565b6060600380546104b2906109fe565b80601f01602080910402602001604051908101604052809291908181526020018280546104de906109fe565b801561052b5780601f106105005761010080835404028352916020019161052b565b820191906000526020600020905b81548152906001019060200180831161050e57829003601f168201915b5050505050905090565b6000810361056d576000600860006101000a81548160ff021916908360028111156105635761056261067e565b5b02179055506105db565b600181036105a5576001600860006101000a81548160ff0219169083600281111561059b5761059a61067e565b5b02179055506105da565b600281036105d9576002600860006101000a81548160ff021916908360028111156105d3576105d261067e565b5b02179055505b5b5b50565b7fdeeed688e34b89a6477cad8a0c65d1f808f26a89ebd96c7cb8b3327ea7ac8b5760025460036004546005600660009054906101000a900460ff16600754600860009054906101000a900460ff16600860019054906101000a900460ff16600860029054906101000a900473ffffffffffffffffffffffffffffffffffffffff1660405161067499989796959493929190610ac8565b60405180910390a1565b7f4e487b7100000000000000000000000000000000000000000000000000000000600052602160045260246000fd5b600281106106be576106bd61067e565b5b50565b60008190506106cf826106ad565b919050565b60006106df826106c1565b9050919050565b6106ef816106d4565b82525050565b600060208201905061070a60008301846106e6565b92915050565b600381106107215761072061067e565b5b50565b600081905061073282610710565b919050565b600061074282610724565b9050919050565b61075281610737565b82525050565b600060208201905061076d6000830184610749565b92915050565b6000819050919050565b61078681610773565b82525050565b60006020820190506107a1600083018461077d565b92915050565b600073ffffffffffffffffffffffffffffffffffffffff82169050919050565b60006107d2826107a7565b9050919050565b6107e2816107c7565b82525050565b60006020820190506107fd60008301846107d9565b92915050565b600381106108145761081361067e565b5b50565b600081905061082582610803565b919050565b600061083582610817565b9050919050565b6108458161082a565b82525050565b6000602082019050610860600083018461083c565b92915050565b600081519050919050565b600082825260208201905092915050565b60005b838110156108a0578082015181840152602081019050610885565b60008484015250505050565b6000601f19601f8301169050919050565b60006108c882610866565b6108d28185610871565b93506108e2818560208601610882565b6108eb816108ac565b840191505092915050565b6000602082019050818103600083015261091081846108bd565b905092915050565b600080fd5b61092681610773565b811461093157600080fd5b50565b6000813590506109438161091d565b92915050565b60006020828403121561095f5761095e610918565b5b600061096d84828501610934565b91505092915050565b61097f816107c7565b811461098a57600080fd5b50565b60008135905061099c81610976565b92915050565b6000602082840312156109b8576109b7610918565b5b60006109c68482850161098d565b91505092915050565b7f4e487b7100000000000000000000000000000000000000000000000000000000600052602260045260246000fd5b60006002820490506001821680610a1657607f821691505b602082108103610a2957610a286109cf565b5b50919050565b60008190508160005260206000209050919050565b60008154610a51816109fe565b610a5b8186610871565b94506001821660008114610a765760018114610a8c57610abf565b60ff198316865281151560200286019350610abf565b610a9585610a2f565b60005b83811015610ab757815481890152600182019150602081019050610a98565b808801955050505b50505092915050565b600061012082019050610ade600083018c61077d565b8181036020830152610af0818b610a44565b9050610aff604083018a61077d565b8181036060830152610b118189610a44565b9050610b20608083018861083c565b610b2d60a083018761077d565b610b3a60c0830186610749565b610b4760e08301856106e6565b610b556101008301846107d9565b9a995050505050505050505056fea26469706673582212206469a60d2f1fa86695dca400b321f4a59311c3fa84ab4ac255f8b0ee0463db3064736f6c63430008110033",
  "immutableReferences": {},
  "source": "/* *** Ticket ***\r\nEl proceso de tokenizacin simplemente es recibir los datos del ticket por parmetros en el constructor.\r\n\r\nLos atributos del contrato Ticket son:\r\n- id: Un identificador nico para cada ticket.\r\n- eventName: El nombre del evento.\r\n- eventDate: La fecha del evento.\r\n- price: el precio en ethers del ticket.\r\n- eventDescription: Una descripcin corta del evento.\r\n- eventType: el tipo de evento, en la v1 los tipos son Sports, Music, Cinema.\r\n- status: el estado del ticket, en la v1 los estados son: Used, Valid, Expired.\r\n- transferStatus: indica si es transferible o no, los estados son: Transferible, NoTransferible.\r\n- owner: el address que es dueo del ticket.\r\n\r\nX - Deber tener una funcin para poder cambiar el precio del Ticket.\r\nX - Deber tener una funcin para cambiar el estado de TransferStatus.\r\nX - Deber tener una funcin para cambiar el estado del Ticket (status).\r\nX - Deber tener una funcin para cambiar de dueo en caso de ser vendido.\r\nX - Deber tener una funcin para generar el id nico (hash).\r\nX - Deber tener una funcin que retorne los datos relevantes del ticket, para poder mostrarlo \r\n  (eventName, eventDate, price, eventDescription, eventType y status).*/\r\n\r\n// SPDX-License-Identifier: MIT\r\npragma solidity 0.8.17;\r\n\r\nenum TransferStatus {\r\n    TRANSFERIBLE,\r\n    NO_TRANSFERIBLE\r\n}\r\n\r\nenum EventType {\r\n    SPORT,\r\n    MUSIC,\r\n    CINEMA\r\n}\r\n\r\nenum TicketStatus {\r\n    VALID,\r\n    USED,\r\n    EXPIRED\r\n}\r\n\r\n/** @title Contract Ticket.*/\r\ncontract Ticket {\r\n\r\n    /** Event para mostrar detalles del ticket. */\r\n    event ShowTicket(\r\n        uint256,\r\n        string,\r\n        uint256,\r\n        string,\r\n        EventType,\r\n        uint256,\r\n        TicketStatus,\r\n        TransferStatus,\r\n        address\r\n    );\r\n\r\n    /** El hash ser de 8 dgitos, por lo tanto, almacenamos 10 ^ 8,\r\n    que se usa para extraer los primeros 8 dgitos ms tarde por Modulus. */\r\n    uint256 hashDigits = 8;\r\n    uint256 hashModulus = 10**hashDigits;\r\n\r\n    uint256 private _id;\r\n    string private _eventName;\r\n    uint256 private _eventDate;\r\n    string private _eventDescription;\r\n    EventType private _eventType;\r\n    uint256 private _price;\r\n    TicketStatus private _status;\r\n    TransferStatus private _transferStatus;\r\n    address private _owner;\r\n\r\n    constructor(\r\n        string memory eventNameTicket,\r\n        string memory eventDescriptionTicket,\r\n        EventType eventTypeTicket,\r\n        uint256 priceTicket,\r\n        TransferStatus transferStatusTicket,\r\n        address ownerTicket\r\n    ) {\r\n        _id = generateId();\r\n        _eventName = eventNameTicket;\r\n        _eventDate = block.timestamp;\r\n        _eventDescription = eventDescriptionTicket;\r\n        _eventType = eventTypeTicket;\r\n        _price = priceTicket;\r\n        _status = TicketStatus.VALID;\r\n        _transferStatus = transferStatusTicket;\r\n        _owner = ownerTicket;\r\n    }\r\n\r\n    /**@dev Funcin para cambiar de dueo. \r\n    * @param _newOwner Nuevo dueo del Ticket. \r\n    */\r\n    function changeOwner(address _newOwner) public {\r\n        require(_newOwner != address(0));\r\n        _owner = _newOwner;\r\n    }\r\n\r\n    /**@dev Funcion para cambiar el precio del ticket. \r\n    * @param _newPriceTicket Nuevo precio del Ticket. \r\n    */\r\n    function changePrice(uint256 _newPriceTicket) public {\r\n        _price = _newPriceTicket;\r\n    }\r\n\r\n    /**@dev Funcin para cambiar el Estado de Transferencia (TRANSFERIBLE, NO_TRANSFERIBLE). \r\n    */\r\n    function changeTransferStatus() public {\r\n        if (_transferStatus == TransferStatus.NO_TRANSFERIBLE) {\r\n            _transferStatus = TransferStatus.TRANSFERIBLE;\r\n        } else {\r\n            _transferStatus = TransferStatus.NO_TRANSFERIBLE;\r\n        }\r\n    }\r\n\r\n    /**@dev Funcin para cambiar el Estado del Ticket (VALID, USED, EXPIRED). \r\n    * @param _newTicketStatus Status del Ticket.\r\n    */\r\n    function changeStatus(uint256 _newTicketStatus) public {\r\n        if (_newTicketStatus == 0) {\r\n            _status = TicketStatus.VALID;\r\n        } else if (_newTicketStatus == 1) {\r\n            _status = TicketStatus.USED;\r\n        } else if (_newTicketStatus == 2) {\r\n            _status = TicketStatus.EXPIRED;\r\n        }\r\n    }\r\n\r\n    /**@dev Funcin para generar el hash para el _ID.\r\n    //El hash ser de 8 dgitos, por lo tanto, almacenamos 10 ^ 8,\r\n    //que se usa para extraer los primeros 8 dgitos ms tarde por Modulus.\r\n    */\r\n    function generateId() private view returns (uint256) {\r\n        uint256 idTicket = uint256(\r\n            keccak256(abi.encodePacked(msg.sender, block.timestamp))\r\n        );\r\n        return idTicket % hashModulus;\r\n    }\r\n\r\n    /**@dev Funcin para mostrar los datos relevantes del Ticket. \r\n    */\r\n    function showInformation() public {\r\n        emit ShowTicket(\r\n            _id,\r\n            _eventName,\r\n            _eventDate,\r\n            _eventDescription,\r\n            _eventType,\r\n            _price,\r\n            _status,\r\n            _transferStatus,\r\n            _owner\r\n        );\r\n    }\r\n\r\n    /** Geters. */\r\n    function getId() public view returns (uint256) {\r\n        return _id;\r\n    }\r\n\r\n    function getEventName() public view returns (string memory) {\r\n        return _eventName;\r\n    }\r\n\r\n    function getEventDate() public view returns (uint256) {\r\n        return _eventDate;\r\n    }\r\n\r\n    function getEventDescription() public view returns (string memory) {\r\n        return _eventDescription;\r\n    }\r\n\r\n    function getEventType() public view returns (EventType) {\r\n        return _eventType;\r\n    }\r\n\r\n    function getPrice() public view returns (uint256) {\r\n        return _price;\r\n    }\r\n\r\n    function getTransferStatus() public view returns (TransferStatus) {\r\n        return _transferStatus;\r\n    }\r\n\r\n    function getTicketStatus() public view returns (TicketStatus) {\r\n        return _status;\r\n    }\r\n\r\n    function getOwner() public view returns (address) {\r\n        return _owner;\r\n    }\r\n}\r\n",
  "sourcePath": "C:\\Users\\FRICHARD\\Desktop\\CURSO SOLIDITY\\Trabajo Final Integrador\\contracts\\Ticket.sol",
  "compiler": {
    "name": "solc",
    "version": "0.8.17+commit.8df45f5f.Emscripten.clang"
  },
  "schemaVersion": "3.4.10",
  "updatedAt": "2022-12-02T23:37:51.149Z",
  "devdoc": {
    "kind": "dev",
    "methods": {
      "changeOwner(address)": {
        "details": "Funcin para cambiar de dueo. ",
        "params": {
          "_newOwner": "Nuevo dueo del Ticket. "
        }
      },
      "changePrice(uint256)": {
        "details": "Funcion para cambiar el precio del ticket. ",
        "params": {
          "_newPriceTicket": "Nuevo precio del Ticket. "
        }
      },
      "changeStatus(uint256)": {
        "details": "Funcin para cambiar el Estado del Ticket (VALID, USED, EXPIRED). ",
        "params": {
          "_newTicketStatus": "Status del Ticket."
        }
      },
      "changeTransferStatus()": {
        "details": "Funcin para cambiar el Estado de Transferencia (TRANSFERIBLE, NO_TRANSFERIBLE). "
      },
      "showInformation()": {
        "details": "Funcin para mostrar los datos relevantes del Ticket. "
      }
    },
    "title": "Contract Ticket.",
    "version": 1
  },
  "userdoc": {
    "events": {
      "ShowTicket(uint256,string,uint256,string,uint8,uint256,uint8,uint8,address)": {
        "notice": "Event para mostrar detalles del ticket. "
      }
    },
    "kind": "user",
    "methods": {
      "getId()": {
        "notice": "Geters. "
      }
    },
    "version": 1
  }
}