{
  "contractName": "Ticket",
  "abi": [
    {
      "inputs": [
        {
          "internalType": "string",
          "name": "eventNameTicket",
          "type": "string"
        },
        {
          "internalType": "string",
          "name": "eventDescriptionTicket",
          "type": "string"
        },
        {
          "internalType": "enum EventType",
          "name": "eventTypeTicket",
          "type": "uint8"
        },
        {
          "internalType": "uint256",
          "name": "priceTicket",
          "type": "uint256"
        },
        {
          "internalType": "address",
          "name": "ownerTicket",
          "type": "address"
        }
      ],
      "stateMutability": "nonpayable",
      "type": "constructor"
    },
    {
      "anonymous": false,
      "inputs": [
        {
          "indexed": false,
          "internalType": "uint256",
          "name": "",
          "type": "uint256"
        },
        {
          "indexed": false,
          "internalType": "string",
          "name": "",
          "type": "string"
        },
        {
          "indexed": false,
          "internalType": "uint256",
          "name": "",
          "type": "uint256"
        },
        {
          "indexed": false,
          "internalType": "string",
          "name": "",
          "type": "string"
        },
        {
          "indexed": false,
          "internalType": "enum EventType",
          "name": "",
          "type": "uint8"
        },
        {
          "indexed": false,
          "internalType": "uint256",
          "name": "",
          "type": "uint256"
        },
        {
          "indexed": false,
          "internalType": "enum TicketStatus",
          "name": "",
          "type": "uint8"
        },
        {
          "indexed": false,
          "internalType": "enum TransferStatus",
          "name": "",
          "type": "uint8"
        },
        {
          "indexed": false,
          "internalType": "address",
          "name": "",
          "type": "address"
        }
      ],
      "name": "ShowTicket",
      "type": "event"
    },
    {
      "inputs": [
        {
          "internalType": "address",
          "name": "_newOwner",
          "type": "address"
        },
        {
          "internalType": "uint256",
          "name": "_oldId",
          "type": "uint256"
        },
        {
          "internalType": "uint256",
          "name": "_oldEventDate",
          "type": "uint256"
        }
      ],
      "name": "changeOwner",
      "outputs": [],
      "stateMutability": "nonpayable",
      "type": "function"
    },
    {
      "inputs": [
        {
          "internalType": "uint256",
          "name": "_newPriceTicket",
          "type": "uint256"
        }
      ],
      "name": "changePrice",
      "outputs": [],
      "stateMutability": "nonpayable",
      "type": "function"
    },
    {
      "inputs": [],
      "name": "changeTransferStatus",
      "outputs": [],
      "stateMutability": "nonpayable",
      "type": "function"
    },
    {
      "inputs": [
        {
          "internalType": "uint256",
          "name": "_newTicketStatus",
          "type": "uint256"
        }
      ],
      "name": "changeStatus",
      "outputs": [],
      "stateMutability": "nonpayable",
      "type": "function"
    },
    {
      "inputs": [],
      "name": "showInformation",
      "outputs": [],
      "stateMutability": "nonpayable",
      "type": "function"
    },
    {
      "inputs": [],
      "name": "getId",
      "outputs": [
        {
          "internalType": "uint256",
          "name": "",
          "type": "uint256"
        }
      ],
      "stateMutability": "view",
      "type": "function"
    },
    {
      "inputs": [],
      "name": "getEventName",
      "outputs": [
        {
          "internalType": "string",
          "name": "",
          "type": "string"
        }
      ],
      "stateMutability": "view",
      "type": "function"
    },
    {
      "inputs": [],
      "name": "getEventDate",
      "outputs": [
        {
          "internalType": "uint256",
          "name": "",
          "type": "uint256"
        }
      ],
      "stateMutability": "view",
      "type": "function"
    },
    {
      "inputs": [],
      "name": "getEventDescription",
      "outputs": [
        {
          "internalType": "string",
          "name": "",
          "type": "string"
        }
      ],
      "stateMutability": "view",
      "type": "function"
    },
    {
      "inputs": [],
      "name": "getEventType",
      "outputs": [
        {
          "internalType": "enum EventType",
          "name": "",
          "type": "uint8"
        }
      ],
      "stateMutability": "view",
      "type": "function"
    },
    {
      "inputs": [],
      "name": "getPrice",
      "outputs": [
        {
          "internalType": "uint256",
          "name": "",
          "type": "uint256"
        }
      ],
      "stateMutability": "view",
      "type": "function"
    },
    {
      "inputs": [],
      "name": "getTransferStatus",
      "outputs": [
        {
          "internalType": "enum TransferStatus",
          "name": "",
          "type": "uint8"
        }
      ],
      "stateMutability": "view",
      "type": "function"
    },
    {
      "inputs": [],
      "name": "getTicketStatus",
      "outputs": [
        {
          "internalType": "enum TicketStatus",
          "name": "",
          "type": "uint8"
        }
      ],
      "stateMutability": "view",
      "type": "function"
    },
    {
      "inputs": [],
      "name": "getOwner",
      "outputs": [
        {
          "internalType": "address",
          "name": "",
          "type": "address"
        }
      ],
      "stateMutability": "view",
      "type": "function"
    }
  ],
  "bytecode": "0x60806040526008600055600054600a6200001a919062000343565b6001553480156200002a57600080fd5b50604051620016ac380380620016ac8339818101604052810190620000509190620005e5565b620000606200016d60201b60201c565b6002819055504260048190555084600390816200007e9190620008ec565b508360059081620000909190620008ec565b5082600660006101000a81548160ff02191690836002811115620000b957620000b8620009d3565b5b0217905550816007819055506000600860006101000a81548160ff02191690836002811115620000ee57620000ed620009d3565b5b02179055506001600860016101000a81548160ff021916908360018111156200011c576200011b620009d3565b5b021790555080600860026101000a81548173ffffffffffffffffffffffffffffffffffffffff021916908373ffffffffffffffffffffffffffffffffffffffff160217905550505050505062000b0e565b60008033426040516020016200018592919062000a77565b6040516020818303038152906040528051906020012060001c905060015481620001b0919062000ad6565b91505090565b7f4e487b7100000000000000000000000000000000000000000000000000000000600052601160045260246000fd5b60008160011c9050919050565b6000808291508390505b600185111562000244578086048111156200021c576200021b620001b6565b5b60018516156200022c5780820291505b80810290506200023c85620001e5565b9450620001fc565b94509492505050565b6000826200025f576001905062000332565b816200026f576000905062000332565b81600181146200028857600281146200029357620002c9565b600191505062000332565b60ff841115620002a857620002a7620001b6565b5b8360020a915084821115620002c257620002c1620001b6565b5b5062000332565b5060208310610133831016604e8410600b8410161715620003035782820a905083811115620002fd57620002fc620001b6565b5b62000332565b620003128484846001620001f2565b925090508184048111156200032c576200032b620001b6565b5b81810290505b9392505050565b6000819050919050565b6000620003508262000339565b91506200035d8362000339565b92506200038c7fffffffffffffffffffffffffffffffffffffffffffffffffffffffffffffffff84846200024d565b905092915050565b6000604051905090565b600080fd5b600080fd5b600080fd5b600080fd5b6000601f19601f8301169050919050565b7f4e487b7100000000000000000000000000000000000000000000000000000000600052604160045260246000fd5b620003fd82620003b2565b810181811067ffffffffffffffff821117156200041f576200041e620003c3565b5b80604052505050565b60006200043462000394565b9050620004428282620003f2565b919050565b600067ffffffffffffffff821115620004655762000464620003c3565b5b6200047082620003b2565b9050602081019050919050565b60005b838110156200049d57808201518184015260208101905062000480565b60008484015250505050565b6000620004c0620004ba8462000447565b62000428565b905082815260208101848484011115620004df57620004de620003ad565b5b620004ec8482856200047d565b509392505050565b600082601f8301126200050c576200050b620003a8565b5b81516200051e848260208601620004a9565b91505092915050565b600381106200053557600080fd5b50565b600081519050620005498162000527565b92915050565b6200055a8162000339565b81146200056657600080fd5b50565b6000815190506200057a816200054f565b92915050565b600073ffffffffffffffffffffffffffffffffffffffff82169050919050565b6000620005ad8262000580565b9050919050565b620005bf81620005a0565b8114620005cb57600080fd5b50565b600081519050620005df81620005b4565b92915050565b600080600080600060a086880312156200060457620006036200039e565b5b600086015167ffffffffffffffff811115620006255762000624620003a3565b5b6200063388828901620004f4565b955050602086015167ffffffffffffffff811115620006575762000656620003a3565b5b6200066588828901620004f4565b9450506040620006788882890162000538565b93505060606200068b8882890162000569565b92505060806200069e88828901620005ce565b9150509295509295909350565b600081519050919050565b7f4e487b7100000000000000000000000000000000000000000000000000000000600052602260045260246000fd5b60006002820490506001821680620006fe57607f821691505b602082108103620007145762000713620006b6565b5b50919050565b60008190508160005260206000209050919050565b60006020601f8301049050919050565b600082821b905092915050565b6000600883026200077e7fffffffffffffffffffffffffffffffffffffffffffffffffffffffffffffffff826200073f565b6200078a86836200073f565b95508019841693508086168417925050509392505050565b6000819050919050565b6000620007cd620007c7620007c18462000339565b620007a2565b62000339565b9050919050565b6000819050919050565b620007e983620007ac565b62000801620007f882620007d4565b8484546200074c565b825550505050565b600090565b6200081862000809565b62000825818484620007de565b505050565b5b818110156200084d57620008416000826200080e565b6001810190506200082b565b5050565b601f8211156200089c5762000866816200071a565b62000871846200072f565b8101602085101562000881578190505b6200089962000890856200072f565b8301826200082a565b50505b505050565b600082821c905092915050565b6000620008c160001984600802620008a1565b1980831691505092915050565b6000620008dc8383620008ae565b9150826002028217905092915050565b620008f782620006ab565b67ffffffffffffffff811115620009135762000912620003c3565b5b6200091f8254620006e5565b6200092c82828562000851565b600060209050601f8311600181146200096457600084156200094f578287015190505b6200095b8582620008ce565b865550620009cb565b601f19841662000974866200071a565b60005b828110156200099e5784890151825560018201915060208501945060208101905062000977565b86831015620009be5784890151620009ba601f891682620008ae565b8355505b6001600288020188555050505b505050505050565b7f4e487b7100000000000000000000000000000000000000000000000000000000600052602160045260246000fd5b60008160601b9050919050565b600062000a1c8262000a02565b9050919050565b600062000a308262000a0f565b9050919050565b62000a4c62000a4682620005a0565b62000a23565b82525050565b6000819050919050565b62000a7162000a6b8262000339565b62000a52565b82525050565b600062000a85828562000a37565b60148201915062000a97828462000a5c565b6020820191508190509392505050565b7f4e487b7100000000000000000000000000000000000000000000000000000000600052601260045260246000fd5b600062000ae38262000339565b915062000af08362000339565b92508262000b035762000b0262000aa7565b5b828206905092915050565b610b8e8062000b1e6000396000f3fe608060405234801561001057600080fd5b50600436106100ea5760003560e01c806398d5fdca1161008c578063a2b40d1911610066578063a2b40d1914610205578063b81e43fc14610221578063e8025d771461023f578063f15358941461025b576100ea565b806398d5fdca146101ab5780639f5be1ca146101c9578063a21145b6146101e7576100ea565b8063575836a3116100c8578063575836a3146101475780635d1ca63114610165578063893d20e8146101835780638fcde900146101a1576100ea565b80631a6fb342146100ef57806325b2494d1461010d5780633bc21fcb14610129575b600080fd5b6100f7610265565b60405161010491906106c4565b60405180910390f35b61012760048036038101906101229190610778565b61027c565b005b6101316102c8565b60405161013e9190610813565b60405180910390f35b61014f6102df565b60405161015c919061083d565b60405180910390f35b61016d6102e9565b60405161017a919061083d565b60405180910390f35b61018b6102f3565b6040516101989190610867565b60405180910390f35b6101a961031d565b005b6101b36103b5565b6040516101c0919061083d565b60405180910390f35b6101d16103bf565b6040516101de91906108ca565b60405180910390f35b6101ef6103d6565b6040516101fc9190610975565b60405180910390f35b61021f600480360381019061021a9190610997565b610468565b005b610229610472565b6040516102369190610975565b60405180910390f35b61025960048036038101906102549190610997565b610504565b005b6102636105ad565b005b6000600860019054906101000a900460ff16905090565b600073ffffffffffffffffffffffffffffffffffffffff168373ffffffffffffffffffffffffffffffffffffffff16036102b557600080fd5b8160028190555080600481905550505050565b6000600860009054906101000a900460ff16905090565b6000600454905090565b6000600254905090565b6000600860029054906101000a900473ffffffffffffffffffffffffffffffffffffffff16905090565b6001808111156103305761032f61064d565b5b600860019054906101000a900460ff1660018111156103525761035161064d565b5b03610387576000600860016101000a81548160ff0219169083600181111561037d5761037c61064d565b5b02179055506103b3565b6001600860016101000a81548160ff021916908360018111156103ad576103ac61064d565b5b02179055505b565b6000600754905090565b6000600660009054906101000a900460ff16905090565b6060600580546103e5906109f3565b80601f0160208091040260200160405190810160405280929190818152602001828054610411906109f3565b801561045e5780601f106104335761010080835404028352916020019161045e565b820191906000526020600020905b81548152906001019060200180831161044157829003601f168201915b5050505050905090565b8060078190555050565b606060038054610481906109f3565b80601f01602080910402602001604051908101604052809291908181526020018280546104ad906109f3565b80156104fa5780601f106104cf576101008083540402835291602001916104fa565b820191906000526020600020905b8154815290600101906020018083116104dd57829003601f168201915b5050505050905090565b6000810361053c576000600860006101000a81548160ff021916908360028111156105325761053161064d565b5b02179055506105aa565b60018103610574576001600860006101000a81548160ff0219169083600281111561056a5761056961064d565b5b02179055506105a9565b600281036105a8576002600860006101000a81548160ff021916908360028111156105a2576105a161064d565b5b02179055505b5b5b50565b7fdeeed688e34b89a6477cad8a0c65d1f808f26a89ebd96c7cb8b3327ea7ac8b5760025460036004546005600660009054906101000a900460ff16600754600860009054906101000a900460ff16600860019054906101000a900460ff16600860029054906101000a900473ffffffffffffffffffffffffffffffffffffffff1660405161064399989796959493929190610abd565b60405180910390a1565b7f4e487b7100000000000000000000000000000000000000000000000000000000600052602160045260246000fd5b6002811061068d5761068c61064d565b5b50565b600081905061069e8261067c565b919050565b60006106ae82610690565b9050919050565b6106be816106a3565b82525050565b60006020820190506106d960008301846106b5565b92915050565b600080fd5b600073ffffffffffffffffffffffffffffffffffffffff82169050919050565b600061070f826106e4565b9050919050565b61071f81610704565b811461072a57600080fd5b50565b60008135905061073c81610716565b92915050565b6000819050919050565b61075581610742565b811461076057600080fd5b50565b6000813590506107728161074c565b92915050565b600080600060608486031215610791576107906106df565b5b600061079f8682870161072d565b93505060206107b086828701610763565b92505060406107c186828701610763565b9150509250925092565b600381106107dc576107db61064d565b5b50565b60008190506107ed826107cb565b919050565b60006107fd826107df565b9050919050565b61080d816107f2565b82525050565b60006020820190506108286000830184610804565b92915050565b61083781610742565b82525050565b6000602082019050610852600083018461082e565b92915050565b61086181610704565b82525050565b600060208201905061087c6000830184610858565b92915050565b600381106108935761089261064d565b5b50565b60008190506108a482610882565b919050565b60006108b482610896565b9050919050565b6108c4816108a9565b82525050565b60006020820190506108df60008301846108bb565b92915050565b600081519050919050565b600082825260208201905092915050565b60005b8381101561091f578082015181840152602081019050610904565b60008484015250505050565b6000601f19601f8301169050919050565b6000610947826108e5565b61095181856108f0565b9350610961818560208601610901565b61096a8161092b565b840191505092915050565b6000602082019050818103600083015261098f818461093c565b905092915050565b6000602082840312156109ad576109ac6106df565b5b60006109bb84828501610763565b91505092915050565b7f4e487b7100000000000000000000000000000000000000000000000000000000600052602260045260246000fd5b60006002820490506001821680610a0b57607f821691505b602082108103610a1e57610a1d6109c4565b5b50919050565b60008190508160005260206000209050919050565b60008154610a46816109f3565b610a5081866108f0565b94506001821660008114610a6b5760018114610a8157610ab4565b60ff198316865281151560200286019350610ab4565b610a8a85610a24565b60005b83811015610aac57815481890152600182019150602081019050610a8d565b808801955050505b50505092915050565b600061012082019050610ad3600083018c61082e565b8181036020830152610ae5818b610a39565b9050610af4604083018a61082e565b8181036060830152610b068189610a39565b9050610b1560808301886108bb565b610b2260a083018761082e565b610b2f60c0830186610804565b610b3c60e08301856106b5565b610b4a610100830184610858565b9a995050505050505050505056fea26469706673582212205be664e6e57273619317b804dc014bfbe5a735dc67c2ee2c0f695cf7813ede9764736f6c63430008110033",
  "immutableReferences": {},
  "source": "/* *** Ticket ***\r\nEl proceso de tokenizacin simplemente es recibir los datos del ticket por parmetros en el constructor.\r\n\r\nLos atributos del contrato Ticket son:\r\n- id: Un identificador nico para cada ticket.\r\n- eventName: El nombre del evento.\r\n- eventDate: La fecha del evento.\r\n- price: el precio en ethers del ticket.\r\n- eventDescription: Una descripcin corta del evento.\r\n- eventType: el tipo de evento, en la v1 los tipos son Sports, Music, Cinema.\r\n- status: el estado del ticket, en la v1 los estados son: Used, Valid, Expired.\r\n- transferStatus: indica si es transferible o no, los estados son: Transferible, NoTransferible.\r\n- owner: el address que es dueo del ticket.\r\n\r\nX - Deber tener una funcin para poder cambiar el precio del Ticket.\r\nX - Deber tener una funcin para cambiar el estado de TransferStatus.\r\nX - Deber tener una funcin para cambiar el estado del Ticket (status).\r\nX - Deber tener una funcin para cambiar de dueo en caso de ser vendido.\r\nX - Deber tener una funcin para generar el id nico (hash).\r\nX - Deber tener una funcin que retorne los datos relevantes del ticket, para poder mostrarlo \r\n  (eventName, eventDate, price, eventDescription, eventType y status).*/\r\n\r\n// SPDX-License-Identifier: MIT\r\npragma solidity 0.8.17;\r\n\r\nenum TransferStatus {\r\n    TRANSFERIBLE,\r\n    NO_TRANSFERIBLE\r\n}\r\n\r\nenum EventType {\r\n    SPORT,\r\n    MUSIC,\r\n    CINEMA\r\n}\r\n\r\nenum TicketStatus {\r\n    VALID,\r\n    USED,\r\n    EXPIRED\r\n}\r\n\r\n/** @title Contract Ticket.*/\r\ncontract Ticket {\r\n    /** Event para mostrar detalles del ticket. */\r\n    event ShowTicket(\r\n        uint256,\r\n        string,\r\n        uint256,\r\n        string,\r\n        EventType,\r\n        uint256,\r\n        TicketStatus,\r\n        TransferStatus,\r\n        address\r\n    );\r\n\r\n    /** El hash ser de 8 dgitos, por lo tanto, almacenamos 10 ^ 8,\r\n    que se usa para extraer los primeros 8 dgitos ms tarde por Modulus. */\r\n    uint256 hashDigits = 8;\r\n    uint256 hashModulus = 10**hashDigits;\r\n\r\n    uint256 private _id;\r\n    string private _eventName;\r\n    uint256 private _eventDate;\r\n    string private _eventDescription;\r\n    EventType private _eventType;\r\n    uint256 private _price;\r\n    TicketStatus private _status;\r\n    TransferStatus private _transferStatus;\r\n    address private _owner;\r\n\r\n    constructor(\r\n        string memory eventNameTicket,\r\n        string memory eventDescriptionTicket,\r\n        EventType eventTypeTicket,\r\n        uint256 priceTicket,\r\n        address ownerTicket\r\n    ) { \r\n        _id = generateId(); \r\n        _eventDate = block.timestamp; \r\n        _eventName = eventNameTicket;\r\n        _eventDescription = eventDescriptionTicket;\r\n        _eventType = eventTypeTicket;\r\n        _price = priceTicket;\r\n        _status = TicketStatus.VALID;\r\n        _transferStatus = TransferStatus.NO_TRANSFERIBLE;\r\n        _owner = ownerTicket;\r\n    }\r\n\r\n    /**@dev Funcin para cambiar de dueo del Ticket.\r\n    * @param _newOwner Nuevo dueo del Ticket.\r\n    * @param _oldId Id original del Ticket.\r\n    * @param _oldEventDate Event Date original del Ticket.\r\n    // Esta funcin se usa solo en caso de una Transferencia del Ticket a un nuevo dueo.\r\n    // Cambia por el Id original del Ticket y el Event Date original del Ticket del antiguo dueo.\r\n     */\r\n    function changeOwner(address _newOwner, uint256 _oldId, uint256 _oldEventDate) public {\r\n        require(_newOwner != address(0));\r\n        _id = _oldId;\r\n        _eventDate = _oldEventDate;\r\n    }\r\n\r\n    /**@dev Funcion para cambiar el precio del ticket.\r\n     * @param _newPriceTicket Nuevo precio del Ticket.\r\n     */\r\n    function changePrice(uint256 _newPriceTicket) public {\r\n        _price = _newPriceTicket;\r\n    }\r\n\r\n    /**@dev Funcin para cambiar el Estado de Transferencia (TRANSFERIBLE, NO_TRANSFERIBLE).\r\n     */\r\n    function changeTransferStatus() public {\r\n        if (_transferStatus == TransferStatus.NO_TRANSFERIBLE) {\r\n            _transferStatus = TransferStatus.TRANSFERIBLE;\r\n        } else {\r\n            _transferStatus = TransferStatus.NO_TRANSFERIBLE;\r\n        }\r\n    }\r\n\r\n    /**@dev Funcin para cambiar el Estado del Ticket (VALID, USED, EXPIRED).\r\n     * @param _newTicketStatus Status del Ticket.\r\n     */\r\n    function changeStatus(uint256 _newTicketStatus) public {\r\n        if (_newTicketStatus == 0) {\r\n            _status = TicketStatus.VALID;\r\n        } else if (_newTicketStatus == 1) {\r\n            _status = TicketStatus.USED;\r\n        } else if (_newTicketStatus == 2) {\r\n            _status = TicketStatus.EXPIRED;\r\n        }\r\n    }\r\n\r\n    /**@dev Funcin para generar el hash para el _ID.\r\n    //El hash ser de 8 dgitos, por lo tanto, almacenamos 10 ^ 8,\r\n    //que se usa para extraer los primeros 8 dgitos ms tarde por Modulus.\r\n    */\r\n    function generateId() private view returns (uint256) {\r\n        uint256 idTicket = uint256(\r\n            keccak256(abi.encodePacked(msg.sender, block.timestamp))\r\n        );\r\n        return idTicket % hashModulus;\r\n    }\r\n\r\n    /**@dev Funcin para mostrar los datos relevantes del Ticket.\r\n     */\r\n    function showInformation() public {\r\n        emit ShowTicket(\r\n            _id,\r\n            _eventName,\r\n            _eventDate,\r\n            _eventDescription,\r\n            _eventType,\r\n            _price,\r\n            _status,\r\n            _transferStatus,\r\n            _owner\r\n        );\r\n    }\r\n\r\n    /** Geters. */\r\n    function getId() public view returns (uint256) {\r\n        return _id;\r\n    }\r\n\r\n    function getEventName() public view returns (string memory) {\r\n        return _eventName;\r\n    }\r\n\r\n    function getEventDate() public view returns (uint256) {\r\n        return _eventDate;\r\n    }\r\n\r\n    function getEventDescription() public view returns (string memory) {\r\n        return _eventDescription;\r\n    }\r\n\r\n    function getEventType() public view returns (EventType) {\r\n        return _eventType;\r\n    }\r\n\r\n    function getPrice() public view returns (uint256) {\r\n        return _price;\r\n    }\r\n\r\n    function getTransferStatus() public view returns (TransferStatus) {\r\n        return _transferStatus;\r\n    }\r\n\r\n    function getTicketStatus() public view returns (TicketStatus) {\r\n        return _status;\r\n    }\r\n\r\n    function getOwner() public view returns (address) {\r\n        return _owner;\r\n    }\r\n}\r\n",
  "sourcePath": "C:\\Users\\FRICHARD\\Desktop\\CURSO SOLIDITY\\Trabajo Final Integrador\\contracts\\Ticket.sol",
  "compiler": {
    "name": "solc",
    "version": "0.8.17+commit.8df45f5f.Emscripten.clang"
  },
  "schemaVersion": "3.4.10",
  "updatedAt": "2022-12-12T18:46:28.825Z",
  "devdoc": {
    "kind": "dev",
    "methods": {
      "changeOwner(address,uint256,uint256)": {
        "details": "Funcin para cambiar de dueo del Ticket.",
        "params": {
          "_newOwner": "Nuevo dueo del Ticket.",
          "_oldEventDate": "Event Date original del Ticket. // Esta funcin se usa solo en caso de una Transferencia del Ticket a un nuevo dueo. // Cambia por el Id original del Ticket y el Event Date original del Ticket del antiguo dueo.",
          "_oldId": "Id original del Ticket."
        }
      },
      "changePrice(uint256)": {
        "details": "Funcion para cambiar el precio del ticket.",
        "params": {
          "_newPriceTicket": "Nuevo precio del Ticket."
        }
      },
      "changeStatus(uint256)": {
        "details": "Funcin para cambiar el Estado del Ticket (VALID, USED, EXPIRED).",
        "params": {
          "_newTicketStatus": "Status del Ticket."
        }
      },
      "changeTransferStatus()": {
        "details": "Funcin para cambiar el Estado de Transferencia (TRANSFERIBLE, NO_TRANSFERIBLE)."
      },
      "showInformation()": {
        "details": "Funcin para mostrar los datos relevantes del Ticket."
      }
    },
    "title": "Contract Ticket.",
    "version": 1
  },
  "userdoc": {
    "events": {
      "ShowTicket(uint256,string,uint256,string,uint8,uint256,uint8,uint8,address)": {
        "notice": "Event para mostrar detalles del ticket. "
      }
    },
    "kind": "user",
    "methods": {
      "getId()": {
        "notice": "Geters. "
      }
    },
    "version": 1
  }
}